{"contracts/Storage.sol":{"Storage":{"abi":[{"inputs":[],"stateMutability":"nonpayable","type":"constructor"},{"anonymous":false,"inputs":[{"indexed":false,"internalType":"string","name":"fileName","type":"string"},{"indexed":false,"internalType":"string","name":"fileCid","type":"string"},{"indexed":false,"internalType":"address","name":"ownerAddress","type":"address"},{"indexed":false,"internalType":"address","name":"recipientAddresses","type":"address"}],"name":"CidUploaded","type":"event"},{"inputs":[{"internalType":"string","name":"cid","type":"string"},{"internalType":"address","name":"user","type":"address"}],"name":"canAccess","outputs":[{"internalType":"bool","name":"","type":"bool"}],"stateMutability":"view","type":"function"},{"inputs":[{"internalType":"string","name":"cid","type":"string"}],"name":"cidExists","outputs":[{"internalType":"bool","name":"","type":"bool"}],"stateMutability":"view","type":"function"},{"inputs":[{"internalType":"string","name":"fileCid","type":"string"}],"name":"deleteFileRecord","outputs":[],"stateMutability":"nonpayable","type":"function"},{"inputs":[{"internalType":"address","name":"uploaderAddress","type":"address"}],"name":"getCid","outputs":[{"internalType":"string","name":"","type":"string"}],"stateMutability":"view","type":"function"},{"inputs":[{"internalType":"address","name":"uploaderAddress","type":"address"}],"name":"getUploadedCids","outputs":[{"internalType":"string[]","name":"","type":"string[]"}],"stateMutability":"view","type":"function"},{"inputs":[{"internalType":"string","name":"cid","type":"string"},{"internalType":"address","name":"user","type":"address"}],"name":"grantAccess","outputs":[],"stateMutability":"nonpayable","type":"function"},{"inputs":[{"internalType":"string","name":"cid","type":"string"},{"internalType":"address","name":"user","type":"address"}],"name":"revokeAccess","outputs":[],"stateMutability":"nonpayable","type":"function"},{"inputs":[{"internalType":"string","name":"uploaderName","type":"string"},{"internalType":"string","name":"fileName","type":"string"},{"internalType":"string","name":"fileCid","type":"string"},{"internalType":"address","name":"ownerAddress","type":"address"},{"internalType":"address","name":"recipientAddresses","type":"address"}],"name":"uploadCid","outputs":[],"stateMutability":"nonpayable","type":"function"},{"inputs":[{"internalType":"string","name":"fileCid","type":"string"}],"name":"viewFileInfo","outputs":[{"internalType":"string","name":"","type":"string"},{"internalType":"string","name":"","type":"string"},{"internalType":"address","name":"","type":"address"},{"internalType":"address[]","name":"","type":"address[]"}],"stateMutability":"view","type":"function"}],"evm":{"bytecode":{"linkReferences":{},"object":"608060405234801561001057600080fd5b50336000806101000a81548173ffffffffffffffffffffffffffffffffffffffff021916908373ffffffffffffffffffffffffffffffffffffffff16021790555061253d806100606000396000f3fe608060405234801561001057600080fd5b50600436106100935760003560e01c8063a77015d111610066578063a77015d114610133578063b7ef5baf14610163578063d341972314610193578063dfe0b5fe146101c3578063f37c215e146101df57610093565b806327ee6f231461009857806334b35f16146100b45780639939fba6146100d0578063a108113014610100575b600080fd5b6100b260048036038101906100ad91906116fc565b6101fb565b005b6100ce60048036038101906100c991906117cb565b610578565b005b6100ea60048036038101906100e59190611814565b610b3c565b6040516100f79190611982565b60405180910390f35b61011a600480360381019061011591906117cb565b610c54565b60405161012a9493929190611abb565b60405180910390f35b61014d600480360381019061014891906117cb565b610f0e565b60405161015a9190611b30565b60405180910390f35b61017d60048036038101906101789190611b4b565b610f88565b60405161018a9190611b30565b60405180910390f35b6101ad60048036038101906101a89190611814565b610ffb565b6040516101ba9190611ba7565b60405180910390f35b6101dd60048036038101906101d89190611b4b565b6112bb565b005b6101f960048036038101906101f49190611b4b565b6113c1565b005b600073ffffffffffffffffffffffffffffffffffffffff166004846040516102239190611c05565b908152602001604051809103902060030160009054906101000a900473ffffffffffffffffffffffffffffffffffffffff1673ffffffffffffffffffffffffffffffffffffffff16146102ab576040517f08c379a00000000000000000000000000000000000000000000000000000000081526004016102a290611c68565b60405180910390fd5b846004846040516102bc9190611c05565b908152602001604051809103902060000190816102d99190611e9e565b50836004846040516102eb9190611c05565b908152602001604051809103902060010190816103089190611e9e565b508260048460405161031a9190611c05565b908152602001604051809103902060020190816103379190611e9e565b50336004846040516103499190611c05565b908152602001604051809103902060030160006101000a81548173ffffffffffffffffffffffffffffffffffffffff021916908373ffffffffffffffffffffffffffffffffffffffff1602179055506004836040516103a89190611c05565b9081526020016040518091039020600401819080600181540180825580915050600190039060005260206000200160009091909190916101000a81548173ffffffffffffffffffffffffffffffffffffffff021916908373ffffffffffffffffffffffffffffffffffffffff1602179055506001808460405161042b9190611c05565b908152602001604051809103902060008473ffffffffffffffffffffffffffffffffffffffff1673ffffffffffffffffffffffffffffffffffffffff16815260200190815260200160002060006101000a81548160ff0219169083151502179055506005839080600181540180825580915050600190039060005260206000200160009091909190915090816104c19190611e9e565b50600260003373ffffffffffffffffffffffffffffffffffffffff1673ffffffffffffffffffffffffffffffffffffffff168152602001908152602001600020839080600181540180825580915050600190039060005260206000200160009091909190915090816105339190611e9e565b507f32bb5a8aba375cb6f693e852ff2876ec292fa25fcf83f2f87dbe417edf2c5310848484846040516105699493929190611f70565b60405180910390a15050505050565b60008054906101000a900473ffffffffffffffffffffffffffffffffffffffff1673ffffffffffffffffffffffffffffffffffffffff163373ffffffffffffffffffffffffffffffffffffffff1614610606576040517f08c379a00000000000000000000000000000000000000000000000000000000081526004016105fd90612035565b60405180910390fd5b600073ffffffffffffffffffffffffffffffffffffffff1660048260405161062e9190611c05565b908152602001604051809103902060030160009054906101000a900473ffffffffffffffffffffffffffffffffffffffff1673ffffffffffffffffffffffffffffffffffffffff16036106b6576040517f08c379a00000000000000000000000000000000000000000000000000000000081526004016106ad906120c7565b60405180910390fd5b60006004826040516106c89190611c05565b908152602001604051809103902060030160009054906101000a900473ffffffffffffffffffffffffffffffffffffffff16905060048260405161070c9190611c05565b90815260200160405180910390206000808201600061072b91906114c6565b60018201600061073b91906114c6565b60028201600061074b91906114c6565b6003820160006101000a81549073ffffffffffffffffffffffffffffffffffffffff02191690556004820160006107829190611506565b505060005b6005805490508110156108a657826040516020016107a59190611c05565b60405160208183030381529060405280519060200120600582815481106107cf576107ce6120e7565b5b906000526020600020016040516020016107e99190612199565b6040516020818303038152906040528051906020012003610893576005600160058054905061081891906121df565b81548110610829576108286120e7565b5b9060005260206000200160058281548110610847576108466120e7565b5b90600052602060002001908161085d919061223e565b5060058054806108705761086f612326565b5b60019003818190600052602060002001600061088c91906114c6565b90556108a6565b808061089e90612355565b915050610787565b5060005b600260008373ffffffffffffffffffffffffffffffffffffffff1673ffffffffffffffffffffffffffffffffffffffff16815260200190815260200160002080549050811015610b3757826040516020016109059190611c05565b60405160208183030381529060405280519060200120600260008473ffffffffffffffffffffffffffffffffffffffff1673ffffffffffffffffffffffffffffffffffffffff168152602001908152602001600020828154811061096c5761096b6120e7565b5b906000526020600020016040516020016109869190612199565b6040516020818303038152906040528051906020012003610b2457600260008373ffffffffffffffffffffffffffffffffffffffff1673ffffffffffffffffffffffffffffffffffffffff1681526020019081526020016000206001600260008573ffffffffffffffffffffffffffffffffffffffff1673ffffffffffffffffffffffffffffffffffffffff16815260200190815260200160002080549050610a2f91906121df565b81548110610a4057610a3f6120e7565b5b90600052602060002001600260008473ffffffffffffffffffffffffffffffffffffffff1673ffffffffffffffffffffffffffffffffffffffff1681526020019081526020016000208281548110610a9b57610a9a6120e7565b5b906000526020600020019081610ab1919061223e565b50600260008373ffffffffffffffffffffffffffffffffffffffff1673ffffffffffffffffffffffffffffffffffffffff168152602001908152602001600020805480610b0157610b00612326565b5b600190038181906000526020600020016000610b1d91906114c6565b9055610b37565b8080610b2f90612355565b9150506108aa565b505050565b6060600260008373ffffffffffffffffffffffffffffffffffffffff1673ffffffffffffffffffffffffffffffffffffffff168152602001908152602001600020805480602002602001604051908101604052809291908181526020016000905b82821015610c49578382906000526020600020018054610bbc90611cb7565b80601f0160208091040260200160405190810160405280929190818152602001828054610be890611cb7565b8015610c355780601f10610c0a57610100808354040283529160200191610c35565b820191906000526020600020905b815481529060010190602001808311610c1857829003601f168201915b505050505081526020019060010190610b9d565b505050509050919050565b60608060006060600073ffffffffffffffffffffffffffffffffffffffff16600486604051610c839190611c05565b908152602001604051809103902060030160009054906101000a900473ffffffffffffffffffffffffffffffffffffffff1673ffffffffffffffffffffffffffffffffffffffff1603610d0b576040517f08c379a0000000000000000000000000000000000000000000000000000000008152600401610d02906123e9565b60405180910390fd5b6000600486604051610d1d9190611c05565b9081526020016040518091039020905080600001816001018260030160009054906101000a900473ffffffffffffffffffffffffffffffffffffffff1683600401838054610d6a90611cb7565b80601f0160208091040260200160405190810160405280929190818152602001828054610d9690611cb7565b8015610de35780601f10610db857610100808354040283529160200191610de3565b820191906000526020600020905b815481529060010190602001808311610dc657829003601f168201915b50505050509350828054610df690611cb7565b80601f0160208091040260200160405190810160405280929190818152602001828054610e2290611cb7565b8015610e6f5780601f10610e4457610100808354040283529160200191610e6f565b820191906000526020600020905b815481529060010190602001808311610e5257829003601f168201915b5050505050925080805480602002602001604051908101604052809291908181526020018280548015610ef757602002820191906000526020600020905b8160009054906101000a900473ffffffffffffffffffffffffffffffffffffffff1673ffffffffffffffffffffffffffffffffffffffff1681526020019060010190808311610ead575b505050505090509450945094509450509193509193565b60008073ffffffffffffffffffffffffffffffffffffffff16600383604051610f379190611c05565b908152602001604051809103902060030160009054906101000a900473ffffffffffffffffffffffffffffffffffffffff1673ffffffffffffffffffffffffffffffffffffffff1614159050919050565b6000600183604051610f9a9190611c05565b908152602001604051809103902060008373ffffffffffffffffffffffffffffffffffffffff1673ffffffffffffffffffffffffffffffffffffffff16815260200190815260200160002060009054906101000a900460ff16905092915050565b6060600073ffffffffffffffffffffffffffffffffffffffff168273ffffffffffffffffffffffffffffffffffffffff160361106c576040517f08c379a000000000000000000000000000000000000000000000000000000000815260040161106390612455565b60405180910390fd5b60006040518060200160405280600081525090506000805b6005805490508110156112705760006004600583815481106110a9576110a86120e7565b5b906000526020600020016040516110c09190612199565b908152602001604051809103902090508573ffffffffffffffffffffffffffffffffffffffff168160030160009054906101000a900473ffffffffffffffffffffffffffffffffffffffff1673ffffffffffffffffffffffffffffffffffffffff160361125c576111bd81600201805461113990611cb7565b80601f016020809104026020016040519081016040528092919081815260200182805461116590611cb7565b80156111b25780601f10611187576101008083540402835291602001916111b2565b820191906000526020600020905b81548152906001019060200180831161119557829003601f168201915b505050505033610f88565b1561125b578060020180546111d190611cb7565b80601f01602080910402602001604051908101604052809291908181526020018280546111fd90611cb7565b801561124a5780601f1061121f5761010080835404028352916020019161124a565b820191906000526020600020905b81548152906001019060200180831161122d57829003601f168201915b505050505093506001925050611270565b5b50808061126890612355565b915050611084565b50806112b1576040517f08c379a00000000000000000000000000000000000000000000000000000000081526004016112a8906124e7565b60405180910390fd5b8192505050919050565b60008054906101000a900473ffffffffffffffffffffffffffffffffffffffff1673ffffffffffffffffffffffffffffffffffffffff163373ffffffffffffffffffffffffffffffffffffffff1614611349576040517f08c379a000000000000000000000000000000000000000000000000000000000815260040161134090612035565b60405180910390fd5b600060018360405161135b9190611c05565b908152602001604051809103902060008373ffffffffffffffffffffffffffffffffffffffff1673ffffffffffffffffffffffffffffffffffffffff16815260200190815260200160002060006101000a81548160ff0219169083151502179055505050565b60008054906101000a900473ffffffffffffffffffffffffffffffffffffffff1673ffffffffffffffffffffffffffffffffffffffff163373ffffffffffffffffffffffffffffffffffffffff161461144f576040517f08c379a000000000000000000000000000000000000000000000000000000000815260040161144690612035565b60405180910390fd5b600180836040516114609190611c05565b908152602001604051809103902060008373ffffffffffffffffffffffffffffffffffffffff1673ffffffffffffffffffffffffffffffffffffffff16815260200190815260200160002060006101000a81548160ff0219169083151502179055505050565b5080546114d290611cb7565b6000825580601f106114e45750611503565b601f0160209004906000526020600020908101906115029190611527565b5b50565b50805460008255906000526020600020908101906115249190611527565b50565b5b80821115611540576000816000905550600101611528565b5090565b6000604051905090565b600080fd5b600080fd5b600080fd5b600080fd5b6000601f19601f8301169050919050565b7f4e487b7100000000000000000000000000000000000000000000000000000000600052604160045260246000fd5b6115ab82611562565b810181811067ffffffffffffffff821117156115ca576115c9611573565b5b80604052505050565b60006115dd611544565b90506115e982826115a2565b919050565b600067ffffffffffffffff82111561160957611608611573565b5b61161282611562565b9050602081019050919050565b82818337600083830152505050565b600061164161163c846115ee565b6115d3565b90508281526020810184848401111561165d5761165c61155d565b5b61166884828561161f565b509392505050565b600082601f83011261168557611684611558565b5b813561169584826020860161162e565b91505092915050565b600073ffffffffffffffffffffffffffffffffffffffff82169050919050565b60006116c98261169e565b9050919050565b6116d9816116be565b81146116e457600080fd5b50565b6000813590506116f6816116d0565b92915050565b600080600080600060a086880312156117185761171761154e565b5b600086013567ffffffffffffffff81111561173657611735611553565b5b61174288828901611670565b955050602086013567ffffffffffffffff81111561176357611762611553565b5b61176f88828901611670565b945050604086013567ffffffffffffffff8111156117905761178f611553565b5b61179c88828901611670565b93505060606117ad888289016116e7565b92505060806117be888289016116e7565b9150509295509295909350565b6000602082840312156117e1576117e061154e565b5b600082013567ffffffffffffffff8111156117ff576117fe611553565b5b61180b84828501611670565b91505092915050565b60006020828403121561182a5761182961154e565b5b6000611838848285016116e7565b91505092915050565b600081519050919050565b600082825260208201905092915050565b6000819050602082019050919050565b600081519050919050565b600082825260208201905092915050565b60005b838110156118a757808201518184015260208101905061188c565b60008484015250505050565b60006118be8261186d565b6118c88185611878565b93506118d8818560208601611889565b6118e181611562565b840191505092915050565b60006118f883836118b3565b905092915050565b6000602082019050919050565b600061191882611841565b611922818561184c565b9350836020820285016119348561185d565b8060005b85811015611970578484038952815161195185826118ec565b945061195c83611900565b925060208a01995050600181019050611938565b50829750879550505050505092915050565b6000602082019050818103600083015261199c818461190d565b905092915050565b600082825260208201905092915050565b60006119c08261186d565b6119ca81856119a4565b93506119da818560208601611889565b6119e381611562565b840191505092915050565b6119f7816116be565b82525050565b600081519050919050565b600082825260208201905092915050565b6000819050602082019050919050565b611a32816116be565b82525050565b6000611a448383611a29565b60208301905092915050565b6000602082019050919050565b6000611a68826119fd565b611a728185611a08565b9350611a7d83611a19565b8060005b83811015611aae578151611a958882611a38565b9750611aa083611a50565b925050600181019050611a81565b5085935050505092915050565b60006080820190508181036000830152611ad581876119b5565b90508181036020830152611ae981866119b5565b9050611af860408301856119ee565b8181036060830152611b0a8184611a5d565b905095945050505050565b60008115159050919050565b611b2a81611b15565b82525050565b6000602082019050611b456000830184611b21565b92915050565b60008060408385031215611b6257611b6161154e565b5b600083013567ffffffffffffffff811115611b8057611b7f611553565b5b611b8c85828601611670565b9250506020611b9d858286016116e7565b9150509250929050565b60006020820190508181036000830152611bc181846119b5565b905092915050565b600081905092915050565b6000611bdf8261186d565b611be98185611bc9565b9350611bf9818560208601611889565b80840191505092915050565b6000611c118284611bd4565b915081905092915050565b7f46696c652043494420616c72656164792075706c6f6164656400000000000000600082015250565b6000611c526019836119a4565b9150611c5d82611c1c565b602082019050919050565b60006020820190508181036000830152611c8181611c45565b9050919050565b7f4e487b7100000000000000000000000000000000000000000000000000000000600052602260045260246000fd5b60006002820490506001821680611ccf57607f821691505b602082108103611ce257611ce1611c88565b5b50919050565b60008190508160005260206000209050919050565b60006020601f8301049050919050565b600082821b905092915050565b600060088302611d4a7fffffffffffffffffffffffffffffffffffffffffffffffffffffffffffffffff82611d0d565b611d548683611d0d565b95508019841693508086168417925050509392505050565b6000819050919050565b6000819050919050565b6000611d9b611d96611d9184611d6c565b611d76565b611d6c565b9050919050565b6000819050919050565b611db583611d80565b611dc9611dc182611da2565b848454611d1a565b825550505050565b600090565b611dde611dd1565b611de9818484611dac565b505050565b5b81811015611e0d57611e02600082611dd6565b600181019050611def565b5050565b601f821115611e5257611e2381611ce8565b611e2c84611cfd565b81016020851015611e3b578190505b611e4f611e4785611cfd565b830182611dee565b50505b505050565b600082821c905092915050565b6000611e7560001984600802611e57565b1980831691505092915050565b6000611e8e8383611e64565b9150826002028217905092915050565b611ea78261186d565b67ffffffffffffffff811115611ec057611ebf611573565b5b611eca8254611cb7565b611ed5828285611e11565b600060209050601f831160018114611f085760008415611ef6578287015190505b611f008582611e82565b865550611f68565b601f198416611f1686611ce8565b60005b82811015611f3e57848901518255600182019150602085019450602081019050611f19565b86831015611f5b5784890151611f57601f891682611e64565b8355505b6001600288020188555050505b505050505050565b60006080820190508181036000830152611f8a81876119b5565b90508181036020830152611f9e81866119b5565b9050611fad60408301856119ee565b611fba60608301846119ee565b95945050505050565b7f4f6e6c792074686520636f6e7472616374206f776e65722063616e2063616c6c60008201527f20746869732066756e6374696f6e000000000000000000000000000000000000602082015250565b600061201f602e836119a4565b915061202a82611fc3565b604082019050919050565b6000602082019050818103600083015261204e81612012565b9050919050565b7f4e6f2066696c65207265636f726420666f756e6420666f72207468697320434960008201527f4400000000000000000000000000000000000000000000000000000000000000602082015250565b60006120b16021836119a4565b91506120bc82612055565b604082019050919050565b600060208201905081810360008301526120e0816120a4565b9050919050565b7f4e487b7100000000000000000000000000000000000000000000000000000000600052603260045260246000fd5b6000815461212381611cb7565b61212d8186611bc9565b94506001821660008114612148576001811461215d57612190565b60ff1983168652811515820286019350612190565b61216685611ce8565b60005b8381101561218857815481890152600182019150602081019050612169565b838801955050505b50505092915050565b60006121a58284612116565b915081905092915050565b7f4e487b7100000000000000000000000000000000000000000000000000000000600052601160045260246000fd5b60006121ea82611d6c565b91506121f583611d6c565b925082820390508181111561220d5761220c6121b0565b5b92915050565b60008154905061222281611cb7565b9050919050565b60008190508160005260206000209050919050565b81810361224c575050612324565b61225582612213565b67ffffffffffffffff81111561226e5761226d611573565b5b6122788254611cb7565b612283828285611e11565b6000601f8311600181146122b257600084156122a0578287015490505b6122aa8582611e82565b86555061231d565b601f1984166122c087612229565b96506122cb86611ce8565b60005b828110156122f3578489015482556001820191506001850194506020810190506122ce565b86831015612310578489015461230c601f891682611e64565b8355505b6001600288020188555050505b5050505050505b565b7f4e487b7100000000000000000000000000000000000000000000000000000000600052603160045260246000fd5b600061236082611d6c565b91507fffffffffffffffffffffffffffffffffffffffffffffffffffffffffffffffff8203612392576123916121b0565b5b600182019050919050565b7f46696c652043494420646f6573206e6f74206578697374000000000000000000600082015250565b60006123d36017836119a4565b91506123de8261239d565b602082019050919050565b60006020820190508181036000830152612402816123c6565b9050919050565b7f496e76616c69642075706c6f6164657220616464726573730000000000000000600082015250565b600061243f6018836119a4565b915061244a82612409565b602082019050919050565b6000602082019050818103600083015261246e81612432565b9050919050565b7f5573657220646f6573206e6f7420686176652061636365737320746f20616e7960008201527f204349442075706c6f61646564206279207468652075706c6f61646572000000602082015250565b60006124d1603d836119a4565b91506124dc82612475565b604082019050919050565b60006020820190508181036000830152612500816124c4565b905091905056fea26469706673582212201e3f8532341cd18fd00d4542a017801bbbdf0aedaed463e1ba34743c0543931564736f6c63430008130033","opcodes":"PUSH1 0x80 PUSH1 0x40 MSTORE CALLVALUE DUP1 ISZERO PUSH2 0x10 JUMPI PUSH1 0x0 DUP1 REVERT JUMPDEST POP CALLER PUSH1 0x0 DUP1 PUSH2 0x100 EXP DUP2 SLOAD DUP2 PUSH20 0xFFFFFFFFFFFFFFFFFFFFFFFFFFFFFFFFFFFFFFFF MUL NOT AND SWAP1 DUP4 PUSH20 0xFFFFFFFFFFFFFFFFFFFFFFFFFFFFFFFFFFFFFFFF AND MUL OR SWAP1 SSTORE POP PUSH2 0x253D DUP1 PUSH2 0x60 PUSH1 0x0 CODECOPY PUSH1 0x0 RETURN INVALID PUSH1 0x80 PUSH1 0x40 MSTORE CALLVALUE DUP1 ISZERO PUSH2 0x10 JUMPI PUSH1 0x0 DUP1 REVERT JUMPDEST POP PUSH1 0x4 CALLDATASIZE LT PUSH2 0x93 JUMPI PUSH1 0x0 CALLDATALOAD PUSH1 0xE0 SHR DUP1 PUSH4 0xA77015D1 GT PUSH2 0x66 JUMPI DUP1 PUSH4 0xA77015D1 EQ PUSH2 0x133 JUMPI DUP1 PUSH4 0xB7EF5BAF EQ PUSH2 0x163 JUMPI DUP1 PUSH4 0xD3419723 EQ PUSH2 0x193 JUMPI DUP1 PUSH4 0xDFE0B5FE EQ PUSH2 0x1C3 JUMPI DUP1 PUSH4 0xF37C215E EQ PUSH2 0x1DF JUMPI PUSH2 0x93 JUMP JUMPDEST DUP1 PUSH4 0x27EE6F23 EQ PUSH2 0x98 JUMPI DUP1 PUSH4 0x34B35F16 EQ PUSH2 0xB4 JUMPI DUP1 PUSH4 0x9939FBA6 EQ PUSH2 0xD0 JUMPI DUP1 PUSH4 0xA1081130 EQ PUSH2 0x100 JUMPI JUMPDEST PUSH1 0x0 DUP1 REVERT JUMPDEST PUSH2 0xB2 PUSH1 0x4 DUP1 CALLDATASIZE SUB DUP2 ADD SWAP1 PUSH2 0xAD SWAP2 SWAP1 PUSH2 0x16FC JUMP JUMPDEST PUSH2 0x1FB JUMP JUMPDEST STOP JUMPDEST PUSH2 0xCE PUSH1 0x4 DUP1 CALLDATASIZE SUB DUP2 ADD SWAP1 PUSH2 0xC9 SWAP2 SWAP1 PUSH2 0x17CB JUMP JUMPDEST PUSH2 0x578 JUMP JUMPDEST STOP JUMPDEST PUSH2 0xEA PUSH1 0x4 DUP1 CALLDATASIZE SUB DUP2 ADD SWAP1 PUSH2 0xE5 SWAP2 SWAP1 PUSH2 0x1814 JUMP JUMPDEST PUSH2 0xB3C JUMP JUMPDEST PUSH1 0x40 MLOAD PUSH2 0xF7 SWAP2 SWAP1 PUSH2 0x1982 JUMP JUMPDEST PUSH1 0x40 MLOAD DUP1 SWAP2 SUB SWAP1 RETURN JUMPDEST PUSH2 0x11A PUSH1 0x4 DUP1 CALLDATASIZE SUB DUP2 ADD SWAP1 PUSH2 0x115 SWAP2 SWAP1 PUSH2 0x17CB JUMP JUMPDEST PUSH2 0xC54 JUMP JUMPDEST PUSH1 0x40 MLOAD PUSH2 0x12A SWAP5 SWAP4 SWAP3 SWAP2 SWAP1 PUSH2 0x1ABB JUMP JUMPDEST PUSH1 0x40 MLOAD DUP1 SWAP2 SUB SWAP1 RETURN JUMPDEST PUSH2 0x14D PUSH1 0x4 DUP1 CALLDATASIZE SUB DUP2 ADD SWAP1 PUSH2 0x148 SWAP2 SWAP1 PUSH2 0x17CB JUMP JUMPDEST PUSH2 0xF0E JUMP JUMPDEST PUSH1 0x40 MLOAD PUSH2 0x15A SWAP2 SWAP1 PUSH2 0x1B30 JUMP JUMPDEST PUSH1 0x40 MLOAD DUP1 SWAP2 SUB SWAP1 RETURN JUMPDEST PUSH2 0x17D PUSH1 0x4 DUP1 CALLDATASIZE SUB DUP2 ADD SWAP1 PUSH2 0x178 SWAP2 SWAP1 PUSH2 0x1B4B JUMP JUMPDEST PUSH2 0xF88 JUMP JUMPDEST PUSH1 0x40 MLOAD PUSH2 0x18A SWAP2 SWAP1 PUSH2 0x1B30 JUMP JUMPDEST PUSH1 0x40 MLOAD DUP1 SWAP2 SUB SWAP1 RETURN JUMPDEST PUSH2 0x1AD PUSH1 0x4 DUP1 CALLDATASIZE SUB DUP2 ADD SWAP1 PUSH2 0x1A8 SWAP2 SWAP1 PUSH2 0x1814 JUMP JUMPDEST PUSH2 0xFFB JUMP JUMPDEST PUSH1 0x40 MLOAD PUSH2 0x1BA SWAP2 SWAP1 PUSH2 0x1BA7 JUMP JUMPDEST PUSH1 0x40 MLOAD DUP1 SWAP2 SUB SWAP1 RETURN JUMPDEST PUSH2 0x1DD PUSH1 0x4 DUP1 CALLDATASIZE SUB DUP2 ADD SWAP1 PUSH2 0x1D8 SWAP2 SWAP1 PUSH2 0x1B4B JUMP JUMPDEST PUSH2 0x12BB JUMP JUMPDEST STOP JUMPDEST PUSH2 0x1F9 PUSH1 0x4 DUP1 CALLDATASIZE SUB DUP2 ADD SWAP1 PUSH2 0x1F4 SWAP2 SWAP1 PUSH2 0x1B4B JUMP JUMPDEST PUSH2 0x13C1 JUMP JUMPDEST STOP JUMPDEST PUSH1 0x0 PUSH20 0xFFFFFFFFFFFFFFFFFFFFFFFFFFFFFFFFFFFFFFFF AND PUSH1 0x4 DUP5 PUSH1 0x40 MLOAD PUSH2 0x223 SWAP2 SWAP1 PUSH2 0x1C05 JUMP JUMPDEST SWAP1 DUP2 MSTORE PUSH1 0x20 ADD PUSH1 0x40 MLOAD DUP1 SWAP2 SUB SWAP1 KECCAK256 PUSH1 0x3 ADD PUSH1 0x0 SWAP1 SLOAD SWAP1 PUSH2 0x100 EXP SWAP1 DIV PUSH20 0xFFFFFFFFFFFFFFFFFFFFFFFFFFFFFFFFFFFFFFFF AND PUSH20 0xFFFFFFFFFFFFFFFFFFFFFFFFFFFFFFFFFFFFFFFF AND EQ PUSH2 0x2AB JUMPI PUSH1 0x40 MLOAD PUSH32 0x8C379A000000000000000000000000000000000000000000000000000000000 DUP2 MSTORE PUSH1 0x4 ADD PUSH2 0x2A2 SWAP1 PUSH2 0x1C68 JUMP JUMPDEST PUSH1 0x40 MLOAD DUP1 SWAP2 SUB SWAP1 REVERT JUMPDEST DUP5 PUSH1 0x4 DUP5 PUSH1 0x40 MLOAD PUSH2 0x2BC SWAP2 SWAP1 PUSH2 0x1C05 JUMP JUMPDEST SWAP1 DUP2 MSTORE PUSH1 0x20 ADD PUSH1 0x40 MLOAD DUP1 SWAP2 SUB SWAP1 KECCAK256 PUSH1 0x0 ADD SWAP1 DUP2 PUSH2 0x2D9 SWAP2 SWAP1 PUSH2 0x1E9E JUMP JUMPDEST POP DUP4 PUSH1 0x4 DUP5 PUSH1 0x40 MLOAD PUSH2 0x2EB SWAP2 SWAP1 PUSH2 0x1C05 JUMP JUMPDEST SWAP1 DUP2 MSTORE PUSH1 0x20 ADD PUSH1 0x40 MLOAD DUP1 SWAP2 SUB SWAP1 KECCAK256 PUSH1 0x1 ADD SWAP1 DUP2 PUSH2 0x308 SWAP2 SWAP1 PUSH2 0x1E9E JUMP JUMPDEST POP DUP3 PUSH1 0x4 DUP5 PUSH1 0x40 MLOAD PUSH2 0x31A SWAP2 SWAP1 PUSH2 0x1C05 JUMP JUMPDEST SWAP1 DUP2 MSTORE PUSH1 0x20 ADD PUSH1 0x40 MLOAD DUP1 SWAP2 SUB SWAP1 KECCAK256 PUSH1 0x2 ADD SWAP1 DUP2 PUSH2 0x337 SWAP2 SWAP1 PUSH2 0x1E9E JUMP JUMPDEST POP CALLER PUSH1 0x4 DUP5 PUSH1 0x40 MLOAD PUSH2 0x349 SWAP2 SWAP1 PUSH2 0x1C05 JUMP JUMPDEST SWAP1 DUP2 MSTORE PUSH1 0x20 ADD PUSH1 0x40 MLOAD DUP1 SWAP2 SUB SWAP1 KECCAK256 PUSH1 0x3 ADD PUSH1 0x0 PUSH2 0x100 EXP DUP2 SLOAD DUP2 PUSH20 0xFFFFFFFFFFFFFFFFFFFFFFFFFFFFFFFFFFFFFFFF MUL NOT AND SWAP1 DUP4 PUSH20 0xFFFFFFFFFFFFFFFFFFFFFFFFFFFFFFFFFFFFFFFF AND MUL OR SWAP1 SSTORE POP PUSH1 0x4 DUP4 PUSH1 0x40 MLOAD PUSH2 0x3A8 SWAP2 SWAP1 PUSH2 0x1C05 JUMP JUMPDEST SWAP1 DUP2 MSTORE PUSH1 0x20 ADD PUSH1 0x40 MLOAD DUP1 SWAP2 SUB SWAP1 KECCAK256 PUSH1 0x4 ADD DUP2 SWAP1 DUP1 PUSH1 0x1 DUP2 SLOAD ADD DUP1 DUP3 SSTORE DUP1 SWAP2 POP POP PUSH1 0x1 SWAP1 SUB SWAP1 PUSH1 0x0 MSTORE PUSH1 0x20 PUSH1 0x0 KECCAK256 ADD PUSH1 0x0 SWAP1 SWAP2 SWAP1 SWAP2 SWAP1 SWAP2 PUSH2 0x100 EXP DUP2 SLOAD DUP2 PUSH20 0xFFFFFFFFFFFFFFFFFFFFFFFFFFFFFFFFFFFFFFFF MUL NOT AND SWAP1 DUP4 PUSH20 0xFFFFFFFFFFFFFFFFFFFFFFFFFFFFFFFFFFFFFFFF AND MUL OR SWAP1 SSTORE POP PUSH1 0x1 DUP1 DUP5 PUSH1 0x40 MLOAD PUSH2 0x42B SWAP2 SWAP1 PUSH2 0x1C05 JUMP JUMPDEST SWAP1 DUP2 MSTORE PUSH1 0x20 ADD PUSH1 0x40 MLOAD DUP1 SWAP2 SUB SWAP1 KECCAK256 PUSH1 0x0 DUP5 PUSH20 0xFFFFFFFFFFFFFFFFFFFFFFFFFFFFFFFFFFFFFFFF AND PUSH20 0xFFFFFFFFFFFFFFFFFFFFFFFFFFFFFFFFFFFFFFFF AND DUP2 MSTORE PUSH1 0x20 ADD SWAP1 DUP2 MSTORE PUSH1 0x20 ADD PUSH1 0x0 KECCAK256 PUSH1 0x0 PUSH2 0x100 EXP DUP2 SLOAD DUP2 PUSH1 0xFF MUL NOT AND SWAP1 DUP4 ISZERO ISZERO MUL OR SWAP1 SSTORE POP PUSH1 0x5 DUP4 SWAP1 DUP1 PUSH1 0x1 DUP2 SLOAD ADD DUP1 DUP3 SSTORE DUP1 SWAP2 POP POP PUSH1 0x1 SWAP1 SUB SWAP1 PUSH1 0x0 MSTORE PUSH1 0x20 PUSH1 0x0 KECCAK256 ADD PUSH1 0x0 SWAP1 SWAP2 SWAP1 SWAP2 SWAP1 SWAP2 POP SWAP1 DUP2 PUSH2 0x4C1 SWAP2 SWAP1 PUSH2 0x1E9E JUMP JUMPDEST POP PUSH1 0x2 PUSH1 0x0 CALLER PUSH20 0xFFFFFFFFFFFFFFFFFFFFFFFFFFFFFFFFFFFFFFFF AND PUSH20 0xFFFFFFFFFFFFFFFFFFFFFFFFFFFFFFFFFFFFFFFF AND DUP2 MSTORE PUSH1 0x20 ADD SWAP1 DUP2 MSTORE PUSH1 0x20 ADD PUSH1 0x0 KECCAK256 DUP4 SWAP1 DUP1 PUSH1 0x1 DUP2 SLOAD ADD DUP1 DUP3 SSTORE DUP1 SWAP2 POP POP PUSH1 0x1 SWAP1 SUB SWAP1 PUSH1 0x0 MSTORE PUSH1 0x20 PUSH1 0x0 KECCAK256 ADD PUSH1 0x0 SWAP1 SWAP2 SWAP1 SWAP2 SWAP1 SWAP2 POP SWAP1 DUP2 PUSH2 0x533 SWAP2 SWAP1 PUSH2 0x1E9E JUMP JUMPDEST POP PUSH32 0x32BB5A8ABA375CB6F693E852FF2876EC292FA25FCF83F2F87DBE417EDF2C5310 DUP5 DUP5 DUP5 DUP5 PUSH1 0x40 MLOAD PUSH2 0x569 SWAP5 SWAP4 SWAP3 SWAP2 SWAP1 PUSH2 0x1F70 JUMP JUMPDEST PUSH1 0x40 MLOAD DUP1 SWAP2 SUB SWAP1 LOG1 POP POP POP POP POP JUMP JUMPDEST PUSH1 0x0 DUP1 SLOAD SWAP1 PUSH2 0x100 EXP SWAP1 DIV PUSH20 0xFFFFFFFFFFFFFFFFFFFFFFFFFFFFFFFFFFFFFFFF AND PUSH20 0xFFFFFFFFFFFFFFFFFFFFFFFFFFFFFFFFFFFFFFFF AND CALLER PUSH20 0xFFFFFFFFFFFFFFFFFFFFFFFFFFFFFFFFFFFFFFFF AND EQ PUSH2 0x606 JUMPI PUSH1 0x40 MLOAD PUSH32 0x8C379A000000000000000000000000000000000000000000000000000000000 DUP2 MSTORE PUSH1 0x4 ADD PUSH2 0x5FD SWAP1 PUSH2 0x2035 JUMP JUMPDEST PUSH1 0x40 MLOAD DUP1 SWAP2 SUB SWAP1 REVERT JUMPDEST PUSH1 0x0 PUSH20 0xFFFFFFFFFFFFFFFFFFFFFFFFFFFFFFFFFFFFFFFF AND PUSH1 0x4 DUP3 PUSH1 0x40 MLOAD PUSH2 0x62E SWAP2 SWAP1 PUSH2 0x1C05 JUMP JUMPDEST SWAP1 DUP2 MSTORE PUSH1 0x20 ADD PUSH1 0x40 MLOAD DUP1 SWAP2 SUB SWAP1 KECCAK256 PUSH1 0x3 ADD PUSH1 0x0 SWAP1 SLOAD SWAP1 PUSH2 0x100 EXP SWAP1 DIV PUSH20 0xFFFFFFFFFFFFFFFFFFFFFFFFFFFFFFFFFFFFFFFF AND PUSH20 0xFFFFFFFFFFFFFFFFFFFFFFFFFFFFFFFFFFFFFFFF AND SUB PUSH2 0x6B6 JUMPI PUSH1 0x40 MLOAD PUSH32 0x8C379A000000000000000000000000000000000000000000000000000000000 DUP2 MSTORE PUSH1 0x4 ADD PUSH2 0x6AD SWAP1 PUSH2 0x20C7 JUMP JUMPDEST PUSH1 0x40 MLOAD DUP1 SWAP2 SUB SWAP1 REVERT JUMPDEST PUSH1 0x0 PUSH1 0x4 DUP3 PUSH1 0x40 MLOAD PUSH2 0x6C8 SWAP2 SWAP1 PUSH2 0x1C05 JUMP JUMPDEST SWAP1 DUP2 MSTORE PUSH1 0x20 ADD PUSH1 0x40 MLOAD DUP1 SWAP2 SUB SWAP1 KECCAK256 PUSH1 0x3 ADD PUSH1 0x0 SWAP1 SLOAD SWAP1 PUSH2 0x100 EXP SWAP1 DIV PUSH20 0xFFFFFFFFFFFFFFFFFFFFFFFFFFFFFFFFFFFFFFFF AND SWAP1 POP PUSH1 0x4 DUP3 PUSH1 0x40 MLOAD PUSH2 0x70C SWAP2 SWAP1 PUSH2 0x1C05 JUMP JUMPDEST SWAP1 DUP2 MSTORE PUSH1 0x20 ADD PUSH1 0x40 MLOAD DUP1 SWAP2 SUB SWAP1 KECCAK256 PUSH1 0x0 DUP1 DUP3 ADD PUSH1 0x0 PUSH2 0x72B SWAP2 SWAP1 PUSH2 0x14C6 JUMP JUMPDEST PUSH1 0x1 DUP3 ADD PUSH1 0x0 PUSH2 0x73B SWAP2 SWAP1 PUSH2 0x14C6 JUMP JUMPDEST PUSH1 0x2 DUP3 ADD PUSH1 0x0 PUSH2 0x74B SWAP2 SWAP1 PUSH2 0x14C6 JUMP JUMPDEST PUSH1 0x3 DUP3 ADD PUSH1 0x0 PUSH2 0x100 EXP DUP2 SLOAD SWAP1 PUSH20 0xFFFFFFFFFFFFFFFFFFFFFFFFFFFFFFFFFFFFFFFF MUL NOT AND SWAP1 SSTORE PUSH1 0x4 DUP3 ADD PUSH1 0x0 PUSH2 0x782 SWAP2 SWAP1 PUSH2 0x1506 JUMP JUMPDEST POP POP PUSH1 0x0 JUMPDEST PUSH1 0x5 DUP1 SLOAD SWAP1 POP DUP2 LT ISZERO PUSH2 0x8A6 JUMPI DUP3 PUSH1 0x40 MLOAD PUSH1 0x20 ADD PUSH2 0x7A5 SWAP2 SWAP1 PUSH2 0x1C05 JUMP JUMPDEST PUSH1 0x40 MLOAD PUSH1 0x20 DUP2 DUP4 SUB SUB DUP2 MSTORE SWAP1 PUSH1 0x40 MSTORE DUP1 MLOAD SWAP1 PUSH1 0x20 ADD KECCAK256 PUSH1 0x5 DUP3 DUP2 SLOAD DUP2 LT PUSH2 0x7CF JUMPI PUSH2 0x7CE PUSH2 0x20E7 JUMP JUMPDEST JUMPDEST SWAP1 PUSH1 0x0 MSTORE PUSH1 0x20 PUSH1 0x0 KECCAK256 ADD PUSH1 0x40 MLOAD PUSH1 0x20 ADD PUSH2 0x7E9 SWAP2 SWAP1 PUSH2 0x2199 JUMP JUMPDEST PUSH1 0x40 MLOAD PUSH1 0x20 DUP2 DUP4 SUB SUB DUP2 MSTORE SWAP1 PUSH1 0x40 MSTORE DUP1 MLOAD SWAP1 PUSH1 0x20 ADD KECCAK256 SUB PUSH2 0x893 JUMPI PUSH1 0x5 PUSH1 0x1 PUSH1 0x5 DUP1 SLOAD SWAP1 POP PUSH2 0x818 SWAP2 SWAP1 PUSH2 0x21DF JUMP JUMPDEST DUP2 SLOAD DUP2 LT PUSH2 0x829 JUMPI PUSH2 0x828 PUSH2 0x20E7 JUMP JUMPDEST JUMPDEST SWAP1 PUSH1 0x0 MSTORE PUSH1 0x20 PUSH1 0x0 KECCAK256 ADD PUSH1 0x5 DUP3 DUP2 SLOAD DUP2 LT PUSH2 0x847 JUMPI PUSH2 0x846 PUSH2 0x20E7 JUMP JUMPDEST JUMPDEST SWAP1 PUSH1 0x0 MSTORE PUSH1 0x20 PUSH1 0x0 KECCAK256 ADD SWAP1 DUP2 PUSH2 0x85D SWAP2 SWAP1 PUSH2 0x223E JUMP JUMPDEST POP PUSH1 0x5 DUP1 SLOAD DUP1 PUSH2 0x870 JUMPI PUSH2 0x86F PUSH2 0x2326 JUMP JUMPDEST JUMPDEST PUSH1 0x1 SWAP1 SUB DUP2 DUP2 SWAP1 PUSH1 0x0 MSTORE PUSH1 0x20 PUSH1 0x0 KECCAK256 ADD PUSH1 0x0 PUSH2 0x88C SWAP2 SWAP1 PUSH2 0x14C6 JUMP JUMPDEST SWAP1 SSTORE PUSH2 0x8A6 JUMP JUMPDEST DUP1 DUP1 PUSH2 0x89E SWAP1 PUSH2 0x2355 JUMP JUMPDEST SWAP2 POP POP PUSH2 0x787 JUMP JUMPDEST POP PUSH1 0x0 JUMPDEST PUSH1 0x2 PUSH1 0x0 DUP4 PUSH20 0xFFFFFFFFFFFFFFFFFFFFFFFFFFFFFFFFFFFFFFFF AND PUSH20 0xFFFFFFFFFFFFFFFFFFFFFFFFFFFFFFFFFFFFFFFF AND DUP2 MSTORE PUSH1 0x20 ADD SWAP1 DUP2 MSTORE PUSH1 0x20 ADD PUSH1 0x0 KECCAK256 DUP1 SLOAD SWAP1 POP DUP2 LT ISZERO PUSH2 0xB37 JUMPI DUP3 PUSH1 0x40 MLOAD PUSH1 0x20 ADD PUSH2 0x905 SWAP2 SWAP1 PUSH2 0x1C05 JUMP JUMPDEST PUSH1 0x40 MLOAD PUSH1 0x20 DUP2 DUP4 SUB SUB DUP2 MSTORE SWAP1 PUSH1 0x40 MSTORE DUP1 MLOAD SWAP1 PUSH1 0x20 ADD KECCAK256 PUSH1 0x2 PUSH1 0x0 DUP5 PUSH20 0xFFFFFFFFFFFFFFFFFFFFFFFFFFFFFFFFFFFFFFFF AND PUSH20 0xFFFFFFFFFFFFFFFFFFFFFFFFFFFFFFFFFFFFFFFF AND DUP2 MSTORE PUSH1 0x20 ADD SWAP1 DUP2 MSTORE PUSH1 0x20 ADD PUSH1 0x0 KECCAK256 DUP3 DUP2 SLOAD DUP2 LT PUSH2 0x96C JUMPI PUSH2 0x96B PUSH2 0x20E7 JUMP JUMPDEST JUMPDEST SWAP1 PUSH1 0x0 MSTORE PUSH1 0x20 PUSH1 0x0 KECCAK256 ADD PUSH1 0x40 MLOAD PUSH1 0x20 ADD PUSH2 0x986 SWAP2 SWAP1 PUSH2 0x2199 JUMP JUMPDEST PUSH1 0x40 MLOAD PUSH1 0x20 DUP2 DUP4 SUB SUB DUP2 MSTORE SWAP1 PUSH1 0x40 MSTORE DUP1 MLOAD SWAP1 PUSH1 0x20 ADD KECCAK256 SUB PUSH2 0xB24 JUMPI PUSH1 0x2 PUSH1 0x0 DUP4 PUSH20 0xFFFFFFFFFFFFFFFFFFFFFFFFFFFFFFFFFFFFFFFF AND PUSH20 0xFFFFFFFFFFFFFFFFFFFFFFFFFFFFFFFFFFFFFFFF AND DUP2 MSTORE PUSH1 0x20 ADD SWAP1 DUP2 MSTORE PUSH1 0x20 ADD PUSH1 0x0 KECCAK256 PUSH1 0x1 PUSH1 0x2 PUSH1 0x0 DUP6 PUSH20 0xFFFFFFFFFFFFFFFFFFFFFFFFFFFFFFFFFFFFFFFF AND PUSH20 0xFFFFFFFFFFFFFFFFFFFFFFFFFFFFFFFFFFFFFFFF AND DUP2 MSTORE PUSH1 0x20 ADD SWAP1 DUP2 MSTORE PUSH1 0x20 ADD PUSH1 0x0 KECCAK256 DUP1 SLOAD SWAP1 POP PUSH2 0xA2F SWAP2 SWAP1 PUSH2 0x21DF JUMP JUMPDEST DUP2 SLOAD DUP2 LT PUSH2 0xA40 JUMPI PUSH2 0xA3F PUSH2 0x20E7 JUMP JUMPDEST JUMPDEST SWAP1 PUSH1 0x0 MSTORE PUSH1 0x20 PUSH1 0x0 KECCAK256 ADD PUSH1 0x2 PUSH1 0x0 DUP5 PUSH20 0xFFFFFFFFFFFFFFFFFFFFFFFFFFFFFFFFFFFFFFFF AND PUSH20 0xFFFFFFFFFFFFFFFFFFFFFFFFFFFFFFFFFFFFFFFF AND DUP2 MSTORE PUSH1 0x20 ADD SWAP1 DUP2 MSTORE PUSH1 0x20 ADD PUSH1 0x0 KECCAK256 DUP3 DUP2 SLOAD DUP2 LT PUSH2 0xA9B JUMPI PUSH2 0xA9A PUSH2 0x20E7 JUMP JUMPDEST JUMPDEST SWAP1 PUSH1 0x0 MSTORE PUSH1 0x20 PUSH1 0x0 KECCAK256 ADD SWAP1 DUP2 PUSH2 0xAB1 SWAP2 SWAP1 PUSH2 0x223E JUMP JUMPDEST POP PUSH1 0x2 PUSH1 0x0 DUP4 PUSH20 0xFFFFFFFFFFFFFFFFFFFFFFFFFFFFFFFFFFFFFFFF AND PUSH20 0xFFFFFFFFFFFFFFFFFFFFFFFFFFFFFFFFFFFFFFFF AND DUP2 MSTORE PUSH1 0x20 ADD SWAP1 DUP2 MSTORE PUSH1 0x20 ADD PUSH1 0x0 KECCAK256 DUP1 SLOAD DUP1 PUSH2 0xB01 JUMPI PUSH2 0xB00 PUSH2 0x2326 JUMP JUMPDEST JUMPDEST PUSH1 0x1 SWAP1 SUB DUP2 DUP2 SWAP1 PUSH1 0x0 MSTORE PUSH1 0x20 PUSH1 0x0 KECCAK256 ADD PUSH1 0x0 PUSH2 0xB1D SWAP2 SWAP1 PUSH2 0x14C6 JUMP JUMPDEST SWAP1 SSTORE PUSH2 0xB37 JUMP JUMPDEST DUP1 DUP1 PUSH2 0xB2F SWAP1 PUSH2 0x2355 JUMP JUMPDEST SWAP2 POP POP PUSH2 0x8AA JUMP JUMPDEST POP POP POP JUMP JUMPDEST PUSH1 0x60 PUSH1 0x2 PUSH1 0x0 DUP4 PUSH20 0xFFFFFFFFFFFFFFFFFFFFFFFFFFFFFFFFFFFFFFFF AND PUSH20 0xFFFFFFFFFFFFFFFFFFFFFFFFFFFFFFFFFFFFFFFF AND DUP2 MSTORE PUSH1 0x20 ADD SWAP1 DUP2 MSTORE PUSH1 0x20 ADD PUSH1 0x0 KECCAK256 DUP1 SLOAD DUP1 PUSH1 0x20 MUL PUSH1 0x20 ADD PUSH1 0x40 MLOAD SWAP1 DUP2 ADD PUSH1 0x40 MSTORE DUP1 SWAP3 SWAP2 SWAP1 DUP2 DUP2 MSTORE PUSH1 0x20 ADD PUSH1 0x0 SWAP1 JUMPDEST DUP3 DUP3 LT ISZERO PUSH2 0xC49 JUMPI DUP4 DUP3 SWAP1 PUSH1 0x0 MSTORE PUSH1 0x20 PUSH1 0x0 KECCAK256 ADD DUP1 SLOAD PUSH2 0xBBC SWAP1 PUSH2 0x1CB7 JUMP JUMPDEST DUP1 PUSH1 0x1F ADD PUSH1 0x20 DUP1 SWAP2 DIV MUL PUSH1 0x20 ADD PUSH1 0x40 MLOAD SWAP1 DUP2 ADD PUSH1 0x40 MSTORE DUP1 SWAP3 SWAP2 SWAP1 DUP2 DUP2 MSTORE PUSH1 0x20 ADD DUP3 DUP1 SLOAD PUSH2 0xBE8 SWAP1 PUSH2 0x1CB7 JUMP JUMPDEST DUP1 ISZERO PUSH2 0xC35 JUMPI DUP1 PUSH1 0x1F LT PUSH2 0xC0A JUMPI PUSH2 0x100 DUP1 DUP4 SLOAD DIV MUL DUP4 MSTORE SWAP2 PUSH1 0x20 ADD SWAP2 PUSH2 0xC35 JUMP JUMPDEST DUP3 ADD SWAP2 SWAP1 PUSH1 0x0 MSTORE PUSH1 0x20 PUSH1 0x0 KECCAK256 SWAP1 JUMPDEST DUP2 SLOAD DUP2 MSTORE SWAP1 PUSH1 0x1 ADD SWAP1 PUSH1 0x20 ADD DUP1 DUP4 GT PUSH2 0xC18 JUMPI DUP3 SWAP1 SUB PUSH1 0x1F AND DUP3 ADD SWAP2 JUMPDEST POP POP POP POP POP DUP2 MSTORE PUSH1 0x20 ADD SWAP1 PUSH1 0x1 ADD SWAP1 PUSH2 0xB9D JUMP JUMPDEST POP POP POP POP SWAP1 POP SWAP2 SWAP1 POP JUMP JUMPDEST PUSH1 0x60 DUP1 PUSH1 0x0 PUSH1 0x60 PUSH1 0x0 PUSH20 0xFFFFFFFFFFFFFFFFFFFFFFFFFFFFFFFFFFFFFFFF AND PUSH1 0x4 DUP7 PUSH1 0x40 MLOAD PUSH2 0xC83 SWAP2 SWAP1 PUSH2 0x1C05 JUMP JUMPDEST SWAP1 DUP2 MSTORE PUSH1 0x20 ADD PUSH1 0x40 MLOAD DUP1 SWAP2 SUB SWAP1 KECCAK256 PUSH1 0x3 ADD PUSH1 0x0 SWAP1 SLOAD SWAP1 PUSH2 0x100 EXP SWAP1 DIV PUSH20 0xFFFFFFFFFFFFFFFFFFFFFFFFFFFFFFFFFFFFFFFF AND PUSH20 0xFFFFFFFFFFFFFFFFFFFFFFFFFFFFFFFFFFFFFFFF AND SUB PUSH2 0xD0B JUMPI PUSH1 0x40 MLOAD PUSH32 0x8C379A000000000000000000000000000000000000000000000000000000000 DUP2 MSTORE PUSH1 0x4 ADD PUSH2 0xD02 SWAP1 PUSH2 0x23E9 JUMP JUMPDEST PUSH1 0x40 MLOAD DUP1 SWAP2 SUB SWAP1 REVERT JUMPDEST PUSH1 0x0 PUSH1 0x4 DUP7 PUSH1 0x40 MLOAD PUSH2 0xD1D SWAP2 SWAP1 PUSH2 0x1C05 JUMP JUMPDEST SWAP1 DUP2 MSTORE PUSH1 0x20 ADD PUSH1 0x40 MLOAD DUP1 SWAP2 SUB SWAP1 KECCAK256 SWAP1 POP DUP1 PUSH1 0x0 ADD DUP2 PUSH1 0x1 ADD DUP3 PUSH1 0x3 ADD PUSH1 0x0 SWAP1 SLOAD SWAP1 PUSH2 0x100 EXP SWAP1 DIV PUSH20 0xFFFFFFFFFFFFFFFFFFFFFFFFFFFFFFFFFFFFFFFF AND DUP4 PUSH1 0x4 ADD DUP4 DUP1 SLOAD PUSH2 0xD6A SWAP1 PUSH2 0x1CB7 JUMP JUMPDEST DUP1 PUSH1 0x1F ADD PUSH1 0x20 DUP1 SWAP2 DIV MUL PUSH1 0x20 ADD PUSH1 0x40 MLOAD SWAP1 DUP2 ADD PUSH1 0x40 MSTORE DUP1 SWAP3 SWAP2 SWAP1 DUP2 DUP2 MSTORE PUSH1 0x20 ADD DUP3 DUP1 SLOAD PUSH2 0xD96 SWAP1 PUSH2 0x1CB7 JUMP JUMPDEST DUP1 ISZERO PUSH2 0xDE3 JUMPI DUP1 PUSH1 0x1F LT PUSH2 0xDB8 JUMPI PUSH2 0x100 DUP1 DUP4 SLOAD DIV MUL DUP4 MSTORE SWAP2 PUSH1 0x20 ADD SWAP2 PUSH2 0xDE3 JUMP JUMPDEST DUP3 ADD SWAP2 SWAP1 PUSH1 0x0 MSTORE PUSH1 0x20 PUSH1 0x0 KECCAK256 SWAP1 JUMPDEST DUP2 SLOAD DUP2 MSTORE SWAP1 PUSH1 0x1 ADD SWAP1 PUSH1 0x20 ADD DUP1 DUP4 GT PUSH2 0xDC6 JUMPI DUP3 SWAP1 SUB PUSH1 0x1F AND DUP3 ADD SWAP2 JUMPDEST POP POP POP POP POP SWAP4 POP DUP3 DUP1 SLOAD PUSH2 0xDF6 SWAP1 PUSH2 0x1CB7 JUMP JUMPDEST DUP1 PUSH1 0x1F ADD PUSH1 0x20 DUP1 SWAP2 DIV MUL PUSH1 0x20 ADD PUSH1 0x40 MLOAD SWAP1 DUP2 ADD PUSH1 0x40 MSTORE DUP1 SWAP3 SWAP2 SWAP1 DUP2 DUP2 MSTORE PUSH1 0x20 ADD DUP3 DUP1 SLOAD PUSH2 0xE22 SWAP1 PUSH2 0x1CB7 JUMP JUMPDEST DUP1 ISZERO PUSH2 0xE6F JUMPI DUP1 PUSH1 0x1F LT PUSH2 0xE44 JUMPI PUSH2 0x100 DUP1 DUP4 SLOAD DIV MUL DUP4 MSTORE SWAP2 PUSH1 0x20 ADD SWAP2 PUSH2 0xE6F JUMP JUMPDEST DUP3 ADD SWAP2 SWAP1 PUSH1 0x0 MSTORE PUSH1 0x20 PUSH1 0x0 KECCAK256 SWAP1 JUMPDEST DUP2 SLOAD DUP2 MSTORE SWAP1 PUSH1 0x1 ADD SWAP1 PUSH1 0x20 ADD DUP1 DUP4 GT PUSH2 0xE52 JUMPI DUP3 SWAP1 SUB PUSH1 0x1F AND DUP3 ADD SWAP2 JUMPDEST POP POP POP POP POP SWAP3 POP DUP1 DUP1 SLOAD DUP1 PUSH1 0x20 MUL PUSH1 0x20 ADD PUSH1 0x40 MLOAD SWAP1 DUP2 ADD PUSH1 0x40 MSTORE DUP1 SWAP3 SWAP2 SWAP1 DUP2 DUP2 MSTORE PUSH1 0x20 ADD DUP3 DUP1 SLOAD DUP1 ISZERO PUSH2 0xEF7 JUMPI PUSH1 0x20 MUL DUP3 ADD SWAP2 SWAP1 PUSH1 0x0 MSTORE PUSH1 0x20 PUSH1 0x0 KECCAK256 SWAP1 JUMPDEST DUP2 PUSH1 0x0 SWAP1 SLOAD SWAP1 PUSH2 0x100 EXP SWAP1 DIV PUSH20 0xFFFFFFFFFFFFFFFFFFFFFFFFFFFFFFFFFFFFFFFF AND PUSH20 0xFFFFFFFFFFFFFFFFFFFFFFFFFFFFFFFFFFFFFFFF AND DUP2 MSTORE PUSH1 0x20 ADD SWAP1 PUSH1 0x1 ADD SWAP1 DUP1 DUP4 GT PUSH2 0xEAD JUMPI JUMPDEST POP POP POP POP POP SWAP1 POP SWAP5 POP SWAP5 POP SWAP5 POP SWAP5 POP POP SWAP2 SWAP4 POP SWAP2 SWAP4 JUMP JUMPDEST PUSH1 0x0 DUP1 PUSH20 0xFFFFFFFFFFFFFFFFFFFFFFFFFFFFFFFFFFFFFFFF AND PUSH1 0x3 DUP4 PUSH1 0x40 MLOAD PUSH2 0xF37 SWAP2 SWAP1 PUSH2 0x1C05 JUMP JUMPDEST SWAP1 DUP2 MSTORE PUSH1 0x20 ADD PUSH1 0x40 MLOAD DUP1 SWAP2 SUB SWAP1 KECCAK256 PUSH1 0x3 ADD PUSH1 0x0 SWAP1 SLOAD SWAP1 PUSH2 0x100 EXP SWAP1 DIV PUSH20 0xFFFFFFFFFFFFFFFFFFFFFFFFFFFFFFFFFFFFFFFF AND PUSH20 0xFFFFFFFFFFFFFFFFFFFFFFFFFFFFFFFFFFFFFFFF AND EQ ISZERO SWAP1 POP SWAP2 SWAP1 POP JUMP JUMPDEST PUSH1 0x0 PUSH1 0x1 DUP4 PUSH1 0x40 MLOAD PUSH2 0xF9A SWAP2 SWAP1 PUSH2 0x1C05 JUMP JUMPDEST SWAP1 DUP2 MSTORE PUSH1 0x20 ADD PUSH1 0x40 MLOAD DUP1 SWAP2 SUB SWAP1 KECCAK256 PUSH1 0x0 DUP4 PUSH20 0xFFFFFFFFFFFFFFFFFFFFFFFFFFFFFFFFFFFFFFFF AND PUSH20 0xFFFFFFFFFFFFFFFFFFFFFFFFFFFFFFFFFFFFFFFF AND DUP2 MSTORE PUSH1 0x20 ADD SWAP1 DUP2 MSTORE PUSH1 0x20 ADD PUSH1 0x0 KECCAK256 PUSH1 0x0 SWAP1 SLOAD SWAP1 PUSH2 0x100 EXP SWAP1 DIV PUSH1 0xFF AND SWAP1 POP SWAP3 SWAP2 POP POP JUMP JUMPDEST PUSH1 0x60 PUSH1 0x0 PUSH20 0xFFFFFFFFFFFFFFFFFFFFFFFFFFFFFFFFFFFFFFFF AND DUP3 PUSH20 0xFFFFFFFFFFFFFFFFFFFFFFFFFFFFFFFFFFFFFFFF AND SUB PUSH2 0x106C JUMPI PUSH1 0x40 MLOAD PUSH32 0x8C379A000000000000000000000000000000000000000000000000000000000 DUP2 MSTORE PUSH1 0x4 ADD PUSH2 0x1063 SWAP1 PUSH2 0x2455 JUMP JUMPDEST PUSH1 0x40 MLOAD DUP1 SWAP2 SUB SWAP1 REVERT JUMPDEST PUSH1 0x0 PUSH1 0x40 MLOAD DUP1 PUSH1 0x20 ADD PUSH1 0x40 MSTORE DUP1 PUSH1 0x0 DUP2 MSTORE POP SWAP1 POP PUSH1 0x0 DUP1 JUMPDEST PUSH1 0x5 DUP1 SLOAD SWAP1 POP DUP2 LT ISZERO PUSH2 0x1270 JUMPI PUSH1 0x0 PUSH1 0x4 PUSH1 0x5 DUP4 DUP2 SLOAD DUP2 LT PUSH2 0x10A9 JUMPI PUSH2 0x10A8 PUSH2 0x20E7 JUMP JUMPDEST JUMPDEST SWAP1 PUSH1 0x0 MSTORE PUSH1 0x20 PUSH1 0x0 KECCAK256 ADD PUSH1 0x40 MLOAD PUSH2 0x10C0 SWAP2 SWAP1 PUSH2 0x2199 JUMP JUMPDEST SWAP1 DUP2 MSTORE PUSH1 0x20 ADD PUSH1 0x40 MLOAD DUP1 SWAP2 SUB SWAP1 KECCAK256 SWAP1 POP DUP6 PUSH20 0xFFFFFFFFFFFFFFFFFFFFFFFFFFFFFFFFFFFFFFFF AND DUP2 PUSH1 0x3 ADD PUSH1 0x0 SWAP1 SLOAD SWAP1 PUSH2 0x100 EXP SWAP1 DIV PUSH20 0xFFFFFFFFFFFFFFFFFFFFFFFFFFFFFFFFFFFFFFFF AND PUSH20 0xFFFFFFFFFFFFFFFFFFFFFFFFFFFFFFFFFFFFFFFF AND SUB PUSH2 0x125C JUMPI PUSH2 0x11BD DUP2 PUSH1 0x2 ADD DUP1 SLOAD PUSH2 0x1139 SWAP1 PUSH2 0x1CB7 JUMP JUMPDEST DUP1 PUSH1 0x1F ADD PUSH1 0x20 DUP1 SWAP2 DIV MUL PUSH1 0x20 ADD PUSH1 0x40 MLOAD SWAP1 DUP2 ADD PUSH1 0x40 MSTORE DUP1 SWAP3 SWAP2 SWAP1 DUP2 DUP2 MSTORE PUSH1 0x20 ADD DUP3 DUP1 SLOAD PUSH2 0x1165 SWAP1 PUSH2 0x1CB7 JUMP JUMPDEST DUP1 ISZERO PUSH2 0x11B2 JUMPI DUP1 PUSH1 0x1F LT PUSH2 0x1187 JUMPI PUSH2 0x100 DUP1 DUP4 SLOAD DIV MUL DUP4 MSTORE SWAP2 PUSH1 0x20 ADD SWAP2 PUSH2 0x11B2 JUMP JUMPDEST DUP3 ADD SWAP2 SWAP1 PUSH1 0x0 MSTORE PUSH1 0x20 PUSH1 0x0 KECCAK256 SWAP1 JUMPDEST DUP2 SLOAD DUP2 MSTORE SWAP1 PUSH1 0x1 ADD SWAP1 PUSH1 0x20 ADD DUP1 DUP4 GT PUSH2 0x1195 JUMPI DUP3 SWAP1 SUB PUSH1 0x1F AND DUP3 ADD SWAP2 JUMPDEST POP POP POP POP POP CALLER PUSH2 0xF88 JUMP JUMPDEST ISZERO PUSH2 0x125B JUMPI DUP1 PUSH1 0x2 ADD DUP1 SLOAD PUSH2 0x11D1 SWAP1 PUSH2 0x1CB7 JUMP JUMPDEST DUP1 PUSH1 0x1F ADD PUSH1 0x20 DUP1 SWAP2 DIV MUL PUSH1 0x20 ADD PUSH1 0x40 MLOAD SWAP1 DUP2 ADD PUSH1 0x40 MSTORE DUP1 SWAP3 SWAP2 SWAP1 DUP2 DUP2 MSTORE PUSH1 0x20 ADD DUP3 DUP1 SLOAD PUSH2 0x11FD SWAP1 PUSH2 0x1CB7 JUMP JUMPDEST DUP1 ISZERO PUSH2 0x124A JUMPI DUP1 PUSH1 0x1F LT PUSH2 0x121F JUMPI PUSH2 0x100 DUP1 DUP4 SLOAD DIV MUL DUP4 MSTORE SWAP2 PUSH1 0x20 ADD SWAP2 PUSH2 0x124A JUMP JUMPDEST DUP3 ADD SWAP2 SWAP1 PUSH1 0x0 MSTORE PUSH1 0x20 PUSH1 0x0 KECCAK256 SWAP1 JUMPDEST DUP2 SLOAD DUP2 MSTORE SWAP1 PUSH1 0x1 ADD SWAP1 PUSH1 0x20 ADD DUP1 DUP4 GT PUSH2 0x122D JUMPI DUP3 SWAP1 SUB PUSH1 0x1F AND DUP3 ADD SWAP2 JUMPDEST POP POP POP POP POP SWAP4 POP PUSH1 0x1 SWAP3 POP POP PUSH2 0x1270 JUMP JUMPDEST JUMPDEST POP DUP1 DUP1 PUSH2 0x1268 SWAP1 PUSH2 0x2355 JUMP JUMPDEST SWAP2 POP POP PUSH2 0x1084 JUMP JUMPDEST POP DUP1 PUSH2 0x12B1 JUMPI PUSH1 0x40 MLOAD PUSH32 0x8C379A000000000000000000000000000000000000000000000000000000000 DUP2 MSTORE PUSH1 0x4 ADD PUSH2 0x12A8 SWAP1 PUSH2 0x24E7 JUMP JUMPDEST PUSH1 0x40 MLOAD DUP1 SWAP2 SUB SWAP1 REVERT JUMPDEST DUP2 SWAP3 POP POP POP SWAP2 SWAP1 POP JUMP JUMPDEST PUSH1 0x0 DUP1 SLOAD SWAP1 PUSH2 0x100 EXP SWAP1 DIV PUSH20 0xFFFFFFFFFFFFFFFFFFFFFFFFFFFFFFFFFFFFFFFF AND PUSH20 0xFFFFFFFFFFFFFFFFFFFFFFFFFFFFFFFFFFFFFFFF AND CALLER PUSH20 0xFFFFFFFFFFFFFFFFFFFFFFFFFFFFFFFFFFFFFFFF AND EQ PUSH2 0x1349 JUMPI PUSH1 0x40 MLOAD PUSH32 0x8C379A000000000000000000000000000000000000000000000000000000000 DUP2 MSTORE PUSH1 0x4 ADD PUSH2 0x1340 SWAP1 PUSH2 0x2035 JUMP JUMPDEST PUSH1 0x40 MLOAD DUP1 SWAP2 SUB SWAP1 REVERT JUMPDEST PUSH1 0x0 PUSH1 0x1 DUP4 PUSH1 0x40 MLOAD PUSH2 0x135B SWAP2 SWAP1 PUSH2 0x1C05 JUMP JUMPDEST SWAP1 DUP2 MSTORE PUSH1 0x20 ADD PUSH1 0x40 MLOAD DUP1 SWAP2 SUB SWAP1 KECCAK256 PUSH1 0x0 DUP4 PUSH20 0xFFFFFFFFFFFFFFFFFFFFFFFFFFFFFFFFFFFFFFFF AND PUSH20 0xFFFFFFFFFFFFFFFFFFFFFFFFFFFFFFFFFFFFFFFF AND DUP2 MSTORE PUSH1 0x20 ADD SWAP1 DUP2 MSTORE PUSH1 0x20 ADD PUSH1 0x0 KECCAK256 PUSH1 0x0 PUSH2 0x100 EXP DUP2 SLOAD DUP2 PUSH1 0xFF MUL NOT AND SWAP1 DUP4 ISZERO ISZERO MUL OR SWAP1 SSTORE POP POP POP JUMP JUMPDEST PUSH1 0x0 DUP1 SLOAD SWAP1 PUSH2 0x100 EXP SWAP1 DIV PUSH20 0xFFFFFFFFFFFFFFFFFFFFFFFFFFFFFFFFFFFFFFFF AND PUSH20 0xFFFFFFFFFFFFFFFFFFFFFFFFFFFFFFFFFFFFFFFF AND CALLER PUSH20 0xFFFFFFFFFFFFFFFFFFFFFFFFFFFFFFFFFFFFFFFF AND EQ PUSH2 0x144F JUMPI PUSH1 0x40 MLOAD PUSH32 0x8C379A000000000000000000000000000000000000000000000000000000000 DUP2 MSTORE PUSH1 0x4 ADD PUSH2 0x1446 SWAP1 PUSH2 0x2035 JUMP JUMPDEST PUSH1 0x40 MLOAD DUP1 SWAP2 SUB SWAP1 REVERT JUMPDEST PUSH1 0x1 DUP1 DUP4 PUSH1 0x40 MLOAD PUSH2 0x1460 SWAP2 SWAP1 PUSH2 0x1C05 JUMP JUMPDEST SWAP1 DUP2 MSTORE PUSH1 0x20 ADD PUSH1 0x40 MLOAD DUP1 SWAP2 SUB SWAP1 KECCAK256 PUSH1 0x0 DUP4 PUSH20 0xFFFFFFFFFFFFFFFFFFFFFFFFFFFFFFFFFFFFFFFF AND PUSH20 0xFFFFFFFFFFFFFFFFFFFFFFFFFFFFFFFFFFFFFFFF AND DUP2 MSTORE PUSH1 0x20 ADD SWAP1 DUP2 MSTORE PUSH1 0x20 ADD PUSH1 0x0 KECCAK256 PUSH1 0x0 PUSH2 0x100 EXP DUP2 SLOAD DUP2 PUSH1 0xFF MUL NOT AND SWAP1 DUP4 ISZERO ISZERO MUL OR SWAP1 SSTORE POP POP POP JUMP JUMPDEST POP DUP1 SLOAD PUSH2 0x14D2 SWAP1 PUSH2 0x1CB7 JUMP JUMPDEST PUSH1 0x0 DUP3 SSTORE DUP1 PUSH1 0x1F LT PUSH2 0x14E4 JUMPI POP PUSH2 0x1503 JUMP JUMPDEST PUSH1 0x1F ADD PUSH1 0x20 SWAP1 DIV SWAP1 PUSH1 0x0 MSTORE PUSH1 0x20 PUSH1 0x0 KECCAK256 SWAP1 DUP2 ADD SWAP1 PUSH2 0x1502 SWAP2 SWAP1 PUSH2 0x1527 JUMP JUMPDEST JUMPDEST POP JUMP JUMPDEST POP DUP1 SLOAD PUSH1 0x0 DUP3 SSTORE SWAP1 PUSH1 0x0 MSTORE PUSH1 0x20 PUSH1 0x0 KECCAK256 SWAP1 DUP2 ADD SWAP1 PUSH2 0x1524 SWAP2 SWAP1 PUSH2 0x1527 JUMP JUMPDEST POP JUMP JUMPDEST JUMPDEST DUP1 DUP3 GT ISZERO PUSH2 0x1540 JUMPI PUSH1 0x0 DUP2 PUSH1 0x0 SWAP1 SSTORE POP PUSH1 0x1 ADD PUSH2 0x1528 JUMP JUMPDEST POP SWAP1 JUMP JUMPDEST PUSH1 0x0 PUSH1 0x40 MLOAD SWAP1 POP SWAP1 JUMP JUMPDEST PUSH1 0x0 DUP1 REVERT JUMPDEST PUSH1 0x0 DUP1 REVERT JUMPDEST PUSH1 0x0 DUP1 REVERT JUMPDEST PUSH1 0x0 DUP1 REVERT JUMPDEST PUSH1 0x0 PUSH1 0x1F NOT PUSH1 0x1F DUP4 ADD AND SWAP1 POP SWAP2 SWAP1 POP JUMP JUMPDEST PUSH32 0x4E487B7100000000000000000000000000000000000000000000000000000000 PUSH1 0x0 MSTORE PUSH1 0x41 PUSH1 0x4 MSTORE PUSH1 0x24 PUSH1 0x0 REVERT JUMPDEST PUSH2 0x15AB DUP3 PUSH2 0x1562 JUMP JUMPDEST DUP2 ADD DUP2 DUP2 LT PUSH8 0xFFFFFFFFFFFFFFFF DUP3 GT OR ISZERO PUSH2 0x15CA JUMPI PUSH2 0x15C9 PUSH2 0x1573 JUMP JUMPDEST JUMPDEST DUP1 PUSH1 0x40 MSTORE POP POP POP JUMP JUMPDEST PUSH1 0x0 PUSH2 0x15DD PUSH2 0x1544 JUMP JUMPDEST SWAP1 POP PUSH2 0x15E9 DUP3 DUP3 PUSH2 0x15A2 JUMP JUMPDEST SWAP2 SWAP1 POP JUMP JUMPDEST PUSH1 0x0 PUSH8 0xFFFFFFFFFFFFFFFF DUP3 GT ISZERO PUSH2 0x1609 JUMPI PUSH2 0x1608 PUSH2 0x1573 JUMP JUMPDEST JUMPDEST PUSH2 0x1612 DUP3 PUSH2 0x1562 JUMP JUMPDEST SWAP1 POP PUSH1 0x20 DUP2 ADD SWAP1 POP SWAP2 SWAP1 POP JUMP JUMPDEST DUP3 DUP2 DUP4 CALLDATACOPY PUSH1 0x0 DUP4 DUP4 ADD MSTORE POP POP POP JUMP JUMPDEST PUSH1 0x0 PUSH2 0x1641 PUSH2 0x163C DUP5 PUSH2 0x15EE JUMP JUMPDEST PUSH2 0x15D3 JUMP JUMPDEST SWAP1 POP DUP3 DUP2 MSTORE PUSH1 0x20 DUP2 ADD DUP5 DUP5 DUP5 ADD GT ISZERO PUSH2 0x165D JUMPI PUSH2 0x165C PUSH2 0x155D JUMP JUMPDEST JUMPDEST PUSH2 0x1668 DUP5 DUP3 DUP6 PUSH2 0x161F JUMP JUMPDEST POP SWAP4 SWAP3 POP POP POP JUMP JUMPDEST PUSH1 0x0 DUP3 PUSH1 0x1F DUP4 ADD SLT PUSH2 0x1685 JUMPI PUSH2 0x1684 PUSH2 0x1558 JUMP JUMPDEST JUMPDEST DUP2 CALLDATALOAD PUSH2 0x1695 DUP5 DUP3 PUSH1 0x20 DUP7 ADD PUSH2 0x162E JUMP JUMPDEST SWAP2 POP POP SWAP3 SWAP2 POP POP JUMP JUMPDEST PUSH1 0x0 PUSH20 0xFFFFFFFFFFFFFFFFFFFFFFFFFFFFFFFFFFFFFFFF DUP3 AND SWAP1 POP SWAP2 SWAP1 POP JUMP JUMPDEST PUSH1 0x0 PUSH2 0x16C9 DUP3 PUSH2 0x169E JUMP JUMPDEST SWAP1 POP SWAP2 SWAP1 POP JUMP JUMPDEST PUSH2 0x16D9 DUP2 PUSH2 0x16BE JUMP JUMPDEST DUP2 EQ PUSH2 0x16E4 JUMPI PUSH1 0x0 DUP1 REVERT JUMPDEST POP JUMP JUMPDEST PUSH1 0x0 DUP2 CALLDATALOAD SWAP1 POP PUSH2 0x16F6 DUP2 PUSH2 0x16D0 JUMP JUMPDEST SWAP3 SWAP2 POP POP JUMP JUMPDEST PUSH1 0x0 DUP1 PUSH1 0x0 DUP1 PUSH1 0x0 PUSH1 0xA0 DUP7 DUP9 SUB SLT ISZERO PUSH2 0x1718 JUMPI PUSH2 0x1717 PUSH2 0x154E JUMP JUMPDEST JUMPDEST PUSH1 0x0 DUP7 ADD CALLDATALOAD PUSH8 0xFFFFFFFFFFFFFFFF DUP2 GT ISZERO PUSH2 0x1736 JUMPI PUSH2 0x1735 PUSH2 0x1553 JUMP JUMPDEST JUMPDEST PUSH2 0x1742 DUP9 DUP3 DUP10 ADD PUSH2 0x1670 JUMP JUMPDEST SWAP6 POP POP PUSH1 0x20 DUP7 ADD CALLDATALOAD PUSH8 0xFFFFFFFFFFFFFFFF DUP2 GT ISZERO PUSH2 0x1763 JUMPI PUSH2 0x1762 PUSH2 0x1553 JUMP JUMPDEST JUMPDEST PUSH2 0x176F DUP9 DUP3 DUP10 ADD PUSH2 0x1670 JUMP JUMPDEST SWAP5 POP POP PUSH1 0x40 DUP7 ADD CALLDATALOAD PUSH8 0xFFFFFFFFFFFFFFFF DUP2 GT ISZERO PUSH2 0x1790 JUMPI PUSH2 0x178F PUSH2 0x1553 JUMP JUMPDEST JUMPDEST PUSH2 0x179C DUP9 DUP3 DUP10 ADD PUSH2 0x1670 JUMP JUMPDEST SWAP4 POP POP PUSH1 0x60 PUSH2 0x17AD DUP9 DUP3 DUP10 ADD PUSH2 0x16E7 JUMP JUMPDEST SWAP3 POP POP PUSH1 0x80 PUSH2 0x17BE DUP9 DUP3 DUP10 ADD PUSH2 0x16E7 JUMP JUMPDEST SWAP2 POP POP SWAP3 SWAP6 POP SWAP3 SWAP6 SWAP1 SWAP4 POP JUMP JUMPDEST PUSH1 0x0 PUSH1 0x20 DUP3 DUP5 SUB SLT ISZERO PUSH2 0x17E1 JUMPI PUSH2 0x17E0 PUSH2 0x154E JUMP JUMPDEST JUMPDEST PUSH1 0x0 DUP3 ADD CALLDATALOAD PUSH8 0xFFFFFFFFFFFFFFFF DUP2 GT ISZERO PUSH2 0x17FF JUMPI PUSH2 0x17FE PUSH2 0x1553 JUMP JUMPDEST JUMPDEST PUSH2 0x180B DUP5 DUP3 DUP6 ADD PUSH2 0x1670 JUMP JUMPDEST SWAP2 POP POP SWAP3 SWAP2 POP POP JUMP JUMPDEST PUSH1 0x0 PUSH1 0x20 DUP3 DUP5 SUB SLT ISZERO PUSH2 0x182A JUMPI PUSH2 0x1829 PUSH2 0x154E JUMP JUMPDEST JUMPDEST PUSH1 0x0 PUSH2 0x1838 DUP5 DUP3 DUP6 ADD PUSH2 0x16E7 JUMP JUMPDEST SWAP2 POP POP SWAP3 SWAP2 POP POP JUMP JUMPDEST PUSH1 0x0 DUP2 MLOAD SWAP1 POP SWAP2 SWAP1 POP JUMP JUMPDEST PUSH1 0x0 DUP3 DUP3 MSTORE PUSH1 0x20 DUP3 ADD SWAP1 POP SWAP3 SWAP2 POP POP JUMP JUMPDEST PUSH1 0x0 DUP2 SWAP1 POP PUSH1 0x20 DUP3 ADD SWAP1 POP SWAP2 SWAP1 POP JUMP JUMPDEST PUSH1 0x0 DUP2 MLOAD SWAP1 POP SWAP2 SWAP1 POP JUMP JUMPDEST PUSH1 0x0 DUP3 DUP3 MSTORE PUSH1 0x20 DUP3 ADD SWAP1 POP SWAP3 SWAP2 POP POP JUMP JUMPDEST PUSH1 0x0 JUMPDEST DUP4 DUP2 LT ISZERO PUSH2 0x18A7 JUMPI DUP1 DUP3 ADD MLOAD DUP2 DUP5 ADD MSTORE PUSH1 0x20 DUP2 ADD SWAP1 POP PUSH2 0x188C JUMP JUMPDEST PUSH1 0x0 DUP5 DUP5 ADD MSTORE POP POP POP POP JUMP JUMPDEST PUSH1 0x0 PUSH2 0x18BE DUP3 PUSH2 0x186D JUMP JUMPDEST PUSH2 0x18C8 DUP2 DUP6 PUSH2 0x1878 JUMP JUMPDEST SWAP4 POP PUSH2 0x18D8 DUP2 DUP6 PUSH1 0x20 DUP7 ADD PUSH2 0x1889 JUMP JUMPDEST PUSH2 0x18E1 DUP2 PUSH2 0x1562 JUMP JUMPDEST DUP5 ADD SWAP2 POP POP SWAP3 SWAP2 POP POP JUMP JUMPDEST PUSH1 0x0 PUSH2 0x18F8 DUP4 DUP4 PUSH2 0x18B3 JUMP JUMPDEST SWAP1 POP SWAP3 SWAP2 POP POP JUMP JUMPDEST PUSH1 0x0 PUSH1 0x20 DUP3 ADD SWAP1 POP SWAP2 SWAP1 POP JUMP JUMPDEST PUSH1 0x0 PUSH2 0x1918 DUP3 PUSH2 0x1841 JUMP JUMPDEST PUSH2 0x1922 DUP2 DUP6 PUSH2 0x184C JUMP JUMPDEST SWAP4 POP DUP4 PUSH1 0x20 DUP3 MUL DUP6 ADD PUSH2 0x1934 DUP6 PUSH2 0x185D JUMP JUMPDEST DUP1 PUSH1 0x0 JUMPDEST DUP6 DUP2 LT ISZERO PUSH2 0x1970 JUMPI DUP5 DUP5 SUB DUP10 MSTORE DUP2 MLOAD PUSH2 0x1951 DUP6 DUP3 PUSH2 0x18EC JUMP JUMPDEST SWAP5 POP PUSH2 0x195C DUP4 PUSH2 0x1900 JUMP JUMPDEST SWAP3 POP PUSH1 0x20 DUP11 ADD SWAP10 POP POP PUSH1 0x1 DUP2 ADD SWAP1 POP PUSH2 0x1938 JUMP JUMPDEST POP DUP3 SWAP8 POP DUP8 SWAP6 POP POP POP POP POP POP SWAP3 SWAP2 POP POP JUMP JUMPDEST PUSH1 0x0 PUSH1 0x20 DUP3 ADD SWAP1 POP DUP2 DUP2 SUB PUSH1 0x0 DUP4 ADD MSTORE PUSH2 0x199C DUP2 DUP5 PUSH2 0x190D JUMP JUMPDEST SWAP1 POP SWAP3 SWAP2 POP POP JUMP JUMPDEST PUSH1 0x0 DUP3 DUP3 MSTORE PUSH1 0x20 DUP3 ADD SWAP1 POP SWAP3 SWAP2 POP POP JUMP JUMPDEST PUSH1 0x0 PUSH2 0x19C0 DUP3 PUSH2 0x186D JUMP JUMPDEST PUSH2 0x19CA DUP2 DUP6 PUSH2 0x19A4 JUMP JUMPDEST SWAP4 POP PUSH2 0x19DA DUP2 DUP6 PUSH1 0x20 DUP7 ADD PUSH2 0x1889 JUMP JUMPDEST PUSH2 0x19E3 DUP2 PUSH2 0x1562 JUMP JUMPDEST DUP5 ADD SWAP2 POP POP SWAP3 SWAP2 POP POP JUMP JUMPDEST PUSH2 0x19F7 DUP2 PUSH2 0x16BE JUMP JUMPDEST DUP3 MSTORE POP POP JUMP JUMPDEST PUSH1 0x0 DUP2 MLOAD SWAP1 POP SWAP2 SWAP1 POP JUMP JUMPDEST PUSH1 0x0 DUP3 DUP3 MSTORE PUSH1 0x20 DUP3 ADD SWAP1 POP SWAP3 SWAP2 POP POP JUMP JUMPDEST PUSH1 0x0 DUP2 SWAP1 POP PUSH1 0x20 DUP3 ADD SWAP1 POP SWAP2 SWAP1 POP JUMP JUMPDEST PUSH2 0x1A32 DUP2 PUSH2 0x16BE JUMP JUMPDEST DUP3 MSTORE POP POP JUMP JUMPDEST PUSH1 0x0 PUSH2 0x1A44 DUP4 DUP4 PUSH2 0x1A29 JUMP JUMPDEST PUSH1 0x20 DUP4 ADD SWAP1 POP SWAP3 SWAP2 POP POP JUMP JUMPDEST PUSH1 0x0 PUSH1 0x20 DUP3 ADD SWAP1 POP SWAP2 SWAP1 POP JUMP JUMPDEST PUSH1 0x0 PUSH2 0x1A68 DUP3 PUSH2 0x19FD JUMP JUMPDEST PUSH2 0x1A72 DUP2 DUP6 PUSH2 0x1A08 JUMP JUMPDEST SWAP4 POP PUSH2 0x1A7D DUP4 PUSH2 0x1A19 JUMP JUMPDEST DUP1 PUSH1 0x0 JUMPDEST DUP4 DUP2 LT ISZERO PUSH2 0x1AAE JUMPI DUP2 MLOAD PUSH2 0x1A95 DUP9 DUP3 PUSH2 0x1A38 JUMP JUMPDEST SWAP8 POP PUSH2 0x1AA0 DUP4 PUSH2 0x1A50 JUMP JUMPDEST SWAP3 POP POP PUSH1 0x1 DUP2 ADD SWAP1 POP PUSH2 0x1A81 JUMP JUMPDEST POP DUP6 SWAP4 POP POP POP POP SWAP3 SWAP2 POP POP JUMP JUMPDEST PUSH1 0x0 PUSH1 0x80 DUP3 ADD SWAP1 POP DUP2 DUP2 SUB PUSH1 0x0 DUP4 ADD MSTORE PUSH2 0x1AD5 DUP2 DUP8 PUSH2 0x19B5 JUMP JUMPDEST SWAP1 POP DUP2 DUP2 SUB PUSH1 0x20 DUP4 ADD MSTORE PUSH2 0x1AE9 DUP2 DUP7 PUSH2 0x19B5 JUMP JUMPDEST SWAP1 POP PUSH2 0x1AF8 PUSH1 0x40 DUP4 ADD DUP6 PUSH2 0x19EE JUMP JUMPDEST DUP2 DUP2 SUB PUSH1 0x60 DUP4 ADD MSTORE PUSH2 0x1B0A DUP2 DUP5 PUSH2 0x1A5D JUMP JUMPDEST SWAP1 POP SWAP6 SWAP5 POP POP POP POP POP JUMP JUMPDEST PUSH1 0x0 DUP2 ISZERO ISZERO SWAP1 POP SWAP2 SWAP1 POP JUMP JUMPDEST PUSH2 0x1B2A DUP2 PUSH2 0x1B15 JUMP JUMPDEST DUP3 MSTORE POP POP JUMP JUMPDEST PUSH1 0x0 PUSH1 0x20 DUP3 ADD SWAP1 POP PUSH2 0x1B45 PUSH1 0x0 DUP4 ADD DUP5 PUSH2 0x1B21 JUMP JUMPDEST SWAP3 SWAP2 POP POP JUMP JUMPDEST PUSH1 0x0 DUP1 PUSH1 0x40 DUP4 DUP6 SUB SLT ISZERO PUSH2 0x1B62 JUMPI PUSH2 0x1B61 PUSH2 0x154E JUMP JUMPDEST JUMPDEST PUSH1 0x0 DUP4 ADD CALLDATALOAD PUSH8 0xFFFFFFFFFFFFFFFF DUP2 GT ISZERO PUSH2 0x1B80 JUMPI PUSH2 0x1B7F PUSH2 0x1553 JUMP JUMPDEST JUMPDEST PUSH2 0x1B8C DUP6 DUP3 DUP7 ADD PUSH2 0x1670 JUMP JUMPDEST SWAP3 POP POP PUSH1 0x20 PUSH2 0x1B9D DUP6 DUP3 DUP7 ADD PUSH2 0x16E7 JUMP JUMPDEST SWAP2 POP POP SWAP3 POP SWAP3 SWAP1 POP JUMP JUMPDEST PUSH1 0x0 PUSH1 0x20 DUP3 ADD SWAP1 POP DUP2 DUP2 SUB PUSH1 0x0 DUP4 ADD MSTORE PUSH2 0x1BC1 DUP2 DUP5 PUSH2 0x19B5 JUMP JUMPDEST SWAP1 POP SWAP3 SWAP2 POP POP JUMP JUMPDEST PUSH1 0x0 DUP2 SWAP1 POP SWAP3 SWAP2 POP POP JUMP JUMPDEST PUSH1 0x0 PUSH2 0x1BDF DUP3 PUSH2 0x186D JUMP JUMPDEST PUSH2 0x1BE9 DUP2 DUP6 PUSH2 0x1BC9 JUMP JUMPDEST SWAP4 POP PUSH2 0x1BF9 DUP2 DUP6 PUSH1 0x20 DUP7 ADD PUSH2 0x1889 JUMP JUMPDEST DUP1 DUP5 ADD SWAP2 POP POP SWAP3 SWAP2 POP POP JUMP JUMPDEST PUSH1 0x0 PUSH2 0x1C11 DUP3 DUP5 PUSH2 0x1BD4 JUMP JUMPDEST SWAP2 POP DUP2 SWAP1 POP SWAP3 SWAP2 POP POP JUMP JUMPDEST PUSH32 0x46696C652043494420616C72656164792075706C6F6164656400000000000000 PUSH1 0x0 DUP3 ADD MSTORE POP JUMP JUMPDEST PUSH1 0x0 PUSH2 0x1C52 PUSH1 0x19 DUP4 PUSH2 0x19A4 JUMP JUMPDEST SWAP2 POP PUSH2 0x1C5D DUP3 PUSH2 0x1C1C JUMP JUMPDEST PUSH1 0x20 DUP3 ADD SWAP1 POP SWAP2 SWAP1 POP JUMP JUMPDEST PUSH1 0x0 PUSH1 0x20 DUP3 ADD SWAP1 POP DUP2 DUP2 SUB PUSH1 0x0 DUP4 ADD MSTORE PUSH2 0x1C81 DUP2 PUSH2 0x1C45 JUMP JUMPDEST SWAP1 POP SWAP2 SWAP1 POP JUMP JUMPDEST PUSH32 0x4E487B7100000000000000000000000000000000000000000000000000000000 PUSH1 0x0 MSTORE PUSH1 0x22 PUSH1 0x4 MSTORE PUSH1 0x24 PUSH1 0x0 REVERT JUMPDEST PUSH1 0x0 PUSH1 0x2 DUP3 DIV SWAP1 POP PUSH1 0x1 DUP3 AND DUP1 PUSH2 0x1CCF JUMPI PUSH1 0x7F DUP3 AND SWAP2 POP JUMPDEST PUSH1 0x20 DUP3 LT DUP2 SUB PUSH2 0x1CE2 JUMPI PUSH2 0x1CE1 PUSH2 0x1C88 JUMP JUMPDEST JUMPDEST POP SWAP2 SWAP1 POP JUMP JUMPDEST PUSH1 0x0 DUP2 SWAP1 POP DUP2 PUSH1 0x0 MSTORE PUSH1 0x20 PUSH1 0x0 KECCAK256 SWAP1 POP SWAP2 SWAP1 POP JUMP JUMPDEST PUSH1 0x0 PUSH1 0x20 PUSH1 0x1F DUP4 ADD DIV SWAP1 POP SWAP2 SWAP1 POP JUMP JUMPDEST PUSH1 0x0 DUP3 DUP3 SHL SWAP1 POP SWAP3 SWAP2 POP POP JUMP JUMPDEST PUSH1 0x0 PUSH1 0x8 DUP4 MUL PUSH2 0x1D4A PUSH32 0xFFFFFFFFFFFFFFFFFFFFFFFFFFFFFFFFFFFFFFFFFFFFFFFFFFFFFFFFFFFFFFFF DUP3 PUSH2 0x1D0D JUMP JUMPDEST PUSH2 0x1D54 DUP7 DUP4 PUSH2 0x1D0D JUMP JUMPDEST SWAP6 POP DUP1 NOT DUP5 AND SWAP4 POP DUP1 DUP7 AND DUP5 OR SWAP3 POP POP POP SWAP4 SWAP3 POP POP POP JUMP JUMPDEST PUSH1 0x0 DUP2 SWAP1 POP SWAP2 SWAP1 POP JUMP JUMPDEST PUSH1 0x0 DUP2 SWAP1 POP SWAP2 SWAP1 POP JUMP JUMPDEST PUSH1 0x0 PUSH2 0x1D9B PUSH2 0x1D96 PUSH2 0x1D91 DUP5 PUSH2 0x1D6C JUMP JUMPDEST PUSH2 0x1D76 JUMP JUMPDEST PUSH2 0x1D6C JUMP JUMPDEST SWAP1 POP SWAP2 SWAP1 POP JUMP JUMPDEST PUSH1 0x0 DUP2 SWAP1 POP SWAP2 SWAP1 POP JUMP JUMPDEST PUSH2 0x1DB5 DUP4 PUSH2 0x1D80 JUMP JUMPDEST PUSH2 0x1DC9 PUSH2 0x1DC1 DUP3 PUSH2 0x1DA2 JUMP JUMPDEST DUP5 DUP5 SLOAD PUSH2 0x1D1A JUMP JUMPDEST DUP3 SSTORE POP POP POP POP JUMP JUMPDEST PUSH1 0x0 SWAP1 JUMP JUMPDEST PUSH2 0x1DDE PUSH2 0x1DD1 JUMP JUMPDEST PUSH2 0x1DE9 DUP2 DUP5 DUP5 PUSH2 0x1DAC JUMP JUMPDEST POP POP POP JUMP JUMPDEST JUMPDEST DUP2 DUP2 LT ISZERO PUSH2 0x1E0D JUMPI PUSH2 0x1E02 PUSH1 0x0 DUP3 PUSH2 0x1DD6 JUMP JUMPDEST PUSH1 0x1 DUP2 ADD SWAP1 POP PUSH2 0x1DEF JUMP JUMPDEST POP POP JUMP JUMPDEST PUSH1 0x1F DUP3 GT ISZERO PUSH2 0x1E52 JUMPI PUSH2 0x1E23 DUP2 PUSH2 0x1CE8 JUMP JUMPDEST PUSH2 0x1E2C DUP5 PUSH2 0x1CFD JUMP JUMPDEST DUP2 ADD PUSH1 0x20 DUP6 LT ISZERO PUSH2 0x1E3B JUMPI DUP2 SWAP1 POP JUMPDEST PUSH2 0x1E4F PUSH2 0x1E47 DUP6 PUSH2 0x1CFD JUMP JUMPDEST DUP4 ADD DUP3 PUSH2 0x1DEE JUMP JUMPDEST POP POP JUMPDEST POP POP POP JUMP JUMPDEST PUSH1 0x0 DUP3 DUP3 SHR SWAP1 POP SWAP3 SWAP2 POP POP JUMP JUMPDEST PUSH1 0x0 PUSH2 0x1E75 PUSH1 0x0 NOT DUP5 PUSH1 0x8 MUL PUSH2 0x1E57 JUMP JUMPDEST NOT DUP1 DUP4 AND SWAP2 POP POP SWAP3 SWAP2 POP POP JUMP JUMPDEST PUSH1 0x0 PUSH2 0x1E8E DUP4 DUP4 PUSH2 0x1E64 JUMP JUMPDEST SWAP2 POP DUP3 PUSH1 0x2 MUL DUP3 OR SWAP1 POP SWAP3 SWAP2 POP POP JUMP JUMPDEST PUSH2 0x1EA7 DUP3 PUSH2 0x186D JUMP JUMPDEST PUSH8 0xFFFFFFFFFFFFFFFF DUP2 GT ISZERO PUSH2 0x1EC0 JUMPI PUSH2 0x1EBF PUSH2 0x1573 JUMP JUMPDEST JUMPDEST PUSH2 0x1ECA DUP3 SLOAD PUSH2 0x1CB7 JUMP JUMPDEST PUSH2 0x1ED5 DUP3 DUP3 DUP6 PUSH2 0x1E11 JUMP JUMPDEST PUSH1 0x0 PUSH1 0x20 SWAP1 POP PUSH1 0x1F DUP4 GT PUSH1 0x1 DUP2 EQ PUSH2 0x1F08 JUMPI PUSH1 0x0 DUP5 ISZERO PUSH2 0x1EF6 JUMPI DUP3 DUP8 ADD MLOAD SWAP1 POP JUMPDEST PUSH2 0x1F00 DUP6 DUP3 PUSH2 0x1E82 JUMP JUMPDEST DUP7 SSTORE POP PUSH2 0x1F68 JUMP JUMPDEST PUSH1 0x1F NOT DUP5 AND PUSH2 0x1F16 DUP7 PUSH2 0x1CE8 JUMP JUMPDEST PUSH1 0x0 JUMPDEST DUP3 DUP2 LT ISZERO PUSH2 0x1F3E JUMPI DUP5 DUP10 ADD MLOAD DUP3 SSTORE PUSH1 0x1 DUP3 ADD SWAP2 POP PUSH1 0x20 DUP6 ADD SWAP5 POP PUSH1 0x20 DUP2 ADD SWAP1 POP PUSH2 0x1F19 JUMP JUMPDEST DUP7 DUP4 LT ISZERO PUSH2 0x1F5B JUMPI DUP5 DUP10 ADD MLOAD PUSH2 0x1F57 PUSH1 0x1F DUP10 AND DUP3 PUSH2 0x1E64 JUMP JUMPDEST DUP4 SSTORE POP JUMPDEST PUSH1 0x1 PUSH1 0x2 DUP9 MUL ADD DUP9 SSTORE POP POP POP JUMPDEST POP POP POP POP POP POP JUMP JUMPDEST PUSH1 0x0 PUSH1 0x80 DUP3 ADD SWAP1 POP DUP2 DUP2 SUB PUSH1 0x0 DUP4 ADD MSTORE PUSH2 0x1F8A DUP2 DUP8 PUSH2 0x19B5 JUMP JUMPDEST SWAP1 POP DUP2 DUP2 SUB PUSH1 0x20 DUP4 ADD MSTORE PUSH2 0x1F9E DUP2 DUP7 PUSH2 0x19B5 JUMP JUMPDEST SWAP1 POP PUSH2 0x1FAD PUSH1 0x40 DUP4 ADD DUP6 PUSH2 0x19EE JUMP JUMPDEST PUSH2 0x1FBA PUSH1 0x60 DUP4 ADD DUP5 PUSH2 0x19EE JUMP JUMPDEST SWAP6 SWAP5 POP POP POP POP POP JUMP JUMPDEST PUSH32 0x4F6E6C792074686520636F6E7472616374206F776E65722063616E2063616C6C PUSH1 0x0 DUP3 ADD MSTORE PUSH32 0x20746869732066756E6374696F6E000000000000000000000000000000000000 PUSH1 0x20 DUP3 ADD MSTORE POP JUMP JUMPDEST PUSH1 0x0 PUSH2 0x201F PUSH1 0x2E DUP4 PUSH2 0x19A4 JUMP JUMPDEST SWAP2 POP PUSH2 0x202A DUP3 PUSH2 0x1FC3 JUMP JUMPDEST PUSH1 0x40 DUP3 ADD SWAP1 POP SWAP2 SWAP1 POP JUMP JUMPDEST PUSH1 0x0 PUSH1 0x20 DUP3 ADD SWAP1 POP DUP2 DUP2 SUB PUSH1 0x0 DUP4 ADD MSTORE PUSH2 0x204E DUP2 PUSH2 0x2012 JUMP JUMPDEST SWAP1 POP SWAP2 SWAP1 POP JUMP JUMPDEST PUSH32 0x4E6F2066696C65207265636F726420666F756E6420666F722074686973204349 PUSH1 0x0 DUP3 ADD MSTORE PUSH32 0x4400000000000000000000000000000000000000000000000000000000000000 PUSH1 0x20 DUP3 ADD MSTORE POP JUMP JUMPDEST PUSH1 0x0 PUSH2 0x20B1 PUSH1 0x21 DUP4 PUSH2 0x19A4 JUMP JUMPDEST SWAP2 POP PUSH2 0x20BC DUP3 PUSH2 0x2055 JUMP JUMPDEST PUSH1 0x40 DUP3 ADD SWAP1 POP SWAP2 SWAP1 POP JUMP JUMPDEST PUSH1 0x0 PUSH1 0x20 DUP3 ADD SWAP1 POP DUP2 DUP2 SUB PUSH1 0x0 DUP4 ADD MSTORE PUSH2 0x20E0 DUP2 PUSH2 0x20A4 JUMP JUMPDEST SWAP1 POP SWAP2 SWAP1 POP JUMP JUMPDEST PUSH32 0x4E487B7100000000000000000000000000000000000000000000000000000000 PUSH1 0x0 MSTORE PUSH1 0x32 PUSH1 0x4 MSTORE PUSH1 0x24 PUSH1 0x0 REVERT JUMPDEST PUSH1 0x0 DUP2 SLOAD PUSH2 0x2123 DUP2 PUSH2 0x1CB7 JUMP JUMPDEST PUSH2 0x212D DUP2 DUP7 PUSH2 0x1BC9 JUMP JUMPDEST SWAP5 POP PUSH1 0x1 DUP3 AND PUSH1 0x0 DUP2 EQ PUSH2 0x2148 JUMPI PUSH1 0x1 DUP2 EQ PUSH2 0x215D JUMPI PUSH2 0x2190 JUMP JUMPDEST PUSH1 0xFF NOT DUP4 AND DUP7 MSTORE DUP2 ISZERO ISZERO DUP3 MUL DUP7 ADD SWAP4 POP PUSH2 0x2190 JUMP JUMPDEST PUSH2 0x2166 DUP6 PUSH2 0x1CE8 JUMP JUMPDEST PUSH1 0x0 JUMPDEST DUP4 DUP2 LT ISZERO PUSH2 0x2188 JUMPI DUP2 SLOAD DUP2 DUP10 ADD MSTORE PUSH1 0x1 DUP3 ADD SWAP2 POP PUSH1 0x20 DUP2 ADD SWAP1 POP PUSH2 0x2169 JUMP JUMPDEST DUP4 DUP9 ADD SWAP6 POP POP POP JUMPDEST POP POP POP SWAP3 SWAP2 POP POP JUMP JUMPDEST PUSH1 0x0 PUSH2 0x21A5 DUP3 DUP5 PUSH2 0x2116 JUMP JUMPDEST SWAP2 POP DUP2 SWAP1 POP SWAP3 SWAP2 POP POP JUMP JUMPDEST PUSH32 0x4E487B7100000000000000000000000000000000000000000000000000000000 PUSH1 0x0 MSTORE PUSH1 0x11 PUSH1 0x4 MSTORE PUSH1 0x24 PUSH1 0x0 REVERT JUMPDEST PUSH1 0x0 PUSH2 0x21EA DUP3 PUSH2 0x1D6C JUMP JUMPDEST SWAP2 POP PUSH2 0x21F5 DUP4 PUSH2 0x1D6C JUMP JUMPDEST SWAP3 POP DUP3 DUP3 SUB SWAP1 POP DUP2 DUP2 GT ISZERO PUSH2 0x220D JUMPI PUSH2 0x220C PUSH2 0x21B0 JUMP JUMPDEST JUMPDEST SWAP3 SWAP2 POP POP JUMP JUMPDEST PUSH1 0x0 DUP2 SLOAD SWAP1 POP PUSH2 0x2222 DUP2 PUSH2 0x1CB7 JUMP JUMPDEST SWAP1 POP SWAP2 SWAP1 POP JUMP JUMPDEST PUSH1 0x0 DUP2 SWAP1 POP DUP2 PUSH1 0x0 MSTORE PUSH1 0x20 PUSH1 0x0 KECCAK256 SWAP1 POP SWAP2 SWAP1 POP JUMP JUMPDEST DUP2 DUP2 SUB PUSH2 0x224C JUMPI POP POP PUSH2 0x2324 JUMP JUMPDEST PUSH2 0x2255 DUP3 PUSH2 0x2213 JUMP JUMPDEST PUSH8 0xFFFFFFFFFFFFFFFF DUP2 GT ISZERO PUSH2 0x226E JUMPI PUSH2 0x226D PUSH2 0x1573 JUMP JUMPDEST JUMPDEST PUSH2 0x2278 DUP3 SLOAD PUSH2 0x1CB7 JUMP JUMPDEST PUSH2 0x2283 DUP3 DUP3 DUP6 PUSH2 0x1E11 JUMP JUMPDEST PUSH1 0x0 PUSH1 0x1F DUP4 GT PUSH1 0x1 DUP2 EQ PUSH2 0x22B2 JUMPI PUSH1 0x0 DUP5 ISZERO PUSH2 0x22A0 JUMPI DUP3 DUP8 ADD SLOAD SWAP1 POP JUMPDEST PUSH2 0x22AA DUP6 DUP3 PUSH2 0x1E82 JUMP JUMPDEST DUP7 SSTORE POP PUSH2 0x231D JUMP JUMPDEST PUSH1 0x1F NOT DUP5 AND PUSH2 0x22C0 DUP8 PUSH2 0x2229 JUMP JUMPDEST SWAP7 POP PUSH2 0x22CB DUP7 PUSH2 0x1CE8 JUMP JUMPDEST PUSH1 0x0 JUMPDEST DUP3 DUP2 LT ISZERO PUSH2 0x22F3 JUMPI DUP5 DUP10 ADD SLOAD DUP3 SSTORE PUSH1 0x1 DUP3 ADD SWAP2 POP PUSH1 0x1 DUP6 ADD SWAP5 POP PUSH1 0x20 DUP2 ADD SWAP1 POP PUSH2 0x22CE JUMP JUMPDEST DUP7 DUP4 LT ISZERO PUSH2 0x2310 JUMPI DUP5 DUP10 ADD SLOAD PUSH2 0x230C PUSH1 0x1F DUP10 AND DUP3 PUSH2 0x1E64 JUMP JUMPDEST DUP4 SSTORE POP JUMPDEST PUSH1 0x1 PUSH1 0x2 DUP9 MUL ADD DUP9 SSTORE POP POP POP JUMPDEST POP POP POP POP POP POP JUMPDEST JUMP JUMPDEST PUSH32 0x4E487B7100000000000000000000000000000000000000000000000000000000 PUSH1 0x0 MSTORE PUSH1 0x31 PUSH1 0x4 MSTORE PUSH1 0x24 PUSH1 0x0 REVERT JUMPDEST PUSH1 0x0 PUSH2 0x2360 DUP3 PUSH2 0x1D6C JUMP JUMPDEST SWAP2 POP PUSH32 0xFFFFFFFFFFFFFFFFFFFFFFFFFFFFFFFFFFFFFFFFFFFFFFFFFFFFFFFFFFFFFFFF DUP3 SUB PUSH2 0x2392 JUMPI PUSH2 0x2391 PUSH2 0x21B0 JUMP JUMPDEST JUMPDEST PUSH1 0x1 DUP3 ADD SWAP1 POP SWAP2 SWAP1 POP JUMP JUMPDEST PUSH32 0x46696C652043494420646F6573206E6F74206578697374000000000000000000 PUSH1 0x0 DUP3 ADD MSTORE POP JUMP JUMPDEST PUSH1 0x0 PUSH2 0x23D3 PUSH1 0x17 DUP4 PUSH2 0x19A4 JUMP JUMPDEST SWAP2 POP PUSH2 0x23DE DUP3 PUSH2 0x239D JUMP JUMPDEST PUSH1 0x20 DUP3 ADD SWAP1 POP SWAP2 SWAP1 POP JUMP JUMPDEST PUSH1 0x0 PUSH1 0x20 DUP3 ADD SWAP1 POP DUP2 DUP2 SUB PUSH1 0x0 DUP4 ADD MSTORE PUSH2 0x2402 DUP2 PUSH2 0x23C6 JUMP JUMPDEST SWAP1 POP SWAP2 SWAP1 POP JUMP JUMPDEST PUSH32 0x496E76616C69642075706C6F6164657220616464726573730000000000000000 PUSH1 0x0 DUP3 ADD MSTORE POP JUMP JUMPDEST PUSH1 0x0 PUSH2 0x243F PUSH1 0x18 DUP4 PUSH2 0x19A4 JUMP JUMPDEST SWAP2 POP PUSH2 0x244A DUP3 PUSH2 0x2409 JUMP JUMPDEST PUSH1 0x20 DUP3 ADD SWAP1 POP SWAP2 SWAP1 POP JUMP JUMPDEST PUSH1 0x0 PUSH1 0x20 DUP3 ADD SWAP1 POP DUP2 DUP2 SUB PUSH1 0x0 DUP4 ADD MSTORE PUSH2 0x246E DUP2 PUSH2 0x2432 JUMP JUMPDEST SWAP1 POP SWAP2 SWAP1 POP JUMP JUMPDEST PUSH32 0x5573657220646F6573206E6F7420686176652061636365737320746F20616E79 PUSH1 0x0 DUP3 ADD MSTORE PUSH32 0x204349442075706C6F61646564206279207468652075706C6F61646572000000 PUSH1 0x20 DUP3 ADD MSTORE POP JUMP JUMPDEST PUSH1 0x0 PUSH2 0x24D1 PUSH1 0x3D DUP4 PUSH2 0x19A4 JUMP JUMPDEST SWAP2 POP PUSH2 0x24DC DUP3 PUSH2 0x2475 JUMP JUMPDEST PUSH1 0x40 DUP3 ADD SWAP1 POP SWAP2 SWAP1 POP JUMP JUMPDEST PUSH1 0x0 PUSH1 0x20 DUP3 ADD SWAP1 POP DUP2 DUP2 SUB PUSH1 0x0 DUP4 ADD MSTORE PUSH2 0x2500 DUP2 PUSH2 0x24C4 JUMP JUMPDEST SWAP1 POP SWAP2 SWAP1 POP JUMP INVALID LOG2 PUSH5 0x6970667358 0x22 SLT KECCAK256 0x1E EXTCODEHASH DUP6 ORIGIN CALLVALUE SHR 0xD1 DUP16 0xD0 0xD GASLIMIT TIMESTAMP LOG0 OR DUP1 SHL 0xBB 0xDF EXP 0xED 0xAE 0xD4 PUSH4 0xE1BA3474 EXTCODECOPY SDIV NUMBER SWAP4 ISZERO PUSH5 0x736F6C6343 STOP ADDMOD SGT STOP CALLER "},"methodIdentifiers":{"canAccess(string,address)":"b7ef5baf","cidExists(string)":"a77015d1","deleteFileRecord(string)":"34b35f16","getCid(address)":"d3419723","getUploadedCids(address)":"9939fba6","grantAccess(string,address)":"f37c215e","revokeAccess(string,address)":"dfe0b5fe","uploadCid(string,string,string,address,address)":"27ee6f23","viewFileInfo(string)":"a1081130"}}}}}