{"contracts/Storage.sol":{"Storage":{"abi":[{"inputs":[],"stateMutability":"nonpayable","type":"constructor"},{"anonymous":false,"inputs":[{"indexed":false,"internalType":"string","name":"fileName","type":"string"},{"indexed":false,"internalType":"string","name":"fileCid","type":"string"},{"indexed":false,"internalType":"address","name":"ownerAddress","type":"address"},{"indexed":false,"internalType":"address","name":"recipientAddresses","type":"address"}],"name":"CidUploaded","type":"event"},{"inputs":[{"internalType":"string","name":"cid","type":"string"},{"internalType":"address","name":"user","type":"address"}],"name":"canAccess","outputs":[{"internalType":"bool","name":"","type":"bool"}],"stateMutability":"view","type":"function"},{"inputs":[{"internalType":"string","name":"cid","type":"string"}],"name":"cidExists","outputs":[{"internalType":"bool","name":"","type":"bool"}],"stateMutability":"view","type":"function"},{"inputs":[{"internalType":"string","name":"fileCid","type":"string"}],"name":"deleteFileRecord","outputs":[],"stateMutability":"nonpayable","type":"function"},{"inputs":[{"internalType":"address","name":"uploaderAddress","type":"address"}],"name":"getCid","outputs":[{"internalType":"string","name":"","type":"string"}],"stateMutability":"view","type":"function"},{"inputs":[{"internalType":"address","name":"uploaderAddress","type":"address"}],"name":"getUploadedCids","outputs":[{"internalType":"string[]","name":"","type":"string[]"}],"stateMutability":"view","type":"function"},{"inputs":[{"internalType":"string","name":"cid","type":"string"},{"internalType":"address","name":"user","type":"address"}],"name":"grantAccess","outputs":[],"stateMutability":"nonpayable","type":"function"},{"inputs":[{"internalType":"string","name":"cid","type":"string"},{"internalType":"address","name":"user","type":"address"}],"name":"revokeAccess","outputs":[],"stateMutability":"nonpayable","type":"function"},{"inputs":[{"internalType":"string","name":"uploaderName","type":"string"},{"internalType":"string","name":"fileName","type":"string"},{"internalType":"string","name":"fileCid","type":"string"},{"internalType":"address","name":"ownerAddress","type":"address"},{"internalType":"address","name":"recipientAddresses","type":"address"}],"name":"uploadCid","outputs":[],"stateMutability":"nonpayable","type":"function"},{"inputs":[{"internalType":"string","name":"fileCid","type":"string"}],"name":"viewFileInfo","outputs":[{"internalType":"string","name":"","type":"string"},{"internalType":"string","name":"","type":"string"},{"internalType":"address","name":"","type":"address"},{"internalType":"address[]","name":"","type":"address[]"}],"stateMutability":"view","type":"function"}],"evm":{"bytecode":{"linkReferences":{},"object":"608060405234801561001057600080fd5b50336000806101000a81548173ffffffffffffffffffffffffffffffffffffffff021916908373ffffffffffffffffffffffffffffffffffffffff160217905550612442806100606000396000f3fe608060405234801561001057600080fd5b50600436106100935760003560e01c8063a77015d111610066578063a77015d114610133578063b7ef5baf14610163578063d341972314610193578063dfe0b5fe146101c3578063f37c215e146101df57610093565b806327ee6f231461009857806334b35f16146100b45780639939fba6146100d0578063a108113014610100575b600080fd5b6100b260048036038101906100ad9190611601565b6101fb565b005b6100ce60048036038101906100c991906116d0565b610578565b005b6100ea60048036038101906100e59190611719565b610b5d565b6040516100f79190611887565b60405180910390f35b61011a600480360381019061011591906116d0565b610c75565b60405161012a94939291906119c0565b60405180910390f35b61014d600480360381019061014891906116d0565b610f2f565b60405161015a9190611a35565b60405180910390f35b61017d60048036038101906101789190611a50565b610fa9565b60405161018a9190611a35565b60405180910390f35b6101ad60048036038101906101a89190611719565b61101c565b6040516101ba9190611aac565b60405180910390f35b6101dd60048036038101906101d89190611a50565b6112dc565b005b6101f960048036038101906101f49190611a50565b611354565b005b600073ffffffffffffffffffffffffffffffffffffffff166004846040516102239190611b0a565b908152602001604051809103902060030160009054906101000a900473ffffffffffffffffffffffffffffffffffffffff1673ffffffffffffffffffffffffffffffffffffffff16146102ab576040517f08c379a00000000000000000000000000000000000000000000000000000000081526004016102a290611b6d565b60405180910390fd5b846004846040516102bc9190611b0a565b908152602001604051809103902060000190816102d99190611da3565b50836004846040516102eb9190611b0a565b908152602001604051809103902060010190816103089190611da3565b508260048460405161031a9190611b0a565b908152602001604051809103902060020190816103379190611da3565b50336004846040516103499190611b0a565b908152602001604051809103902060030160006101000a81548173ffffffffffffffffffffffffffffffffffffffff021916908373ffffffffffffffffffffffffffffffffffffffff1602179055506004836040516103a89190611b0a565b9081526020016040518091039020600401819080600181540180825580915050600190039060005260206000200160009091909190916101000a81548173ffffffffffffffffffffffffffffffffffffffff021916908373ffffffffffffffffffffffffffffffffffffffff1602179055506001808460405161042b9190611b0a565b908152602001604051809103902060008473ffffffffffffffffffffffffffffffffffffffff1673ffffffffffffffffffffffffffffffffffffffff16815260200190815260200160002060006101000a81548160ff0219169083151502179055506005839080600181540180825580915050600190039060005260206000200160009091909190915090816104c19190611da3565b50600260003373ffffffffffffffffffffffffffffffffffffffff1673ffffffffffffffffffffffffffffffffffffffff168152602001908152602001600020839080600181540180825580915050600190039060005260206000200160009091909190915090816105339190611da3565b507f32bb5a8aba375cb6f693e852ff2876ec292fa25fcf83f2f87dbe417edf2c5310848484846040516105699493929190611e75565b60405180910390a15050505050565b600073ffffffffffffffffffffffffffffffffffffffff166004826040516105a09190611b0a565b908152602001604051809103902060030160009054906101000a900473ffffffffffffffffffffffffffffffffffffffff1673ffffffffffffffffffffffffffffffffffffffff1603610628576040517f08c379a000000000000000000000000000000000000000000000000000000000815260040161061f90611f3a565b60405180910390fd5b3373ffffffffffffffffffffffffffffffffffffffff1660048260405161064f9190611b0a565b908152602001604051809103902060030160009054906101000a900473ffffffffffffffffffffffffffffffffffffffff1673ffffffffffffffffffffffffffffffffffffffff16146106d7576040517f08c379a00000000000000000000000000000000000000000000000000000000081526004016106ce90611fcc565b60405180910390fd5b60006004826040516106e99190611b0a565b908152602001604051809103902060030160009054906101000a900473ffffffffffffffffffffffffffffffffffffffff16905060048260405161072d9190611b0a565b90815260200160405180910390206000808201600061074c91906113cb565b60018201600061075c91906113cb565b60028201600061076c91906113cb565b6003820160006101000a81549073ffffffffffffffffffffffffffffffffffffffff02191690556004820160006107a3919061140b565b505060005b6005805490508110156108c757826040516020016107c69190611b0a565b60405160208183030381529060405280519060200120600582815481106107f0576107ef611fec565b5b9060005260206000200160405160200161080a919061209e565b60405160208183030381529060405280519060200120036108b4576005600160058054905061083991906120e4565b8154811061084a57610849611fec565b5b906000526020600020016005828154811061086857610867611fec565b5b90600052602060002001908161087e9190612143565b5060058054806108915761089061222b565b5b6001900381819060005260206000200160006108ad91906113cb565b90556108c7565b80806108bf9061225a565b9150506107a8565b5060005b600260008373ffffffffffffffffffffffffffffffffffffffff1673ffffffffffffffffffffffffffffffffffffffff16815260200190815260200160002080549050811015610b5857826040516020016109269190611b0a565b60405160208183030381529060405280519060200120600260008473ffffffffffffffffffffffffffffffffffffffff1673ffffffffffffffffffffffffffffffffffffffff168152602001908152602001600020828154811061098d5761098c611fec565b5b906000526020600020016040516020016109a7919061209e565b6040516020818303038152906040528051906020012003610b4557600260008373ffffffffffffffffffffffffffffffffffffffff1673ffffffffffffffffffffffffffffffffffffffff1681526020019081526020016000206001600260008573ffffffffffffffffffffffffffffffffffffffff1673ffffffffffffffffffffffffffffffffffffffff16815260200190815260200160002080549050610a5091906120e4565b81548110610a6157610a60611fec565b5b90600052602060002001600260008473ffffffffffffffffffffffffffffffffffffffff1673ffffffffffffffffffffffffffffffffffffffff1681526020019081526020016000208281548110610abc57610abb611fec565b5b906000526020600020019081610ad29190612143565b50600260008373ffffffffffffffffffffffffffffffffffffffff1673ffffffffffffffffffffffffffffffffffffffff168152602001908152602001600020805480610b2257610b2161222b565b5b600190038181906000526020600020016000610b3e91906113cb565b9055610b58565b8080610b509061225a565b9150506108cb565b505050565b6060600260008373ffffffffffffffffffffffffffffffffffffffff1673ffffffffffffffffffffffffffffffffffffffff168152602001908152602001600020805480602002602001604051908101604052809291908181526020016000905b82821015610c6a578382906000526020600020018054610bdd90611bbc565b80601f0160208091040260200160405190810160405280929190818152602001828054610c0990611bbc565b8015610c565780601f10610c2b57610100808354040283529160200191610c56565b820191906000526020600020905b815481529060010190602001808311610c3957829003601f168201915b505050505081526020019060010190610bbe565b505050509050919050565b60608060006060600073ffffffffffffffffffffffffffffffffffffffff16600486604051610ca49190611b0a565b908152602001604051809103902060030160009054906101000a900473ffffffffffffffffffffffffffffffffffffffff1673ffffffffffffffffffffffffffffffffffffffff1603610d2c576040517f08c379a0000000000000000000000000000000000000000000000000000000008152600401610d23906122ee565b60405180910390fd5b6000600486604051610d3e9190611b0a565b9081526020016040518091039020905080600001816001018260030160009054906101000a900473ffffffffffffffffffffffffffffffffffffffff1683600401838054610d8b90611bbc565b80601f0160208091040260200160405190810160405280929190818152602001828054610db790611bbc565b8015610e045780601f10610dd957610100808354040283529160200191610e04565b820191906000526020600020905b815481529060010190602001808311610de757829003601f168201915b50505050509350828054610e1790611bbc565b80601f0160208091040260200160405190810160405280929190818152602001828054610e4390611bbc565b8015610e905780601f10610e6557610100808354040283529160200191610e90565b820191906000526020600020905b815481529060010190602001808311610e7357829003601f168201915b5050505050925080805480602002602001604051908101604052809291908181526020018280548015610f1857602002820191906000526020600020905b8160009054906101000a900473ffffffffffffffffffffffffffffffffffffffff1673ffffffffffffffffffffffffffffffffffffffff1681526020019060010190808311610ece575b505050505090509450945094509450509193509193565b60008073ffffffffffffffffffffffffffffffffffffffff16600383604051610f589190611b0a565b908152602001604051809103902060030160009054906101000a900473ffffffffffffffffffffffffffffffffffffffff1673ffffffffffffffffffffffffffffffffffffffff1614159050919050565b6000600183604051610fbb9190611b0a565b908152602001604051809103902060008373ffffffffffffffffffffffffffffffffffffffff1673ffffffffffffffffffffffffffffffffffffffff16815260200190815260200160002060009054906101000a900460ff16905092915050565b6060600073ffffffffffffffffffffffffffffffffffffffff168273ffffffffffffffffffffffffffffffffffffffff160361108d576040517f08c379a00000000000000000000000000000000000000000000000000000000081526004016110849061235a565b60405180910390fd5b60006040518060200160405280600081525090506000805b6005805490508110156112915760006004600583815481106110ca576110c9611fec565b5b906000526020600020016040516110e1919061209e565b908152602001604051809103902090508573ffffffffffffffffffffffffffffffffffffffff168160030160009054906101000a900473ffffffffffffffffffffffffffffffffffffffff1673ffffffffffffffffffffffffffffffffffffffff160361127d576111de81600201805461115a90611bbc565b80601f016020809104026020016040519081016040528092919081815260200182805461118690611bbc565b80156111d35780601f106111a8576101008083540402835291602001916111d3565b820191906000526020600020905b8154815290600101906020018083116111b657829003601f168201915b505050505033610fa9565b1561127c578060020180546111f290611bbc565b80601f016020809104026020016040519081016040528092919081815260200182805461121e90611bbc565b801561126b5780601f106112405761010080835404028352916020019161126b565b820191906000526020600020905b81548152906001019060200180831161124e57829003601f168201915b505050505093506001925050611291565b5b5080806112899061225a565b9150506110a5565b50806112d2576040517f08c379a00000000000000000000000000000000000000000000000000000000081526004016112c9906123ec565b60405180910390fd5b8192505050919050565b60006001836040516112ee9190611b0a565b908152602001604051809103902060008373ffffffffffffffffffffffffffffffffffffffff1673ffffffffffffffffffffffffffffffffffffffff16815260200190815260200160002060006101000a81548160ff0219169083151502179055505050565b600180836040516113659190611b0a565b908152602001604051809103902060008373ffffffffffffffffffffffffffffffffffffffff1673ffffffffffffffffffffffffffffffffffffffff16815260200190815260200160002060006101000a81548160ff0219169083151502179055505050565b5080546113d790611bbc565b6000825580601f106113e95750611408565b601f016020900490600052602060002090810190611407919061142c565b5b50565b5080546000825590600052602060002090810190611429919061142c565b50565b5b8082111561144557600081600090555060010161142d565b5090565b6000604051905090565b600080fd5b600080fd5b600080fd5b600080fd5b6000601f19601f8301169050919050565b7f4e487b7100000000000000000000000000000000000000000000000000000000600052604160045260246000fd5b6114b082611467565b810181811067ffffffffffffffff821117156114cf576114ce611478565b5b80604052505050565b60006114e2611449565b90506114ee82826114a7565b919050565b600067ffffffffffffffff82111561150e5761150d611478565b5b61151782611467565b9050602081019050919050565b82818337600083830152505050565b6000611546611541846114f3565b6114d8565b90508281526020810184848401111561156257611561611462565b5b61156d848285611524565b509392505050565b600082601f83011261158a5761158961145d565b5b813561159a848260208601611533565b91505092915050565b600073ffffffffffffffffffffffffffffffffffffffff82169050919050565b60006115ce826115a3565b9050919050565b6115de816115c3565b81146115e957600080fd5b50565b6000813590506115fb816115d5565b92915050565b600080600080600060a0868803121561161d5761161c611453565b5b600086013567ffffffffffffffff81111561163b5761163a611458565b5b61164788828901611575565b955050602086013567ffffffffffffffff81111561166857611667611458565b5b61167488828901611575565b945050604086013567ffffffffffffffff81111561169557611694611458565b5b6116a188828901611575565b93505060606116b2888289016115ec565b92505060806116c3888289016115ec565b9150509295509295909350565b6000602082840312156116e6576116e5611453565b5b600082013567ffffffffffffffff81111561170457611703611458565b5b61171084828501611575565b91505092915050565b60006020828403121561172f5761172e611453565b5b600061173d848285016115ec565b91505092915050565b600081519050919050565b600082825260208201905092915050565b6000819050602082019050919050565b600081519050919050565b600082825260208201905092915050565b60005b838110156117ac578082015181840152602081019050611791565b60008484015250505050565b60006117c382611772565b6117cd818561177d565b93506117dd81856020860161178e565b6117e681611467565b840191505092915050565b60006117fd83836117b8565b905092915050565b6000602082019050919050565b600061181d82611746565b6118278185611751565b93508360208202850161183985611762565b8060005b85811015611875578484038952815161185685826117f1565b945061186183611805565b925060208a0199505060018101905061183d565b50829750879550505050505092915050565b600060208201905081810360008301526118a18184611812565b905092915050565b600082825260208201905092915050565b60006118c582611772565b6118cf81856118a9565b93506118df81856020860161178e565b6118e881611467565b840191505092915050565b6118fc816115c3565b82525050565b600081519050919050565b600082825260208201905092915050565b6000819050602082019050919050565b611937816115c3565b82525050565b6000611949838361192e565b60208301905092915050565b6000602082019050919050565b600061196d82611902565b611977818561190d565b93506119828361191e565b8060005b838110156119b357815161199a888261193d565b97506119a583611955565b925050600181019050611986565b5085935050505092915050565b600060808201905081810360008301526119da81876118ba565b905081810360208301526119ee81866118ba565b90506119fd60408301856118f3565b8181036060830152611a0f8184611962565b905095945050505050565b60008115159050919050565b611a2f81611a1a565b82525050565b6000602082019050611a4a6000830184611a26565b92915050565b60008060408385031215611a6757611a66611453565b5b600083013567ffffffffffffffff811115611a8557611a84611458565b5b611a9185828601611575565b9250506020611aa2858286016115ec565b9150509250929050565b60006020820190508181036000830152611ac681846118ba565b905092915050565b600081905092915050565b6000611ae482611772565b611aee8185611ace565b9350611afe81856020860161178e565b80840191505092915050565b6000611b168284611ad9565b915081905092915050565b7f46696c652043494420616c72656164792075706c6f6164656400000000000000600082015250565b6000611b576019836118a9565b9150611b6282611b21565b602082019050919050565b60006020820190508181036000830152611b8681611b4a565b9050919050565b7f4e487b7100000000000000000000000000000000000000000000000000000000600052602260045260246000fd5b60006002820490506001821680611bd457607f821691505b602082108103611be757611be6611b8d565b5b50919050565b60008190508160005260206000209050919050565b60006020601f8301049050919050565b600082821b905092915050565b600060088302611c4f7fffffffffffffffffffffffffffffffffffffffffffffffffffffffffffffffff82611c12565b611c598683611c12565b95508019841693508086168417925050509392505050565b6000819050919050565b6000819050919050565b6000611ca0611c9b611c9684611c71565b611c7b565b611c71565b9050919050565b6000819050919050565b611cba83611c85565b611cce611cc682611ca7565b848454611c1f565b825550505050565b600090565b611ce3611cd6565b611cee818484611cb1565b505050565b5b81811015611d1257611d07600082611cdb565b600181019050611cf4565b5050565b601f821115611d5757611d2881611bed565b611d3184611c02565b81016020851015611d40578190505b611d54611d4c85611c02565b830182611cf3565b50505b505050565b600082821c905092915050565b6000611d7a60001984600802611d5c565b1980831691505092915050565b6000611d938383611d69565b9150826002028217905092915050565b611dac82611772565b67ffffffffffffffff811115611dc557611dc4611478565b5b611dcf8254611bbc565b611dda828285611d16565b600060209050601f831160018114611e0d5760008415611dfb578287015190505b611e058582611d87565b865550611e6d565b601f198416611e1b86611bed565b60005b82811015611e4357848901518255600182019150602085019450602081019050611e1e565b86831015611e605784890151611e5c601f891682611d69565b8355505b6001600288020188555050505b505050505050565b60006080820190508181036000830152611e8f81876118ba565b90508181036020830152611ea381866118ba565b9050611eb260408301856118f3565b611ebf60608301846118f3565b95945050505050565b7f4e6f2066696c65207265636f726420666f756e6420666f72207468697320434960008201527f4400000000000000000000000000000000000000000000000000000000000000602082015250565b6000611f246021836118a9565b9150611f2f82611ec8565b604082019050919050565b60006020820190508181036000830152611f5381611f17565b9050919050565b7f4f6e6c7920746865206f776e65722063616e2064656c6574652074686973206660008201527f696c65207265636f726400000000000000000000000000000000000000000000602082015250565b6000611fb6602a836118a9565b9150611fc182611f5a565b604082019050919050565b60006020820190508181036000830152611fe581611fa9565b9050919050565b7f4e487b7100000000000000000000000000000000000000000000000000000000600052603260045260246000fd5b6000815461202881611bbc565b6120328186611ace565b9450600182166000811461204d576001811461206257612095565b60ff1983168652811515820286019350612095565b61206b85611bed565b60005b8381101561208d5781548189015260018201915060208101905061206e565b838801955050505b50505092915050565b60006120aa828461201b565b915081905092915050565b7f4e487b7100000000000000000000000000000000000000000000000000000000600052601160045260246000fd5b60006120ef82611c71565b91506120fa83611c71565b9250828203905081811115612112576121116120b5565b5b92915050565b60008154905061212781611bbc565b9050919050565b60008190508160005260206000209050919050565b818103612151575050612229565b61215a82612118565b67ffffffffffffffff81111561217357612172611478565b5b61217d8254611bbc565b612188828285611d16565b6000601f8311600181146121b757600084156121a5578287015490505b6121af8582611d87565b865550612222565b601f1984166121c58761212e565b96506121d086611bed565b60005b828110156121f8578489015482556001820191506001850194506020810190506121d3565b868310156122155784890154612211601f891682611d69565b8355505b6001600288020188555050505b5050505050505b565b7f4e487b7100000000000000000000000000000000000000000000000000000000600052603160045260246000fd5b600061226582611c71565b91507fffffffffffffffffffffffffffffffffffffffffffffffffffffffffffffffff8203612297576122966120b5565b5b600182019050919050565b7f46696c652043494420646f6573206e6f74206578697374000000000000000000600082015250565b60006122d86017836118a9565b91506122e3826122a2565b602082019050919050565b60006020820190508181036000830152612307816122cb565b9050919050565b7f496e76616c69642075706c6f6164657220616464726573730000000000000000600082015250565b60006123446018836118a9565b915061234f8261230e565b602082019050919050565b6000602082019050818103600083015261237381612337565b9050919050565b7f5573657220646f6573206e6f7420686176652061636365737320746f20616e7960008201527f204349442075706c6f61646564206279207468652075706c6f61646572000000602082015250565b60006123d6603d836118a9565b91506123e18261237a565b604082019050919050565b60006020820190508181036000830152612405816123c9565b905091905056fea2646970667358221220cf3a45c77cee49698dea1146ac64c3659568c5f6f3e2c12f03dededf5bcc9d0c64736f6c63430008130033","opcodes":"PUSH1 0x80 PUSH1 0x40 MSTORE CALLVALUE DUP1 ISZERO PUSH2 0x10 JUMPI PUSH1 0x0 DUP1 REVERT JUMPDEST POP CALLER PUSH1 0x0 DUP1 PUSH2 0x100 EXP DUP2 SLOAD DUP2 PUSH20 0xFFFFFFFFFFFFFFFFFFFFFFFFFFFFFFFFFFFFFFFF MUL NOT AND SWAP1 DUP4 PUSH20 0xFFFFFFFFFFFFFFFFFFFFFFFFFFFFFFFFFFFFFFFF AND MUL OR SWAP1 SSTORE POP PUSH2 0x2442 DUP1 PUSH2 0x60 PUSH1 0x0 CODECOPY PUSH1 0x0 RETURN INVALID PUSH1 0x80 PUSH1 0x40 MSTORE CALLVALUE DUP1 ISZERO PUSH2 0x10 JUMPI PUSH1 0x0 DUP1 REVERT JUMPDEST POP PUSH1 0x4 CALLDATASIZE LT PUSH2 0x93 JUMPI PUSH1 0x0 CALLDATALOAD PUSH1 0xE0 SHR DUP1 PUSH4 0xA77015D1 GT PUSH2 0x66 JUMPI DUP1 PUSH4 0xA77015D1 EQ PUSH2 0x133 JUMPI DUP1 PUSH4 0xB7EF5BAF EQ PUSH2 0x163 JUMPI DUP1 PUSH4 0xD3419723 EQ PUSH2 0x193 JUMPI DUP1 PUSH4 0xDFE0B5FE EQ PUSH2 0x1C3 JUMPI DUP1 PUSH4 0xF37C215E EQ PUSH2 0x1DF JUMPI PUSH2 0x93 JUMP JUMPDEST DUP1 PUSH4 0x27EE6F23 EQ PUSH2 0x98 JUMPI DUP1 PUSH4 0x34B35F16 EQ PUSH2 0xB4 JUMPI DUP1 PUSH4 0x9939FBA6 EQ PUSH2 0xD0 JUMPI DUP1 PUSH4 0xA1081130 EQ PUSH2 0x100 JUMPI JUMPDEST PUSH1 0x0 DUP1 REVERT JUMPDEST PUSH2 0xB2 PUSH1 0x4 DUP1 CALLDATASIZE SUB DUP2 ADD SWAP1 PUSH2 0xAD SWAP2 SWAP1 PUSH2 0x1601 JUMP JUMPDEST PUSH2 0x1FB JUMP JUMPDEST STOP JUMPDEST PUSH2 0xCE PUSH1 0x4 DUP1 CALLDATASIZE SUB DUP2 ADD SWAP1 PUSH2 0xC9 SWAP2 SWAP1 PUSH2 0x16D0 JUMP JUMPDEST PUSH2 0x578 JUMP JUMPDEST STOP JUMPDEST PUSH2 0xEA PUSH1 0x4 DUP1 CALLDATASIZE SUB DUP2 ADD SWAP1 PUSH2 0xE5 SWAP2 SWAP1 PUSH2 0x1719 JUMP JUMPDEST PUSH2 0xB5D JUMP JUMPDEST PUSH1 0x40 MLOAD PUSH2 0xF7 SWAP2 SWAP1 PUSH2 0x1887 JUMP JUMPDEST PUSH1 0x40 MLOAD DUP1 SWAP2 SUB SWAP1 RETURN JUMPDEST PUSH2 0x11A PUSH1 0x4 DUP1 CALLDATASIZE SUB DUP2 ADD SWAP1 PUSH2 0x115 SWAP2 SWAP1 PUSH2 0x16D0 JUMP JUMPDEST PUSH2 0xC75 JUMP JUMPDEST PUSH1 0x40 MLOAD PUSH2 0x12A SWAP5 SWAP4 SWAP3 SWAP2 SWAP1 PUSH2 0x19C0 JUMP JUMPDEST PUSH1 0x40 MLOAD DUP1 SWAP2 SUB SWAP1 RETURN JUMPDEST PUSH2 0x14D PUSH1 0x4 DUP1 CALLDATASIZE SUB DUP2 ADD SWAP1 PUSH2 0x148 SWAP2 SWAP1 PUSH2 0x16D0 JUMP JUMPDEST PUSH2 0xF2F JUMP JUMPDEST PUSH1 0x40 MLOAD PUSH2 0x15A SWAP2 SWAP1 PUSH2 0x1A35 JUMP JUMPDEST PUSH1 0x40 MLOAD DUP1 SWAP2 SUB SWAP1 RETURN JUMPDEST PUSH2 0x17D PUSH1 0x4 DUP1 CALLDATASIZE SUB DUP2 ADD SWAP1 PUSH2 0x178 SWAP2 SWAP1 PUSH2 0x1A50 JUMP JUMPDEST PUSH2 0xFA9 JUMP JUMPDEST PUSH1 0x40 MLOAD PUSH2 0x18A SWAP2 SWAP1 PUSH2 0x1A35 JUMP JUMPDEST PUSH1 0x40 MLOAD DUP1 SWAP2 SUB SWAP1 RETURN JUMPDEST PUSH2 0x1AD PUSH1 0x4 DUP1 CALLDATASIZE SUB DUP2 ADD SWAP1 PUSH2 0x1A8 SWAP2 SWAP1 PUSH2 0x1719 JUMP JUMPDEST PUSH2 0x101C JUMP JUMPDEST PUSH1 0x40 MLOAD PUSH2 0x1BA SWAP2 SWAP1 PUSH2 0x1AAC JUMP JUMPDEST PUSH1 0x40 MLOAD DUP1 SWAP2 SUB SWAP1 RETURN JUMPDEST PUSH2 0x1DD PUSH1 0x4 DUP1 CALLDATASIZE SUB DUP2 ADD SWAP1 PUSH2 0x1D8 SWAP2 SWAP1 PUSH2 0x1A50 JUMP JUMPDEST PUSH2 0x12DC JUMP JUMPDEST STOP JUMPDEST PUSH2 0x1F9 PUSH1 0x4 DUP1 CALLDATASIZE SUB DUP2 ADD SWAP1 PUSH2 0x1F4 SWAP2 SWAP1 PUSH2 0x1A50 JUMP JUMPDEST PUSH2 0x1354 JUMP JUMPDEST STOP JUMPDEST PUSH1 0x0 PUSH20 0xFFFFFFFFFFFFFFFFFFFFFFFFFFFFFFFFFFFFFFFF AND PUSH1 0x4 DUP5 PUSH1 0x40 MLOAD PUSH2 0x223 SWAP2 SWAP1 PUSH2 0x1B0A JUMP JUMPDEST SWAP1 DUP2 MSTORE PUSH1 0x20 ADD PUSH1 0x40 MLOAD DUP1 SWAP2 SUB SWAP1 KECCAK256 PUSH1 0x3 ADD PUSH1 0x0 SWAP1 SLOAD SWAP1 PUSH2 0x100 EXP SWAP1 DIV PUSH20 0xFFFFFFFFFFFFFFFFFFFFFFFFFFFFFFFFFFFFFFFF AND PUSH20 0xFFFFFFFFFFFFFFFFFFFFFFFFFFFFFFFFFFFFFFFF AND EQ PUSH2 0x2AB JUMPI PUSH1 0x40 MLOAD PUSH32 0x8C379A000000000000000000000000000000000000000000000000000000000 DUP2 MSTORE PUSH1 0x4 ADD PUSH2 0x2A2 SWAP1 PUSH2 0x1B6D JUMP JUMPDEST PUSH1 0x40 MLOAD DUP1 SWAP2 SUB SWAP1 REVERT JUMPDEST DUP5 PUSH1 0x4 DUP5 PUSH1 0x40 MLOAD PUSH2 0x2BC SWAP2 SWAP1 PUSH2 0x1B0A JUMP JUMPDEST SWAP1 DUP2 MSTORE PUSH1 0x20 ADD PUSH1 0x40 MLOAD DUP1 SWAP2 SUB SWAP1 KECCAK256 PUSH1 0x0 ADD SWAP1 DUP2 PUSH2 0x2D9 SWAP2 SWAP1 PUSH2 0x1DA3 JUMP JUMPDEST POP DUP4 PUSH1 0x4 DUP5 PUSH1 0x40 MLOAD PUSH2 0x2EB SWAP2 SWAP1 PUSH2 0x1B0A JUMP JUMPDEST SWAP1 DUP2 MSTORE PUSH1 0x20 ADD PUSH1 0x40 MLOAD DUP1 SWAP2 SUB SWAP1 KECCAK256 PUSH1 0x1 ADD SWAP1 DUP2 PUSH2 0x308 SWAP2 SWAP1 PUSH2 0x1DA3 JUMP JUMPDEST POP DUP3 PUSH1 0x4 DUP5 PUSH1 0x40 MLOAD PUSH2 0x31A SWAP2 SWAP1 PUSH2 0x1B0A JUMP JUMPDEST SWAP1 DUP2 MSTORE PUSH1 0x20 ADD PUSH1 0x40 MLOAD DUP1 SWAP2 SUB SWAP1 KECCAK256 PUSH1 0x2 ADD SWAP1 DUP2 PUSH2 0x337 SWAP2 SWAP1 PUSH2 0x1DA3 JUMP JUMPDEST POP CALLER PUSH1 0x4 DUP5 PUSH1 0x40 MLOAD PUSH2 0x349 SWAP2 SWAP1 PUSH2 0x1B0A JUMP JUMPDEST SWAP1 DUP2 MSTORE PUSH1 0x20 ADD PUSH1 0x40 MLOAD DUP1 SWAP2 SUB SWAP1 KECCAK256 PUSH1 0x3 ADD PUSH1 0x0 PUSH2 0x100 EXP DUP2 SLOAD DUP2 PUSH20 0xFFFFFFFFFFFFFFFFFFFFFFFFFFFFFFFFFFFFFFFF MUL NOT AND SWAP1 DUP4 PUSH20 0xFFFFFFFFFFFFFFFFFFFFFFFFFFFFFFFFFFFFFFFF AND MUL OR SWAP1 SSTORE POP PUSH1 0x4 DUP4 PUSH1 0x40 MLOAD PUSH2 0x3A8 SWAP2 SWAP1 PUSH2 0x1B0A JUMP JUMPDEST SWAP1 DUP2 MSTORE PUSH1 0x20 ADD PUSH1 0x40 MLOAD DUP1 SWAP2 SUB SWAP1 KECCAK256 PUSH1 0x4 ADD DUP2 SWAP1 DUP1 PUSH1 0x1 DUP2 SLOAD ADD DUP1 DUP3 SSTORE DUP1 SWAP2 POP POP PUSH1 0x1 SWAP1 SUB SWAP1 PUSH1 0x0 MSTORE PUSH1 0x20 PUSH1 0x0 KECCAK256 ADD PUSH1 0x0 SWAP1 SWAP2 SWAP1 SWAP2 SWAP1 SWAP2 PUSH2 0x100 EXP DUP2 SLOAD DUP2 PUSH20 0xFFFFFFFFFFFFFFFFFFFFFFFFFFFFFFFFFFFFFFFF MUL NOT AND SWAP1 DUP4 PUSH20 0xFFFFFFFFFFFFFFFFFFFFFFFFFFFFFFFFFFFFFFFF AND MUL OR SWAP1 SSTORE POP PUSH1 0x1 DUP1 DUP5 PUSH1 0x40 MLOAD PUSH2 0x42B SWAP2 SWAP1 PUSH2 0x1B0A JUMP JUMPDEST SWAP1 DUP2 MSTORE PUSH1 0x20 ADD PUSH1 0x40 MLOAD DUP1 SWAP2 SUB SWAP1 KECCAK256 PUSH1 0x0 DUP5 PUSH20 0xFFFFFFFFFFFFFFFFFFFFFFFFFFFFFFFFFFFFFFFF AND PUSH20 0xFFFFFFFFFFFFFFFFFFFFFFFFFFFFFFFFFFFFFFFF AND DUP2 MSTORE PUSH1 0x20 ADD SWAP1 DUP2 MSTORE PUSH1 0x20 ADD PUSH1 0x0 KECCAK256 PUSH1 0x0 PUSH2 0x100 EXP DUP2 SLOAD DUP2 PUSH1 0xFF MUL NOT AND SWAP1 DUP4 ISZERO ISZERO MUL OR SWAP1 SSTORE POP PUSH1 0x5 DUP4 SWAP1 DUP1 PUSH1 0x1 DUP2 SLOAD ADD DUP1 DUP3 SSTORE DUP1 SWAP2 POP POP PUSH1 0x1 SWAP1 SUB SWAP1 PUSH1 0x0 MSTORE PUSH1 0x20 PUSH1 0x0 KECCAK256 ADD PUSH1 0x0 SWAP1 SWAP2 SWAP1 SWAP2 SWAP1 SWAP2 POP SWAP1 DUP2 PUSH2 0x4C1 SWAP2 SWAP1 PUSH2 0x1DA3 JUMP JUMPDEST POP PUSH1 0x2 PUSH1 0x0 CALLER PUSH20 0xFFFFFFFFFFFFFFFFFFFFFFFFFFFFFFFFFFFFFFFF AND PUSH20 0xFFFFFFFFFFFFFFFFFFFFFFFFFFFFFFFFFFFFFFFF AND DUP2 MSTORE PUSH1 0x20 ADD SWAP1 DUP2 MSTORE PUSH1 0x20 ADD PUSH1 0x0 KECCAK256 DUP4 SWAP1 DUP1 PUSH1 0x1 DUP2 SLOAD ADD DUP1 DUP3 SSTORE DUP1 SWAP2 POP POP PUSH1 0x1 SWAP1 SUB SWAP1 PUSH1 0x0 MSTORE PUSH1 0x20 PUSH1 0x0 KECCAK256 ADD PUSH1 0x0 SWAP1 SWAP2 SWAP1 SWAP2 SWAP1 SWAP2 POP SWAP1 DUP2 PUSH2 0x533 SWAP2 SWAP1 PUSH2 0x1DA3 JUMP JUMPDEST POP PUSH32 0x32BB5A8ABA375CB6F693E852FF2876EC292FA25FCF83F2F87DBE417EDF2C5310 DUP5 DUP5 DUP5 DUP5 PUSH1 0x40 MLOAD PUSH2 0x569 SWAP5 SWAP4 SWAP3 SWAP2 SWAP1 PUSH2 0x1E75 JUMP JUMPDEST PUSH1 0x40 MLOAD DUP1 SWAP2 SUB SWAP1 LOG1 POP POP POP POP POP JUMP JUMPDEST PUSH1 0x0 PUSH20 0xFFFFFFFFFFFFFFFFFFFFFFFFFFFFFFFFFFFFFFFF AND PUSH1 0x4 DUP3 PUSH1 0x40 MLOAD PUSH2 0x5A0 SWAP2 SWAP1 PUSH2 0x1B0A JUMP JUMPDEST SWAP1 DUP2 MSTORE PUSH1 0x20 ADD PUSH1 0x40 MLOAD DUP1 SWAP2 SUB SWAP1 KECCAK256 PUSH1 0x3 ADD PUSH1 0x0 SWAP1 SLOAD SWAP1 PUSH2 0x100 EXP SWAP1 DIV PUSH20 0xFFFFFFFFFFFFFFFFFFFFFFFFFFFFFFFFFFFFFFFF AND PUSH20 0xFFFFFFFFFFFFFFFFFFFFFFFFFFFFFFFFFFFFFFFF AND SUB PUSH2 0x628 JUMPI PUSH1 0x40 MLOAD PUSH32 0x8C379A000000000000000000000000000000000000000000000000000000000 DUP2 MSTORE PUSH1 0x4 ADD PUSH2 0x61F SWAP1 PUSH2 0x1F3A JUMP JUMPDEST PUSH1 0x40 MLOAD DUP1 SWAP2 SUB SWAP1 REVERT JUMPDEST CALLER PUSH20 0xFFFFFFFFFFFFFFFFFFFFFFFFFFFFFFFFFFFFFFFF AND PUSH1 0x4 DUP3 PUSH1 0x40 MLOAD PUSH2 0x64F SWAP2 SWAP1 PUSH2 0x1B0A JUMP JUMPDEST SWAP1 DUP2 MSTORE PUSH1 0x20 ADD PUSH1 0x40 MLOAD DUP1 SWAP2 SUB SWAP1 KECCAK256 PUSH1 0x3 ADD PUSH1 0x0 SWAP1 SLOAD SWAP1 PUSH2 0x100 EXP SWAP1 DIV PUSH20 0xFFFFFFFFFFFFFFFFFFFFFFFFFFFFFFFFFFFFFFFF AND PUSH20 0xFFFFFFFFFFFFFFFFFFFFFFFFFFFFFFFFFFFFFFFF AND EQ PUSH2 0x6D7 JUMPI PUSH1 0x40 MLOAD PUSH32 0x8C379A000000000000000000000000000000000000000000000000000000000 DUP2 MSTORE PUSH1 0x4 ADD PUSH2 0x6CE SWAP1 PUSH2 0x1FCC JUMP JUMPDEST PUSH1 0x40 MLOAD DUP1 SWAP2 SUB SWAP1 REVERT JUMPDEST PUSH1 0x0 PUSH1 0x4 DUP3 PUSH1 0x40 MLOAD PUSH2 0x6E9 SWAP2 SWAP1 PUSH2 0x1B0A JUMP JUMPDEST SWAP1 DUP2 MSTORE PUSH1 0x20 ADD PUSH1 0x40 MLOAD DUP1 SWAP2 SUB SWAP1 KECCAK256 PUSH1 0x3 ADD PUSH1 0x0 SWAP1 SLOAD SWAP1 PUSH2 0x100 EXP SWAP1 DIV PUSH20 0xFFFFFFFFFFFFFFFFFFFFFFFFFFFFFFFFFFFFFFFF AND SWAP1 POP PUSH1 0x4 DUP3 PUSH1 0x40 MLOAD PUSH2 0x72D SWAP2 SWAP1 PUSH2 0x1B0A JUMP JUMPDEST SWAP1 DUP2 MSTORE PUSH1 0x20 ADD PUSH1 0x40 MLOAD DUP1 SWAP2 SUB SWAP1 KECCAK256 PUSH1 0x0 DUP1 DUP3 ADD PUSH1 0x0 PUSH2 0x74C SWAP2 SWAP1 PUSH2 0x13CB JUMP JUMPDEST PUSH1 0x1 DUP3 ADD PUSH1 0x0 PUSH2 0x75C SWAP2 SWAP1 PUSH2 0x13CB JUMP JUMPDEST PUSH1 0x2 DUP3 ADD PUSH1 0x0 PUSH2 0x76C SWAP2 SWAP1 PUSH2 0x13CB JUMP JUMPDEST PUSH1 0x3 DUP3 ADD PUSH1 0x0 PUSH2 0x100 EXP DUP2 SLOAD SWAP1 PUSH20 0xFFFFFFFFFFFFFFFFFFFFFFFFFFFFFFFFFFFFFFFF MUL NOT AND SWAP1 SSTORE PUSH1 0x4 DUP3 ADD PUSH1 0x0 PUSH2 0x7A3 SWAP2 SWAP1 PUSH2 0x140B JUMP JUMPDEST POP POP PUSH1 0x0 JUMPDEST PUSH1 0x5 DUP1 SLOAD SWAP1 POP DUP2 LT ISZERO PUSH2 0x8C7 JUMPI DUP3 PUSH1 0x40 MLOAD PUSH1 0x20 ADD PUSH2 0x7C6 SWAP2 SWAP1 PUSH2 0x1B0A JUMP JUMPDEST PUSH1 0x40 MLOAD PUSH1 0x20 DUP2 DUP4 SUB SUB DUP2 MSTORE SWAP1 PUSH1 0x40 MSTORE DUP1 MLOAD SWAP1 PUSH1 0x20 ADD KECCAK256 PUSH1 0x5 DUP3 DUP2 SLOAD DUP2 LT PUSH2 0x7F0 JUMPI PUSH2 0x7EF PUSH2 0x1FEC JUMP JUMPDEST JUMPDEST SWAP1 PUSH1 0x0 MSTORE PUSH1 0x20 PUSH1 0x0 KECCAK256 ADD PUSH1 0x40 MLOAD PUSH1 0x20 ADD PUSH2 0x80A SWAP2 SWAP1 PUSH2 0x209E JUMP JUMPDEST PUSH1 0x40 MLOAD PUSH1 0x20 DUP2 DUP4 SUB SUB DUP2 MSTORE SWAP1 PUSH1 0x40 MSTORE DUP1 MLOAD SWAP1 PUSH1 0x20 ADD KECCAK256 SUB PUSH2 0x8B4 JUMPI PUSH1 0x5 PUSH1 0x1 PUSH1 0x5 DUP1 SLOAD SWAP1 POP PUSH2 0x839 SWAP2 SWAP1 PUSH2 0x20E4 JUMP JUMPDEST DUP2 SLOAD DUP2 LT PUSH2 0x84A JUMPI PUSH2 0x849 PUSH2 0x1FEC JUMP JUMPDEST JUMPDEST SWAP1 PUSH1 0x0 MSTORE PUSH1 0x20 PUSH1 0x0 KECCAK256 ADD PUSH1 0x5 DUP3 DUP2 SLOAD DUP2 LT PUSH2 0x868 JUMPI PUSH2 0x867 PUSH2 0x1FEC JUMP JUMPDEST JUMPDEST SWAP1 PUSH1 0x0 MSTORE PUSH1 0x20 PUSH1 0x0 KECCAK256 ADD SWAP1 DUP2 PUSH2 0x87E SWAP2 SWAP1 PUSH2 0x2143 JUMP JUMPDEST POP PUSH1 0x5 DUP1 SLOAD DUP1 PUSH2 0x891 JUMPI PUSH2 0x890 PUSH2 0x222B JUMP JUMPDEST JUMPDEST PUSH1 0x1 SWAP1 SUB DUP2 DUP2 SWAP1 PUSH1 0x0 MSTORE PUSH1 0x20 PUSH1 0x0 KECCAK256 ADD PUSH1 0x0 PUSH2 0x8AD SWAP2 SWAP1 PUSH2 0x13CB JUMP JUMPDEST SWAP1 SSTORE PUSH2 0x8C7 JUMP JUMPDEST DUP1 DUP1 PUSH2 0x8BF SWAP1 PUSH2 0x225A JUMP JUMPDEST SWAP2 POP POP PUSH2 0x7A8 JUMP JUMPDEST POP PUSH1 0x0 JUMPDEST PUSH1 0x2 PUSH1 0x0 DUP4 PUSH20 0xFFFFFFFFFFFFFFFFFFFFFFFFFFFFFFFFFFFFFFFF AND PUSH20 0xFFFFFFFFFFFFFFFFFFFFFFFFFFFFFFFFFFFFFFFF AND DUP2 MSTORE PUSH1 0x20 ADD SWAP1 DUP2 MSTORE PUSH1 0x20 ADD PUSH1 0x0 KECCAK256 DUP1 SLOAD SWAP1 POP DUP2 LT ISZERO PUSH2 0xB58 JUMPI DUP3 PUSH1 0x40 MLOAD PUSH1 0x20 ADD PUSH2 0x926 SWAP2 SWAP1 PUSH2 0x1B0A JUMP JUMPDEST PUSH1 0x40 MLOAD PUSH1 0x20 DUP2 DUP4 SUB SUB DUP2 MSTORE SWAP1 PUSH1 0x40 MSTORE DUP1 MLOAD SWAP1 PUSH1 0x20 ADD KECCAK256 PUSH1 0x2 PUSH1 0x0 DUP5 PUSH20 0xFFFFFFFFFFFFFFFFFFFFFFFFFFFFFFFFFFFFFFFF AND PUSH20 0xFFFFFFFFFFFFFFFFFFFFFFFFFFFFFFFFFFFFFFFF AND DUP2 MSTORE PUSH1 0x20 ADD SWAP1 DUP2 MSTORE PUSH1 0x20 ADD PUSH1 0x0 KECCAK256 DUP3 DUP2 SLOAD DUP2 LT PUSH2 0x98D JUMPI PUSH2 0x98C PUSH2 0x1FEC JUMP JUMPDEST JUMPDEST SWAP1 PUSH1 0x0 MSTORE PUSH1 0x20 PUSH1 0x0 KECCAK256 ADD PUSH1 0x40 MLOAD PUSH1 0x20 ADD PUSH2 0x9A7 SWAP2 SWAP1 PUSH2 0x209E JUMP JUMPDEST PUSH1 0x40 MLOAD PUSH1 0x20 DUP2 DUP4 SUB SUB DUP2 MSTORE SWAP1 PUSH1 0x40 MSTORE DUP1 MLOAD SWAP1 PUSH1 0x20 ADD KECCAK256 SUB PUSH2 0xB45 JUMPI PUSH1 0x2 PUSH1 0x0 DUP4 PUSH20 0xFFFFFFFFFFFFFFFFFFFFFFFFFFFFFFFFFFFFFFFF AND PUSH20 0xFFFFFFFFFFFFFFFFFFFFFFFFFFFFFFFFFFFFFFFF AND DUP2 MSTORE PUSH1 0x20 ADD SWAP1 DUP2 MSTORE PUSH1 0x20 ADD PUSH1 0x0 KECCAK256 PUSH1 0x1 PUSH1 0x2 PUSH1 0x0 DUP6 PUSH20 0xFFFFFFFFFFFFFFFFFFFFFFFFFFFFFFFFFFFFFFFF AND PUSH20 0xFFFFFFFFFFFFFFFFFFFFFFFFFFFFFFFFFFFFFFFF AND DUP2 MSTORE PUSH1 0x20 ADD SWAP1 DUP2 MSTORE PUSH1 0x20 ADD PUSH1 0x0 KECCAK256 DUP1 SLOAD SWAP1 POP PUSH2 0xA50 SWAP2 SWAP1 PUSH2 0x20E4 JUMP JUMPDEST DUP2 SLOAD DUP2 LT PUSH2 0xA61 JUMPI PUSH2 0xA60 PUSH2 0x1FEC JUMP JUMPDEST JUMPDEST SWAP1 PUSH1 0x0 MSTORE PUSH1 0x20 PUSH1 0x0 KECCAK256 ADD PUSH1 0x2 PUSH1 0x0 DUP5 PUSH20 0xFFFFFFFFFFFFFFFFFFFFFFFFFFFFFFFFFFFFFFFF AND PUSH20 0xFFFFFFFFFFFFFFFFFFFFFFFFFFFFFFFFFFFFFFFF AND DUP2 MSTORE PUSH1 0x20 ADD SWAP1 DUP2 MSTORE PUSH1 0x20 ADD PUSH1 0x0 KECCAK256 DUP3 DUP2 SLOAD DUP2 LT PUSH2 0xABC JUMPI PUSH2 0xABB PUSH2 0x1FEC JUMP JUMPDEST JUMPDEST SWAP1 PUSH1 0x0 MSTORE PUSH1 0x20 PUSH1 0x0 KECCAK256 ADD SWAP1 DUP2 PUSH2 0xAD2 SWAP2 SWAP1 PUSH2 0x2143 JUMP JUMPDEST POP PUSH1 0x2 PUSH1 0x0 DUP4 PUSH20 0xFFFFFFFFFFFFFFFFFFFFFFFFFFFFFFFFFFFFFFFF AND PUSH20 0xFFFFFFFFFFFFFFFFFFFFFFFFFFFFFFFFFFFFFFFF AND DUP2 MSTORE PUSH1 0x20 ADD SWAP1 DUP2 MSTORE PUSH1 0x20 ADD PUSH1 0x0 KECCAK256 DUP1 SLOAD DUP1 PUSH2 0xB22 JUMPI PUSH2 0xB21 PUSH2 0x222B JUMP JUMPDEST JUMPDEST PUSH1 0x1 SWAP1 SUB DUP2 DUP2 SWAP1 PUSH1 0x0 MSTORE PUSH1 0x20 PUSH1 0x0 KECCAK256 ADD PUSH1 0x0 PUSH2 0xB3E SWAP2 SWAP1 PUSH2 0x13CB JUMP JUMPDEST SWAP1 SSTORE PUSH2 0xB58 JUMP JUMPDEST DUP1 DUP1 PUSH2 0xB50 SWAP1 PUSH2 0x225A JUMP JUMPDEST SWAP2 POP POP PUSH2 0x8CB JUMP JUMPDEST POP POP POP JUMP JUMPDEST PUSH1 0x60 PUSH1 0x2 PUSH1 0x0 DUP4 PUSH20 0xFFFFFFFFFFFFFFFFFFFFFFFFFFFFFFFFFFFFFFFF AND PUSH20 0xFFFFFFFFFFFFFFFFFFFFFFFFFFFFFFFFFFFFFFFF AND DUP2 MSTORE PUSH1 0x20 ADD SWAP1 DUP2 MSTORE PUSH1 0x20 ADD PUSH1 0x0 KECCAK256 DUP1 SLOAD DUP1 PUSH1 0x20 MUL PUSH1 0x20 ADD PUSH1 0x40 MLOAD SWAP1 DUP2 ADD PUSH1 0x40 MSTORE DUP1 SWAP3 SWAP2 SWAP1 DUP2 DUP2 MSTORE PUSH1 0x20 ADD PUSH1 0x0 SWAP1 JUMPDEST DUP3 DUP3 LT ISZERO PUSH2 0xC6A JUMPI DUP4 DUP3 SWAP1 PUSH1 0x0 MSTORE PUSH1 0x20 PUSH1 0x0 KECCAK256 ADD DUP1 SLOAD PUSH2 0xBDD SWAP1 PUSH2 0x1BBC JUMP JUMPDEST DUP1 PUSH1 0x1F ADD PUSH1 0x20 DUP1 SWAP2 DIV MUL PUSH1 0x20 ADD PUSH1 0x40 MLOAD SWAP1 DUP2 ADD PUSH1 0x40 MSTORE DUP1 SWAP3 SWAP2 SWAP1 DUP2 DUP2 MSTORE PUSH1 0x20 ADD DUP3 DUP1 SLOAD PUSH2 0xC09 SWAP1 PUSH2 0x1BBC JUMP JUMPDEST DUP1 ISZERO PUSH2 0xC56 JUMPI DUP1 PUSH1 0x1F LT PUSH2 0xC2B JUMPI PUSH2 0x100 DUP1 DUP4 SLOAD DIV MUL DUP4 MSTORE SWAP2 PUSH1 0x20 ADD SWAP2 PUSH2 0xC56 JUMP JUMPDEST DUP3 ADD SWAP2 SWAP1 PUSH1 0x0 MSTORE PUSH1 0x20 PUSH1 0x0 KECCAK256 SWAP1 JUMPDEST DUP2 SLOAD DUP2 MSTORE SWAP1 PUSH1 0x1 ADD SWAP1 PUSH1 0x20 ADD DUP1 DUP4 GT PUSH2 0xC39 JUMPI DUP3 SWAP1 SUB PUSH1 0x1F AND DUP3 ADD SWAP2 JUMPDEST POP POP POP POP POP DUP2 MSTORE PUSH1 0x20 ADD SWAP1 PUSH1 0x1 ADD SWAP1 PUSH2 0xBBE JUMP JUMPDEST POP POP POP POP SWAP1 POP SWAP2 SWAP1 POP JUMP JUMPDEST PUSH1 0x60 DUP1 PUSH1 0x0 PUSH1 0x60 PUSH1 0x0 PUSH20 0xFFFFFFFFFFFFFFFFFFFFFFFFFFFFFFFFFFFFFFFF AND PUSH1 0x4 DUP7 PUSH1 0x40 MLOAD PUSH2 0xCA4 SWAP2 SWAP1 PUSH2 0x1B0A JUMP JUMPDEST SWAP1 DUP2 MSTORE PUSH1 0x20 ADD PUSH1 0x40 MLOAD DUP1 SWAP2 SUB SWAP1 KECCAK256 PUSH1 0x3 ADD PUSH1 0x0 SWAP1 SLOAD SWAP1 PUSH2 0x100 EXP SWAP1 DIV PUSH20 0xFFFFFFFFFFFFFFFFFFFFFFFFFFFFFFFFFFFFFFFF AND PUSH20 0xFFFFFFFFFFFFFFFFFFFFFFFFFFFFFFFFFFFFFFFF AND SUB PUSH2 0xD2C JUMPI PUSH1 0x40 MLOAD PUSH32 0x8C379A000000000000000000000000000000000000000000000000000000000 DUP2 MSTORE PUSH1 0x4 ADD PUSH2 0xD23 SWAP1 PUSH2 0x22EE JUMP JUMPDEST PUSH1 0x40 MLOAD DUP1 SWAP2 SUB SWAP1 REVERT JUMPDEST PUSH1 0x0 PUSH1 0x4 DUP7 PUSH1 0x40 MLOAD PUSH2 0xD3E SWAP2 SWAP1 PUSH2 0x1B0A JUMP JUMPDEST SWAP1 DUP2 MSTORE PUSH1 0x20 ADD PUSH1 0x40 MLOAD DUP1 SWAP2 SUB SWAP1 KECCAK256 SWAP1 POP DUP1 PUSH1 0x0 ADD DUP2 PUSH1 0x1 ADD DUP3 PUSH1 0x3 ADD PUSH1 0x0 SWAP1 SLOAD SWAP1 PUSH2 0x100 EXP SWAP1 DIV PUSH20 0xFFFFFFFFFFFFFFFFFFFFFFFFFFFFFFFFFFFFFFFF AND DUP4 PUSH1 0x4 ADD DUP4 DUP1 SLOAD PUSH2 0xD8B SWAP1 PUSH2 0x1BBC JUMP JUMPDEST DUP1 PUSH1 0x1F ADD PUSH1 0x20 DUP1 SWAP2 DIV MUL PUSH1 0x20 ADD PUSH1 0x40 MLOAD SWAP1 DUP2 ADD PUSH1 0x40 MSTORE DUP1 SWAP3 SWAP2 SWAP1 DUP2 DUP2 MSTORE PUSH1 0x20 ADD DUP3 DUP1 SLOAD PUSH2 0xDB7 SWAP1 PUSH2 0x1BBC JUMP JUMPDEST DUP1 ISZERO PUSH2 0xE04 JUMPI DUP1 PUSH1 0x1F LT PUSH2 0xDD9 JUMPI PUSH2 0x100 DUP1 DUP4 SLOAD DIV MUL DUP4 MSTORE SWAP2 PUSH1 0x20 ADD SWAP2 PUSH2 0xE04 JUMP JUMPDEST DUP3 ADD SWAP2 SWAP1 PUSH1 0x0 MSTORE PUSH1 0x20 PUSH1 0x0 KECCAK256 SWAP1 JUMPDEST DUP2 SLOAD DUP2 MSTORE SWAP1 PUSH1 0x1 ADD SWAP1 PUSH1 0x20 ADD DUP1 DUP4 GT PUSH2 0xDE7 JUMPI DUP3 SWAP1 SUB PUSH1 0x1F AND DUP3 ADD SWAP2 JUMPDEST POP POP POP POP POP SWAP4 POP DUP3 DUP1 SLOAD PUSH2 0xE17 SWAP1 PUSH2 0x1BBC JUMP JUMPDEST DUP1 PUSH1 0x1F ADD PUSH1 0x20 DUP1 SWAP2 DIV MUL PUSH1 0x20 ADD PUSH1 0x40 MLOAD SWAP1 DUP2 ADD PUSH1 0x40 MSTORE DUP1 SWAP3 SWAP2 SWAP1 DUP2 DUP2 MSTORE PUSH1 0x20 ADD DUP3 DUP1 SLOAD PUSH2 0xE43 SWAP1 PUSH2 0x1BBC JUMP JUMPDEST DUP1 ISZERO PUSH2 0xE90 JUMPI DUP1 PUSH1 0x1F LT PUSH2 0xE65 JUMPI PUSH2 0x100 DUP1 DUP4 SLOAD DIV MUL DUP4 MSTORE SWAP2 PUSH1 0x20 ADD SWAP2 PUSH2 0xE90 JUMP JUMPDEST DUP3 ADD SWAP2 SWAP1 PUSH1 0x0 MSTORE PUSH1 0x20 PUSH1 0x0 KECCAK256 SWAP1 JUMPDEST DUP2 SLOAD DUP2 MSTORE SWAP1 PUSH1 0x1 ADD SWAP1 PUSH1 0x20 ADD DUP1 DUP4 GT PUSH2 0xE73 JUMPI DUP3 SWAP1 SUB PUSH1 0x1F AND DUP3 ADD SWAP2 JUMPDEST POP POP POP POP POP SWAP3 POP DUP1 DUP1 SLOAD DUP1 PUSH1 0x20 MUL PUSH1 0x20 ADD PUSH1 0x40 MLOAD SWAP1 DUP2 ADD PUSH1 0x40 MSTORE DUP1 SWAP3 SWAP2 SWAP1 DUP2 DUP2 MSTORE PUSH1 0x20 ADD DUP3 DUP1 SLOAD DUP1 ISZERO PUSH2 0xF18 JUMPI PUSH1 0x20 MUL DUP3 ADD SWAP2 SWAP1 PUSH1 0x0 MSTORE PUSH1 0x20 PUSH1 0x0 KECCAK256 SWAP1 JUMPDEST DUP2 PUSH1 0x0 SWAP1 SLOAD SWAP1 PUSH2 0x100 EXP SWAP1 DIV PUSH20 0xFFFFFFFFFFFFFFFFFFFFFFFFFFFFFFFFFFFFFFFF AND PUSH20 0xFFFFFFFFFFFFFFFFFFFFFFFFFFFFFFFFFFFFFFFF AND DUP2 MSTORE PUSH1 0x20 ADD SWAP1 PUSH1 0x1 ADD SWAP1 DUP1 DUP4 GT PUSH2 0xECE JUMPI JUMPDEST POP POP POP POP POP SWAP1 POP SWAP5 POP SWAP5 POP SWAP5 POP SWAP5 POP POP SWAP2 SWAP4 POP SWAP2 SWAP4 JUMP JUMPDEST PUSH1 0x0 DUP1 PUSH20 0xFFFFFFFFFFFFFFFFFFFFFFFFFFFFFFFFFFFFFFFF AND PUSH1 0x3 DUP4 PUSH1 0x40 MLOAD PUSH2 0xF58 SWAP2 SWAP1 PUSH2 0x1B0A JUMP JUMPDEST SWAP1 DUP2 MSTORE PUSH1 0x20 ADD PUSH1 0x40 MLOAD DUP1 SWAP2 SUB SWAP1 KECCAK256 PUSH1 0x3 ADD PUSH1 0x0 SWAP1 SLOAD SWAP1 PUSH2 0x100 EXP SWAP1 DIV PUSH20 0xFFFFFFFFFFFFFFFFFFFFFFFFFFFFFFFFFFFFFFFF AND PUSH20 0xFFFFFFFFFFFFFFFFFFFFFFFFFFFFFFFFFFFFFFFF AND EQ ISZERO SWAP1 POP SWAP2 SWAP1 POP JUMP JUMPDEST PUSH1 0x0 PUSH1 0x1 DUP4 PUSH1 0x40 MLOAD PUSH2 0xFBB SWAP2 SWAP1 PUSH2 0x1B0A JUMP JUMPDEST SWAP1 DUP2 MSTORE PUSH1 0x20 ADD PUSH1 0x40 MLOAD DUP1 SWAP2 SUB SWAP1 KECCAK256 PUSH1 0x0 DUP4 PUSH20 0xFFFFFFFFFFFFFFFFFFFFFFFFFFFFFFFFFFFFFFFF AND PUSH20 0xFFFFFFFFFFFFFFFFFFFFFFFFFFFFFFFFFFFFFFFF AND DUP2 MSTORE PUSH1 0x20 ADD SWAP1 DUP2 MSTORE PUSH1 0x20 ADD PUSH1 0x0 KECCAK256 PUSH1 0x0 SWAP1 SLOAD SWAP1 PUSH2 0x100 EXP SWAP1 DIV PUSH1 0xFF AND SWAP1 POP SWAP3 SWAP2 POP POP JUMP JUMPDEST PUSH1 0x60 PUSH1 0x0 PUSH20 0xFFFFFFFFFFFFFFFFFFFFFFFFFFFFFFFFFFFFFFFF AND DUP3 PUSH20 0xFFFFFFFFFFFFFFFFFFFFFFFFFFFFFFFFFFFFFFFF AND SUB PUSH2 0x108D JUMPI PUSH1 0x40 MLOAD PUSH32 0x8C379A000000000000000000000000000000000000000000000000000000000 DUP2 MSTORE PUSH1 0x4 ADD PUSH2 0x1084 SWAP1 PUSH2 0x235A JUMP JUMPDEST PUSH1 0x40 MLOAD DUP1 SWAP2 SUB SWAP1 REVERT JUMPDEST PUSH1 0x0 PUSH1 0x40 MLOAD DUP1 PUSH1 0x20 ADD PUSH1 0x40 MSTORE DUP1 PUSH1 0x0 DUP2 MSTORE POP SWAP1 POP PUSH1 0x0 DUP1 JUMPDEST PUSH1 0x5 DUP1 SLOAD SWAP1 POP DUP2 LT ISZERO PUSH2 0x1291 JUMPI PUSH1 0x0 PUSH1 0x4 PUSH1 0x5 DUP4 DUP2 SLOAD DUP2 LT PUSH2 0x10CA JUMPI PUSH2 0x10C9 PUSH2 0x1FEC JUMP JUMPDEST JUMPDEST SWAP1 PUSH1 0x0 MSTORE PUSH1 0x20 PUSH1 0x0 KECCAK256 ADD PUSH1 0x40 MLOAD PUSH2 0x10E1 SWAP2 SWAP1 PUSH2 0x209E JUMP JUMPDEST SWAP1 DUP2 MSTORE PUSH1 0x20 ADD PUSH1 0x40 MLOAD DUP1 SWAP2 SUB SWAP1 KECCAK256 SWAP1 POP DUP6 PUSH20 0xFFFFFFFFFFFFFFFFFFFFFFFFFFFFFFFFFFFFFFFF AND DUP2 PUSH1 0x3 ADD PUSH1 0x0 SWAP1 SLOAD SWAP1 PUSH2 0x100 EXP SWAP1 DIV PUSH20 0xFFFFFFFFFFFFFFFFFFFFFFFFFFFFFFFFFFFFFFFF AND PUSH20 0xFFFFFFFFFFFFFFFFFFFFFFFFFFFFFFFFFFFFFFFF AND SUB PUSH2 0x127D JUMPI PUSH2 0x11DE DUP2 PUSH1 0x2 ADD DUP1 SLOAD PUSH2 0x115A SWAP1 PUSH2 0x1BBC JUMP JUMPDEST DUP1 PUSH1 0x1F ADD PUSH1 0x20 DUP1 SWAP2 DIV MUL PUSH1 0x20 ADD PUSH1 0x40 MLOAD SWAP1 DUP2 ADD PUSH1 0x40 MSTORE DUP1 SWAP3 SWAP2 SWAP1 DUP2 DUP2 MSTORE PUSH1 0x20 ADD DUP3 DUP1 SLOAD PUSH2 0x1186 SWAP1 PUSH2 0x1BBC JUMP JUMPDEST DUP1 ISZERO PUSH2 0x11D3 JUMPI DUP1 PUSH1 0x1F LT PUSH2 0x11A8 JUMPI PUSH2 0x100 DUP1 DUP4 SLOAD DIV MUL DUP4 MSTORE SWAP2 PUSH1 0x20 ADD SWAP2 PUSH2 0x11D3 JUMP JUMPDEST DUP3 ADD SWAP2 SWAP1 PUSH1 0x0 MSTORE PUSH1 0x20 PUSH1 0x0 KECCAK256 SWAP1 JUMPDEST DUP2 SLOAD DUP2 MSTORE SWAP1 PUSH1 0x1 ADD SWAP1 PUSH1 0x20 ADD DUP1 DUP4 GT PUSH2 0x11B6 JUMPI DUP3 SWAP1 SUB PUSH1 0x1F AND DUP3 ADD SWAP2 JUMPDEST POP POP POP POP POP CALLER PUSH2 0xFA9 JUMP JUMPDEST ISZERO PUSH2 0x127C JUMPI DUP1 PUSH1 0x2 ADD DUP1 SLOAD PUSH2 0x11F2 SWAP1 PUSH2 0x1BBC JUMP JUMPDEST DUP1 PUSH1 0x1F ADD PUSH1 0x20 DUP1 SWAP2 DIV MUL PUSH1 0x20 ADD PUSH1 0x40 MLOAD SWAP1 DUP2 ADD PUSH1 0x40 MSTORE DUP1 SWAP3 SWAP2 SWAP1 DUP2 DUP2 MSTORE PUSH1 0x20 ADD DUP3 DUP1 SLOAD PUSH2 0x121E SWAP1 PUSH2 0x1BBC JUMP JUMPDEST DUP1 ISZERO PUSH2 0x126B JUMPI DUP1 PUSH1 0x1F LT PUSH2 0x1240 JUMPI PUSH2 0x100 DUP1 DUP4 SLOAD DIV MUL DUP4 MSTORE SWAP2 PUSH1 0x20 ADD SWAP2 PUSH2 0x126B JUMP JUMPDEST DUP3 ADD SWAP2 SWAP1 PUSH1 0x0 MSTORE PUSH1 0x20 PUSH1 0x0 KECCAK256 SWAP1 JUMPDEST DUP2 SLOAD DUP2 MSTORE SWAP1 PUSH1 0x1 ADD SWAP1 PUSH1 0x20 ADD DUP1 DUP4 GT PUSH2 0x124E JUMPI DUP3 SWAP1 SUB PUSH1 0x1F AND DUP3 ADD SWAP2 JUMPDEST POP POP POP POP POP SWAP4 POP PUSH1 0x1 SWAP3 POP POP PUSH2 0x1291 JUMP JUMPDEST JUMPDEST POP DUP1 DUP1 PUSH2 0x1289 SWAP1 PUSH2 0x225A JUMP JUMPDEST SWAP2 POP POP PUSH2 0x10A5 JUMP JUMPDEST POP DUP1 PUSH2 0x12D2 JUMPI PUSH1 0x40 MLOAD PUSH32 0x8C379A000000000000000000000000000000000000000000000000000000000 DUP2 MSTORE PUSH1 0x4 ADD PUSH2 0x12C9 SWAP1 PUSH2 0x23EC JUMP JUMPDEST PUSH1 0x40 MLOAD DUP1 SWAP2 SUB SWAP1 REVERT JUMPDEST DUP2 SWAP3 POP POP POP SWAP2 SWAP1 POP JUMP JUMPDEST PUSH1 0x0 PUSH1 0x1 DUP4 PUSH1 0x40 MLOAD PUSH2 0x12EE SWAP2 SWAP1 PUSH2 0x1B0A JUMP JUMPDEST SWAP1 DUP2 MSTORE PUSH1 0x20 ADD PUSH1 0x40 MLOAD DUP1 SWAP2 SUB SWAP1 KECCAK256 PUSH1 0x0 DUP4 PUSH20 0xFFFFFFFFFFFFFFFFFFFFFFFFFFFFFFFFFFFFFFFF AND PUSH20 0xFFFFFFFFFFFFFFFFFFFFFFFFFFFFFFFFFFFFFFFF AND DUP2 MSTORE PUSH1 0x20 ADD SWAP1 DUP2 MSTORE PUSH1 0x20 ADD PUSH1 0x0 KECCAK256 PUSH1 0x0 PUSH2 0x100 EXP DUP2 SLOAD DUP2 PUSH1 0xFF MUL NOT AND SWAP1 DUP4 ISZERO ISZERO MUL OR SWAP1 SSTORE POP POP POP JUMP JUMPDEST PUSH1 0x1 DUP1 DUP4 PUSH1 0x40 MLOAD PUSH2 0x1365 SWAP2 SWAP1 PUSH2 0x1B0A JUMP JUMPDEST SWAP1 DUP2 MSTORE PUSH1 0x20 ADD PUSH1 0x40 MLOAD DUP1 SWAP2 SUB SWAP1 KECCAK256 PUSH1 0x0 DUP4 PUSH20 0xFFFFFFFFFFFFFFFFFFFFFFFFFFFFFFFFFFFFFFFF AND PUSH20 0xFFFFFFFFFFFFFFFFFFFFFFFFFFFFFFFFFFFFFFFF AND DUP2 MSTORE PUSH1 0x20 ADD SWAP1 DUP2 MSTORE PUSH1 0x20 ADD PUSH1 0x0 KECCAK256 PUSH1 0x0 PUSH2 0x100 EXP DUP2 SLOAD DUP2 PUSH1 0xFF MUL NOT AND SWAP1 DUP4 ISZERO ISZERO MUL OR SWAP1 SSTORE POP POP POP JUMP JUMPDEST POP DUP1 SLOAD PUSH2 0x13D7 SWAP1 PUSH2 0x1BBC JUMP JUMPDEST PUSH1 0x0 DUP3 SSTORE DUP1 PUSH1 0x1F LT PUSH2 0x13E9 JUMPI POP PUSH2 0x1408 JUMP JUMPDEST PUSH1 0x1F ADD PUSH1 0x20 SWAP1 DIV SWAP1 PUSH1 0x0 MSTORE PUSH1 0x20 PUSH1 0x0 KECCAK256 SWAP1 DUP2 ADD SWAP1 PUSH2 0x1407 SWAP2 SWAP1 PUSH2 0x142C JUMP JUMPDEST JUMPDEST POP JUMP JUMPDEST POP DUP1 SLOAD PUSH1 0x0 DUP3 SSTORE SWAP1 PUSH1 0x0 MSTORE PUSH1 0x20 PUSH1 0x0 KECCAK256 SWAP1 DUP2 ADD SWAP1 PUSH2 0x1429 SWAP2 SWAP1 PUSH2 0x142C JUMP JUMPDEST POP JUMP JUMPDEST JUMPDEST DUP1 DUP3 GT ISZERO PUSH2 0x1445 JUMPI PUSH1 0x0 DUP2 PUSH1 0x0 SWAP1 SSTORE POP PUSH1 0x1 ADD PUSH2 0x142D JUMP JUMPDEST POP SWAP1 JUMP JUMPDEST PUSH1 0x0 PUSH1 0x40 MLOAD SWAP1 POP SWAP1 JUMP JUMPDEST PUSH1 0x0 DUP1 REVERT JUMPDEST PUSH1 0x0 DUP1 REVERT JUMPDEST PUSH1 0x0 DUP1 REVERT JUMPDEST PUSH1 0x0 DUP1 REVERT JUMPDEST PUSH1 0x0 PUSH1 0x1F NOT PUSH1 0x1F DUP4 ADD AND SWAP1 POP SWAP2 SWAP1 POP JUMP JUMPDEST PUSH32 0x4E487B7100000000000000000000000000000000000000000000000000000000 PUSH1 0x0 MSTORE PUSH1 0x41 PUSH1 0x4 MSTORE PUSH1 0x24 PUSH1 0x0 REVERT JUMPDEST PUSH2 0x14B0 DUP3 PUSH2 0x1467 JUMP JUMPDEST DUP2 ADD DUP2 DUP2 LT PUSH8 0xFFFFFFFFFFFFFFFF DUP3 GT OR ISZERO PUSH2 0x14CF JUMPI PUSH2 0x14CE PUSH2 0x1478 JUMP JUMPDEST JUMPDEST DUP1 PUSH1 0x40 MSTORE POP POP POP JUMP JUMPDEST PUSH1 0x0 PUSH2 0x14E2 PUSH2 0x1449 JUMP JUMPDEST SWAP1 POP PUSH2 0x14EE DUP3 DUP3 PUSH2 0x14A7 JUMP JUMPDEST SWAP2 SWAP1 POP JUMP JUMPDEST PUSH1 0x0 PUSH8 0xFFFFFFFFFFFFFFFF DUP3 GT ISZERO PUSH2 0x150E JUMPI PUSH2 0x150D PUSH2 0x1478 JUMP JUMPDEST JUMPDEST PUSH2 0x1517 DUP3 PUSH2 0x1467 JUMP JUMPDEST SWAP1 POP PUSH1 0x20 DUP2 ADD SWAP1 POP SWAP2 SWAP1 POP JUMP JUMPDEST DUP3 DUP2 DUP4 CALLDATACOPY PUSH1 0x0 DUP4 DUP4 ADD MSTORE POP POP POP JUMP JUMPDEST PUSH1 0x0 PUSH2 0x1546 PUSH2 0x1541 DUP5 PUSH2 0x14F3 JUMP JUMPDEST PUSH2 0x14D8 JUMP JUMPDEST SWAP1 POP DUP3 DUP2 MSTORE PUSH1 0x20 DUP2 ADD DUP5 DUP5 DUP5 ADD GT ISZERO PUSH2 0x1562 JUMPI PUSH2 0x1561 PUSH2 0x1462 JUMP JUMPDEST JUMPDEST PUSH2 0x156D DUP5 DUP3 DUP6 PUSH2 0x1524 JUMP JUMPDEST POP SWAP4 SWAP3 POP POP POP JUMP JUMPDEST PUSH1 0x0 DUP3 PUSH1 0x1F DUP4 ADD SLT PUSH2 0x158A JUMPI PUSH2 0x1589 PUSH2 0x145D JUMP JUMPDEST JUMPDEST DUP2 CALLDATALOAD PUSH2 0x159A DUP5 DUP3 PUSH1 0x20 DUP7 ADD PUSH2 0x1533 JUMP JUMPDEST SWAP2 POP POP SWAP3 SWAP2 POP POP JUMP JUMPDEST PUSH1 0x0 PUSH20 0xFFFFFFFFFFFFFFFFFFFFFFFFFFFFFFFFFFFFFFFF DUP3 AND SWAP1 POP SWAP2 SWAP1 POP JUMP JUMPDEST PUSH1 0x0 PUSH2 0x15CE DUP3 PUSH2 0x15A3 JUMP JUMPDEST SWAP1 POP SWAP2 SWAP1 POP JUMP JUMPDEST PUSH2 0x15DE DUP2 PUSH2 0x15C3 JUMP JUMPDEST DUP2 EQ PUSH2 0x15E9 JUMPI PUSH1 0x0 DUP1 REVERT JUMPDEST POP JUMP JUMPDEST PUSH1 0x0 DUP2 CALLDATALOAD SWAP1 POP PUSH2 0x15FB DUP2 PUSH2 0x15D5 JUMP JUMPDEST SWAP3 SWAP2 POP POP JUMP JUMPDEST PUSH1 0x0 DUP1 PUSH1 0x0 DUP1 PUSH1 0x0 PUSH1 0xA0 DUP7 DUP9 SUB SLT ISZERO PUSH2 0x161D JUMPI PUSH2 0x161C PUSH2 0x1453 JUMP JUMPDEST JUMPDEST PUSH1 0x0 DUP7 ADD CALLDATALOAD PUSH8 0xFFFFFFFFFFFFFFFF DUP2 GT ISZERO PUSH2 0x163B JUMPI PUSH2 0x163A PUSH2 0x1458 JUMP JUMPDEST JUMPDEST PUSH2 0x1647 DUP9 DUP3 DUP10 ADD PUSH2 0x1575 JUMP JUMPDEST SWAP6 POP POP PUSH1 0x20 DUP7 ADD CALLDATALOAD PUSH8 0xFFFFFFFFFFFFFFFF DUP2 GT ISZERO PUSH2 0x1668 JUMPI PUSH2 0x1667 PUSH2 0x1458 JUMP JUMPDEST JUMPDEST PUSH2 0x1674 DUP9 DUP3 DUP10 ADD PUSH2 0x1575 JUMP JUMPDEST SWAP5 POP POP PUSH1 0x40 DUP7 ADD CALLDATALOAD PUSH8 0xFFFFFFFFFFFFFFFF DUP2 GT ISZERO PUSH2 0x1695 JUMPI PUSH2 0x1694 PUSH2 0x1458 JUMP JUMPDEST JUMPDEST PUSH2 0x16A1 DUP9 DUP3 DUP10 ADD PUSH2 0x1575 JUMP JUMPDEST SWAP4 POP POP PUSH1 0x60 PUSH2 0x16B2 DUP9 DUP3 DUP10 ADD PUSH2 0x15EC JUMP JUMPDEST SWAP3 POP POP PUSH1 0x80 PUSH2 0x16C3 DUP9 DUP3 DUP10 ADD PUSH2 0x15EC JUMP JUMPDEST SWAP2 POP POP SWAP3 SWAP6 POP SWAP3 SWAP6 SWAP1 SWAP4 POP JUMP JUMPDEST PUSH1 0x0 PUSH1 0x20 DUP3 DUP5 SUB SLT ISZERO PUSH2 0x16E6 JUMPI PUSH2 0x16E5 PUSH2 0x1453 JUMP JUMPDEST JUMPDEST PUSH1 0x0 DUP3 ADD CALLDATALOAD PUSH8 0xFFFFFFFFFFFFFFFF DUP2 GT ISZERO PUSH2 0x1704 JUMPI PUSH2 0x1703 PUSH2 0x1458 JUMP JUMPDEST JUMPDEST PUSH2 0x1710 DUP5 DUP3 DUP6 ADD PUSH2 0x1575 JUMP JUMPDEST SWAP2 POP POP SWAP3 SWAP2 POP POP JUMP JUMPDEST PUSH1 0x0 PUSH1 0x20 DUP3 DUP5 SUB SLT ISZERO PUSH2 0x172F JUMPI PUSH2 0x172E PUSH2 0x1453 JUMP JUMPDEST JUMPDEST PUSH1 0x0 PUSH2 0x173D DUP5 DUP3 DUP6 ADD PUSH2 0x15EC JUMP JUMPDEST SWAP2 POP POP SWAP3 SWAP2 POP POP JUMP JUMPDEST PUSH1 0x0 DUP2 MLOAD SWAP1 POP SWAP2 SWAP1 POP JUMP JUMPDEST PUSH1 0x0 DUP3 DUP3 MSTORE PUSH1 0x20 DUP3 ADD SWAP1 POP SWAP3 SWAP2 POP POP JUMP JUMPDEST PUSH1 0x0 DUP2 SWAP1 POP PUSH1 0x20 DUP3 ADD SWAP1 POP SWAP2 SWAP1 POP JUMP JUMPDEST PUSH1 0x0 DUP2 MLOAD SWAP1 POP SWAP2 SWAP1 POP JUMP JUMPDEST PUSH1 0x0 DUP3 DUP3 MSTORE PUSH1 0x20 DUP3 ADD SWAP1 POP SWAP3 SWAP2 POP POP JUMP JUMPDEST PUSH1 0x0 JUMPDEST DUP4 DUP2 LT ISZERO PUSH2 0x17AC JUMPI DUP1 DUP3 ADD MLOAD DUP2 DUP5 ADD MSTORE PUSH1 0x20 DUP2 ADD SWAP1 POP PUSH2 0x1791 JUMP JUMPDEST PUSH1 0x0 DUP5 DUP5 ADD MSTORE POP POP POP POP JUMP JUMPDEST PUSH1 0x0 PUSH2 0x17C3 DUP3 PUSH2 0x1772 JUMP JUMPDEST PUSH2 0x17CD DUP2 DUP6 PUSH2 0x177D JUMP JUMPDEST SWAP4 POP PUSH2 0x17DD DUP2 DUP6 PUSH1 0x20 DUP7 ADD PUSH2 0x178E JUMP JUMPDEST PUSH2 0x17E6 DUP2 PUSH2 0x1467 JUMP JUMPDEST DUP5 ADD SWAP2 POP POP SWAP3 SWAP2 POP POP JUMP JUMPDEST PUSH1 0x0 PUSH2 0x17FD DUP4 DUP4 PUSH2 0x17B8 JUMP JUMPDEST SWAP1 POP SWAP3 SWAP2 POP POP JUMP JUMPDEST PUSH1 0x0 PUSH1 0x20 DUP3 ADD SWAP1 POP SWAP2 SWAP1 POP JUMP JUMPDEST PUSH1 0x0 PUSH2 0x181D DUP3 PUSH2 0x1746 JUMP JUMPDEST PUSH2 0x1827 DUP2 DUP6 PUSH2 0x1751 JUMP JUMPDEST SWAP4 POP DUP4 PUSH1 0x20 DUP3 MUL DUP6 ADD PUSH2 0x1839 DUP6 PUSH2 0x1762 JUMP JUMPDEST DUP1 PUSH1 0x0 JUMPDEST DUP6 DUP2 LT ISZERO PUSH2 0x1875 JUMPI DUP5 DUP5 SUB DUP10 MSTORE DUP2 MLOAD PUSH2 0x1856 DUP6 DUP3 PUSH2 0x17F1 JUMP JUMPDEST SWAP5 POP PUSH2 0x1861 DUP4 PUSH2 0x1805 JUMP JUMPDEST SWAP3 POP PUSH1 0x20 DUP11 ADD SWAP10 POP POP PUSH1 0x1 DUP2 ADD SWAP1 POP PUSH2 0x183D JUMP JUMPDEST POP DUP3 SWAP8 POP DUP8 SWAP6 POP POP POP POP POP POP SWAP3 SWAP2 POP POP JUMP JUMPDEST PUSH1 0x0 PUSH1 0x20 DUP3 ADD SWAP1 POP DUP2 DUP2 SUB PUSH1 0x0 DUP4 ADD MSTORE PUSH2 0x18A1 DUP2 DUP5 PUSH2 0x1812 JUMP JUMPDEST SWAP1 POP SWAP3 SWAP2 POP POP JUMP JUMPDEST PUSH1 0x0 DUP3 DUP3 MSTORE PUSH1 0x20 DUP3 ADD SWAP1 POP SWAP3 SWAP2 POP POP JUMP JUMPDEST PUSH1 0x0 PUSH2 0x18C5 DUP3 PUSH2 0x1772 JUMP JUMPDEST PUSH2 0x18CF DUP2 DUP6 PUSH2 0x18A9 JUMP JUMPDEST SWAP4 POP PUSH2 0x18DF DUP2 DUP6 PUSH1 0x20 DUP7 ADD PUSH2 0x178E JUMP JUMPDEST PUSH2 0x18E8 DUP2 PUSH2 0x1467 JUMP JUMPDEST DUP5 ADD SWAP2 POP POP SWAP3 SWAP2 POP POP JUMP JUMPDEST PUSH2 0x18FC DUP2 PUSH2 0x15C3 JUMP JUMPDEST DUP3 MSTORE POP POP JUMP JUMPDEST PUSH1 0x0 DUP2 MLOAD SWAP1 POP SWAP2 SWAP1 POP JUMP JUMPDEST PUSH1 0x0 DUP3 DUP3 MSTORE PUSH1 0x20 DUP3 ADD SWAP1 POP SWAP3 SWAP2 POP POP JUMP JUMPDEST PUSH1 0x0 DUP2 SWAP1 POP PUSH1 0x20 DUP3 ADD SWAP1 POP SWAP2 SWAP1 POP JUMP JUMPDEST PUSH2 0x1937 DUP2 PUSH2 0x15C3 JUMP JUMPDEST DUP3 MSTORE POP POP JUMP JUMPDEST PUSH1 0x0 PUSH2 0x1949 DUP4 DUP4 PUSH2 0x192E JUMP JUMPDEST PUSH1 0x20 DUP4 ADD SWAP1 POP SWAP3 SWAP2 POP POP JUMP JUMPDEST PUSH1 0x0 PUSH1 0x20 DUP3 ADD SWAP1 POP SWAP2 SWAP1 POP JUMP JUMPDEST PUSH1 0x0 PUSH2 0x196D DUP3 PUSH2 0x1902 JUMP JUMPDEST PUSH2 0x1977 DUP2 DUP6 PUSH2 0x190D JUMP JUMPDEST SWAP4 POP PUSH2 0x1982 DUP4 PUSH2 0x191E JUMP JUMPDEST DUP1 PUSH1 0x0 JUMPDEST DUP4 DUP2 LT ISZERO PUSH2 0x19B3 JUMPI DUP2 MLOAD PUSH2 0x199A DUP9 DUP3 PUSH2 0x193D JUMP JUMPDEST SWAP8 POP PUSH2 0x19A5 DUP4 PUSH2 0x1955 JUMP JUMPDEST SWAP3 POP POP PUSH1 0x1 DUP2 ADD SWAP1 POP PUSH2 0x1986 JUMP JUMPDEST POP DUP6 SWAP4 POP POP POP POP SWAP3 SWAP2 POP POP JUMP JUMPDEST PUSH1 0x0 PUSH1 0x80 DUP3 ADD SWAP1 POP DUP2 DUP2 SUB PUSH1 0x0 DUP4 ADD MSTORE PUSH2 0x19DA DUP2 DUP8 PUSH2 0x18BA JUMP JUMPDEST SWAP1 POP DUP2 DUP2 SUB PUSH1 0x20 DUP4 ADD MSTORE PUSH2 0x19EE DUP2 DUP7 PUSH2 0x18BA JUMP JUMPDEST SWAP1 POP PUSH2 0x19FD PUSH1 0x40 DUP4 ADD DUP6 PUSH2 0x18F3 JUMP JUMPDEST DUP2 DUP2 SUB PUSH1 0x60 DUP4 ADD MSTORE PUSH2 0x1A0F DUP2 DUP5 PUSH2 0x1962 JUMP JUMPDEST SWAP1 POP SWAP6 SWAP5 POP POP POP POP POP JUMP JUMPDEST PUSH1 0x0 DUP2 ISZERO ISZERO SWAP1 POP SWAP2 SWAP1 POP JUMP JUMPDEST PUSH2 0x1A2F DUP2 PUSH2 0x1A1A JUMP JUMPDEST DUP3 MSTORE POP POP JUMP JUMPDEST PUSH1 0x0 PUSH1 0x20 DUP3 ADD SWAP1 POP PUSH2 0x1A4A PUSH1 0x0 DUP4 ADD DUP5 PUSH2 0x1A26 JUMP JUMPDEST SWAP3 SWAP2 POP POP JUMP JUMPDEST PUSH1 0x0 DUP1 PUSH1 0x40 DUP4 DUP6 SUB SLT ISZERO PUSH2 0x1A67 JUMPI PUSH2 0x1A66 PUSH2 0x1453 JUMP JUMPDEST JUMPDEST PUSH1 0x0 DUP4 ADD CALLDATALOAD PUSH8 0xFFFFFFFFFFFFFFFF DUP2 GT ISZERO PUSH2 0x1A85 JUMPI PUSH2 0x1A84 PUSH2 0x1458 JUMP JUMPDEST JUMPDEST PUSH2 0x1A91 DUP6 DUP3 DUP7 ADD PUSH2 0x1575 JUMP JUMPDEST SWAP3 POP POP PUSH1 0x20 PUSH2 0x1AA2 DUP6 DUP3 DUP7 ADD PUSH2 0x15EC JUMP JUMPDEST SWAP2 POP POP SWAP3 POP SWAP3 SWAP1 POP JUMP JUMPDEST PUSH1 0x0 PUSH1 0x20 DUP3 ADD SWAP1 POP DUP2 DUP2 SUB PUSH1 0x0 DUP4 ADD MSTORE PUSH2 0x1AC6 DUP2 DUP5 PUSH2 0x18BA JUMP JUMPDEST SWAP1 POP SWAP3 SWAP2 POP POP JUMP JUMPDEST PUSH1 0x0 DUP2 SWAP1 POP SWAP3 SWAP2 POP POP JUMP JUMPDEST PUSH1 0x0 PUSH2 0x1AE4 DUP3 PUSH2 0x1772 JUMP JUMPDEST PUSH2 0x1AEE DUP2 DUP6 PUSH2 0x1ACE JUMP JUMPDEST SWAP4 POP PUSH2 0x1AFE DUP2 DUP6 PUSH1 0x20 DUP7 ADD PUSH2 0x178E JUMP JUMPDEST DUP1 DUP5 ADD SWAP2 POP POP SWAP3 SWAP2 POP POP JUMP JUMPDEST PUSH1 0x0 PUSH2 0x1B16 DUP3 DUP5 PUSH2 0x1AD9 JUMP JUMPDEST SWAP2 POP DUP2 SWAP1 POP SWAP3 SWAP2 POP POP JUMP JUMPDEST PUSH32 0x46696C652043494420616C72656164792075706C6F6164656400000000000000 PUSH1 0x0 DUP3 ADD MSTORE POP JUMP JUMPDEST PUSH1 0x0 PUSH2 0x1B57 PUSH1 0x19 DUP4 PUSH2 0x18A9 JUMP JUMPDEST SWAP2 POP PUSH2 0x1B62 DUP3 PUSH2 0x1B21 JUMP JUMPDEST PUSH1 0x20 DUP3 ADD SWAP1 POP SWAP2 SWAP1 POP JUMP JUMPDEST PUSH1 0x0 PUSH1 0x20 DUP3 ADD SWAP1 POP DUP2 DUP2 SUB PUSH1 0x0 DUP4 ADD MSTORE PUSH2 0x1B86 DUP2 PUSH2 0x1B4A JUMP JUMPDEST SWAP1 POP SWAP2 SWAP1 POP JUMP JUMPDEST PUSH32 0x4E487B7100000000000000000000000000000000000000000000000000000000 PUSH1 0x0 MSTORE PUSH1 0x22 PUSH1 0x4 MSTORE PUSH1 0x24 PUSH1 0x0 REVERT JUMPDEST PUSH1 0x0 PUSH1 0x2 DUP3 DIV SWAP1 POP PUSH1 0x1 DUP3 AND DUP1 PUSH2 0x1BD4 JUMPI PUSH1 0x7F DUP3 AND SWAP2 POP JUMPDEST PUSH1 0x20 DUP3 LT DUP2 SUB PUSH2 0x1BE7 JUMPI PUSH2 0x1BE6 PUSH2 0x1B8D JUMP JUMPDEST JUMPDEST POP SWAP2 SWAP1 POP JUMP JUMPDEST PUSH1 0x0 DUP2 SWAP1 POP DUP2 PUSH1 0x0 MSTORE PUSH1 0x20 PUSH1 0x0 KECCAK256 SWAP1 POP SWAP2 SWAP1 POP JUMP JUMPDEST PUSH1 0x0 PUSH1 0x20 PUSH1 0x1F DUP4 ADD DIV SWAP1 POP SWAP2 SWAP1 POP JUMP JUMPDEST PUSH1 0x0 DUP3 DUP3 SHL SWAP1 POP SWAP3 SWAP2 POP POP JUMP JUMPDEST PUSH1 0x0 PUSH1 0x8 DUP4 MUL PUSH2 0x1C4F PUSH32 0xFFFFFFFFFFFFFFFFFFFFFFFFFFFFFFFFFFFFFFFFFFFFFFFFFFFFFFFFFFFFFFFF DUP3 PUSH2 0x1C12 JUMP JUMPDEST PUSH2 0x1C59 DUP7 DUP4 PUSH2 0x1C12 JUMP JUMPDEST SWAP6 POP DUP1 NOT DUP5 AND SWAP4 POP DUP1 DUP7 AND DUP5 OR SWAP3 POP POP POP SWAP4 SWAP3 POP POP POP JUMP JUMPDEST PUSH1 0x0 DUP2 SWAP1 POP SWAP2 SWAP1 POP JUMP JUMPDEST PUSH1 0x0 DUP2 SWAP1 POP SWAP2 SWAP1 POP JUMP JUMPDEST PUSH1 0x0 PUSH2 0x1CA0 PUSH2 0x1C9B PUSH2 0x1C96 DUP5 PUSH2 0x1C71 JUMP JUMPDEST PUSH2 0x1C7B JUMP JUMPDEST PUSH2 0x1C71 JUMP JUMPDEST SWAP1 POP SWAP2 SWAP1 POP JUMP JUMPDEST PUSH1 0x0 DUP2 SWAP1 POP SWAP2 SWAP1 POP JUMP JUMPDEST PUSH2 0x1CBA DUP4 PUSH2 0x1C85 JUMP JUMPDEST PUSH2 0x1CCE PUSH2 0x1CC6 DUP3 PUSH2 0x1CA7 JUMP JUMPDEST DUP5 DUP5 SLOAD PUSH2 0x1C1F JUMP JUMPDEST DUP3 SSTORE POP POP POP POP JUMP JUMPDEST PUSH1 0x0 SWAP1 JUMP JUMPDEST PUSH2 0x1CE3 PUSH2 0x1CD6 JUMP JUMPDEST PUSH2 0x1CEE DUP2 DUP5 DUP5 PUSH2 0x1CB1 JUMP JUMPDEST POP POP POP JUMP JUMPDEST JUMPDEST DUP2 DUP2 LT ISZERO PUSH2 0x1D12 JUMPI PUSH2 0x1D07 PUSH1 0x0 DUP3 PUSH2 0x1CDB JUMP JUMPDEST PUSH1 0x1 DUP2 ADD SWAP1 POP PUSH2 0x1CF4 JUMP JUMPDEST POP POP JUMP JUMPDEST PUSH1 0x1F DUP3 GT ISZERO PUSH2 0x1D57 JUMPI PUSH2 0x1D28 DUP2 PUSH2 0x1BED JUMP JUMPDEST PUSH2 0x1D31 DUP5 PUSH2 0x1C02 JUMP JUMPDEST DUP2 ADD PUSH1 0x20 DUP6 LT ISZERO PUSH2 0x1D40 JUMPI DUP2 SWAP1 POP JUMPDEST PUSH2 0x1D54 PUSH2 0x1D4C DUP6 PUSH2 0x1C02 JUMP JUMPDEST DUP4 ADD DUP3 PUSH2 0x1CF3 JUMP JUMPDEST POP POP JUMPDEST POP POP POP JUMP JUMPDEST PUSH1 0x0 DUP3 DUP3 SHR SWAP1 POP SWAP3 SWAP2 POP POP JUMP JUMPDEST PUSH1 0x0 PUSH2 0x1D7A PUSH1 0x0 NOT DUP5 PUSH1 0x8 MUL PUSH2 0x1D5C JUMP JUMPDEST NOT DUP1 DUP4 AND SWAP2 POP POP SWAP3 SWAP2 POP POP JUMP JUMPDEST PUSH1 0x0 PUSH2 0x1D93 DUP4 DUP4 PUSH2 0x1D69 JUMP JUMPDEST SWAP2 POP DUP3 PUSH1 0x2 MUL DUP3 OR SWAP1 POP SWAP3 SWAP2 POP POP JUMP JUMPDEST PUSH2 0x1DAC DUP3 PUSH2 0x1772 JUMP JUMPDEST PUSH8 0xFFFFFFFFFFFFFFFF DUP2 GT ISZERO PUSH2 0x1DC5 JUMPI PUSH2 0x1DC4 PUSH2 0x1478 JUMP JUMPDEST JUMPDEST PUSH2 0x1DCF DUP3 SLOAD PUSH2 0x1BBC JUMP JUMPDEST PUSH2 0x1DDA DUP3 DUP3 DUP6 PUSH2 0x1D16 JUMP JUMPDEST PUSH1 0x0 PUSH1 0x20 SWAP1 POP PUSH1 0x1F DUP4 GT PUSH1 0x1 DUP2 EQ PUSH2 0x1E0D JUMPI PUSH1 0x0 DUP5 ISZERO PUSH2 0x1DFB JUMPI DUP3 DUP8 ADD MLOAD SWAP1 POP JUMPDEST PUSH2 0x1E05 DUP6 DUP3 PUSH2 0x1D87 JUMP JUMPDEST DUP7 SSTORE POP PUSH2 0x1E6D JUMP JUMPDEST PUSH1 0x1F NOT DUP5 AND PUSH2 0x1E1B DUP7 PUSH2 0x1BED JUMP JUMPDEST PUSH1 0x0 JUMPDEST DUP3 DUP2 LT ISZERO PUSH2 0x1E43 JUMPI DUP5 DUP10 ADD MLOAD DUP3 SSTORE PUSH1 0x1 DUP3 ADD SWAP2 POP PUSH1 0x20 DUP6 ADD SWAP5 POP PUSH1 0x20 DUP2 ADD SWAP1 POP PUSH2 0x1E1E JUMP JUMPDEST DUP7 DUP4 LT ISZERO PUSH2 0x1E60 JUMPI DUP5 DUP10 ADD MLOAD PUSH2 0x1E5C PUSH1 0x1F DUP10 AND DUP3 PUSH2 0x1D69 JUMP JUMPDEST DUP4 SSTORE POP JUMPDEST PUSH1 0x1 PUSH1 0x2 DUP9 MUL ADD DUP9 SSTORE POP POP POP JUMPDEST POP POP POP POP POP POP JUMP JUMPDEST PUSH1 0x0 PUSH1 0x80 DUP3 ADD SWAP1 POP DUP2 DUP2 SUB PUSH1 0x0 DUP4 ADD MSTORE PUSH2 0x1E8F DUP2 DUP8 PUSH2 0x18BA JUMP JUMPDEST SWAP1 POP DUP2 DUP2 SUB PUSH1 0x20 DUP4 ADD MSTORE PUSH2 0x1EA3 DUP2 DUP7 PUSH2 0x18BA JUMP JUMPDEST SWAP1 POP PUSH2 0x1EB2 PUSH1 0x40 DUP4 ADD DUP6 PUSH2 0x18F3 JUMP JUMPDEST PUSH2 0x1EBF PUSH1 0x60 DUP4 ADD DUP5 PUSH2 0x18F3 JUMP JUMPDEST SWAP6 SWAP5 POP POP POP POP POP JUMP JUMPDEST PUSH32 0x4E6F2066696C65207265636F726420666F756E6420666F722074686973204349 PUSH1 0x0 DUP3 ADD MSTORE PUSH32 0x4400000000000000000000000000000000000000000000000000000000000000 PUSH1 0x20 DUP3 ADD MSTORE POP JUMP JUMPDEST PUSH1 0x0 PUSH2 0x1F24 PUSH1 0x21 DUP4 PUSH2 0x18A9 JUMP JUMPDEST SWAP2 POP PUSH2 0x1F2F DUP3 PUSH2 0x1EC8 JUMP JUMPDEST PUSH1 0x40 DUP3 ADD SWAP1 POP SWAP2 SWAP1 POP JUMP JUMPDEST PUSH1 0x0 PUSH1 0x20 DUP3 ADD SWAP1 POP DUP2 DUP2 SUB PUSH1 0x0 DUP4 ADD MSTORE PUSH2 0x1F53 DUP2 PUSH2 0x1F17 JUMP JUMPDEST SWAP1 POP SWAP2 SWAP1 POP JUMP JUMPDEST PUSH32 0x4F6E6C7920746865206F776E65722063616E2064656C65746520746869732066 PUSH1 0x0 DUP3 ADD MSTORE PUSH32 0x696C65207265636F726400000000000000000000000000000000000000000000 PUSH1 0x20 DUP3 ADD MSTORE POP JUMP JUMPDEST PUSH1 0x0 PUSH2 0x1FB6 PUSH1 0x2A DUP4 PUSH2 0x18A9 JUMP JUMPDEST SWAP2 POP PUSH2 0x1FC1 DUP3 PUSH2 0x1F5A JUMP JUMPDEST PUSH1 0x40 DUP3 ADD SWAP1 POP SWAP2 SWAP1 POP JUMP JUMPDEST PUSH1 0x0 PUSH1 0x20 DUP3 ADD SWAP1 POP DUP2 DUP2 SUB PUSH1 0x0 DUP4 ADD MSTORE PUSH2 0x1FE5 DUP2 PUSH2 0x1FA9 JUMP JUMPDEST SWAP1 POP SWAP2 SWAP1 POP JUMP JUMPDEST PUSH32 0x4E487B7100000000000000000000000000000000000000000000000000000000 PUSH1 0x0 MSTORE PUSH1 0x32 PUSH1 0x4 MSTORE PUSH1 0x24 PUSH1 0x0 REVERT JUMPDEST PUSH1 0x0 DUP2 SLOAD PUSH2 0x2028 DUP2 PUSH2 0x1BBC JUMP JUMPDEST PUSH2 0x2032 DUP2 DUP7 PUSH2 0x1ACE JUMP JUMPDEST SWAP5 POP PUSH1 0x1 DUP3 AND PUSH1 0x0 DUP2 EQ PUSH2 0x204D JUMPI PUSH1 0x1 DUP2 EQ PUSH2 0x2062 JUMPI PUSH2 0x2095 JUMP JUMPDEST PUSH1 0xFF NOT DUP4 AND DUP7 MSTORE DUP2 ISZERO ISZERO DUP3 MUL DUP7 ADD SWAP4 POP PUSH2 0x2095 JUMP JUMPDEST PUSH2 0x206B DUP6 PUSH2 0x1BED JUMP JUMPDEST PUSH1 0x0 JUMPDEST DUP4 DUP2 LT ISZERO PUSH2 0x208D JUMPI DUP2 SLOAD DUP2 DUP10 ADD MSTORE PUSH1 0x1 DUP3 ADD SWAP2 POP PUSH1 0x20 DUP2 ADD SWAP1 POP PUSH2 0x206E JUMP JUMPDEST DUP4 DUP9 ADD SWAP6 POP POP POP JUMPDEST POP POP POP SWAP3 SWAP2 POP POP JUMP JUMPDEST PUSH1 0x0 PUSH2 0x20AA DUP3 DUP5 PUSH2 0x201B JUMP JUMPDEST SWAP2 POP DUP2 SWAP1 POP SWAP3 SWAP2 POP POP JUMP JUMPDEST PUSH32 0x4E487B7100000000000000000000000000000000000000000000000000000000 PUSH1 0x0 MSTORE PUSH1 0x11 PUSH1 0x4 MSTORE PUSH1 0x24 PUSH1 0x0 REVERT JUMPDEST PUSH1 0x0 PUSH2 0x20EF DUP3 PUSH2 0x1C71 JUMP JUMPDEST SWAP2 POP PUSH2 0x20FA DUP4 PUSH2 0x1C71 JUMP JUMPDEST SWAP3 POP DUP3 DUP3 SUB SWAP1 POP DUP2 DUP2 GT ISZERO PUSH2 0x2112 JUMPI PUSH2 0x2111 PUSH2 0x20B5 JUMP JUMPDEST JUMPDEST SWAP3 SWAP2 POP POP JUMP JUMPDEST PUSH1 0x0 DUP2 SLOAD SWAP1 POP PUSH2 0x2127 DUP2 PUSH2 0x1BBC JUMP JUMPDEST SWAP1 POP SWAP2 SWAP1 POP JUMP JUMPDEST PUSH1 0x0 DUP2 SWAP1 POP DUP2 PUSH1 0x0 MSTORE PUSH1 0x20 PUSH1 0x0 KECCAK256 SWAP1 POP SWAP2 SWAP1 POP JUMP JUMPDEST DUP2 DUP2 SUB PUSH2 0x2151 JUMPI POP POP PUSH2 0x2229 JUMP JUMPDEST PUSH2 0x215A DUP3 PUSH2 0x2118 JUMP JUMPDEST PUSH8 0xFFFFFFFFFFFFFFFF DUP2 GT ISZERO PUSH2 0x2173 JUMPI PUSH2 0x2172 PUSH2 0x1478 JUMP JUMPDEST JUMPDEST PUSH2 0x217D DUP3 SLOAD PUSH2 0x1BBC JUMP JUMPDEST PUSH2 0x2188 DUP3 DUP3 DUP6 PUSH2 0x1D16 JUMP JUMPDEST PUSH1 0x0 PUSH1 0x1F DUP4 GT PUSH1 0x1 DUP2 EQ PUSH2 0x21B7 JUMPI PUSH1 0x0 DUP5 ISZERO PUSH2 0x21A5 JUMPI DUP3 DUP8 ADD SLOAD SWAP1 POP JUMPDEST PUSH2 0x21AF DUP6 DUP3 PUSH2 0x1D87 JUMP JUMPDEST DUP7 SSTORE POP PUSH2 0x2222 JUMP JUMPDEST PUSH1 0x1F NOT DUP5 AND PUSH2 0x21C5 DUP8 PUSH2 0x212E JUMP JUMPDEST SWAP7 POP PUSH2 0x21D0 DUP7 PUSH2 0x1BED JUMP JUMPDEST PUSH1 0x0 JUMPDEST DUP3 DUP2 LT ISZERO PUSH2 0x21F8 JUMPI DUP5 DUP10 ADD SLOAD DUP3 SSTORE PUSH1 0x1 DUP3 ADD SWAP2 POP PUSH1 0x1 DUP6 ADD SWAP5 POP PUSH1 0x20 DUP2 ADD SWAP1 POP PUSH2 0x21D3 JUMP JUMPDEST DUP7 DUP4 LT ISZERO PUSH2 0x2215 JUMPI DUP5 DUP10 ADD SLOAD PUSH2 0x2211 PUSH1 0x1F DUP10 AND DUP3 PUSH2 0x1D69 JUMP JUMPDEST DUP4 SSTORE POP JUMPDEST PUSH1 0x1 PUSH1 0x2 DUP9 MUL ADD DUP9 SSTORE POP POP POP JUMPDEST POP POP POP POP POP POP JUMPDEST JUMP JUMPDEST PUSH32 0x4E487B7100000000000000000000000000000000000000000000000000000000 PUSH1 0x0 MSTORE PUSH1 0x31 PUSH1 0x4 MSTORE PUSH1 0x24 PUSH1 0x0 REVERT JUMPDEST PUSH1 0x0 PUSH2 0x2265 DUP3 PUSH2 0x1C71 JUMP JUMPDEST SWAP2 POP PUSH32 0xFFFFFFFFFFFFFFFFFFFFFFFFFFFFFFFFFFFFFFFFFFFFFFFFFFFFFFFFFFFFFFFF DUP3 SUB PUSH2 0x2297 JUMPI PUSH2 0x2296 PUSH2 0x20B5 JUMP JUMPDEST JUMPDEST PUSH1 0x1 DUP3 ADD SWAP1 POP SWAP2 SWAP1 POP JUMP JUMPDEST PUSH32 0x46696C652043494420646F6573206E6F74206578697374000000000000000000 PUSH1 0x0 DUP3 ADD MSTORE POP JUMP JUMPDEST PUSH1 0x0 PUSH2 0x22D8 PUSH1 0x17 DUP4 PUSH2 0x18A9 JUMP JUMPDEST SWAP2 POP PUSH2 0x22E3 DUP3 PUSH2 0x22A2 JUMP JUMPDEST PUSH1 0x20 DUP3 ADD SWAP1 POP SWAP2 SWAP1 POP JUMP JUMPDEST PUSH1 0x0 PUSH1 0x20 DUP3 ADD SWAP1 POP DUP2 DUP2 SUB PUSH1 0x0 DUP4 ADD MSTORE PUSH2 0x2307 DUP2 PUSH2 0x22CB JUMP JUMPDEST SWAP1 POP SWAP2 SWAP1 POP JUMP JUMPDEST PUSH32 0x496E76616C69642075706C6F6164657220616464726573730000000000000000 PUSH1 0x0 DUP3 ADD MSTORE POP JUMP JUMPDEST PUSH1 0x0 PUSH2 0x2344 PUSH1 0x18 DUP4 PUSH2 0x18A9 JUMP JUMPDEST SWAP2 POP PUSH2 0x234F DUP3 PUSH2 0x230E JUMP JUMPDEST PUSH1 0x20 DUP3 ADD SWAP1 POP SWAP2 SWAP1 POP JUMP JUMPDEST PUSH1 0x0 PUSH1 0x20 DUP3 ADD SWAP1 POP DUP2 DUP2 SUB PUSH1 0x0 DUP4 ADD MSTORE PUSH2 0x2373 DUP2 PUSH2 0x2337 JUMP JUMPDEST SWAP1 POP SWAP2 SWAP1 POP JUMP JUMPDEST PUSH32 0x5573657220646F6573206E6F7420686176652061636365737320746F20616E79 PUSH1 0x0 DUP3 ADD MSTORE PUSH32 0x204349442075706C6F61646564206279207468652075706C6F61646572000000 PUSH1 0x20 DUP3 ADD MSTORE POP JUMP JUMPDEST PUSH1 0x0 PUSH2 0x23D6 PUSH1 0x3D DUP4 PUSH2 0x18A9 JUMP JUMPDEST SWAP2 POP PUSH2 0x23E1 DUP3 PUSH2 0x237A JUMP JUMPDEST PUSH1 0x40 DUP3 ADD SWAP1 POP SWAP2 SWAP1 POP JUMP JUMPDEST PUSH1 0x0 PUSH1 0x20 DUP3 ADD SWAP1 POP DUP2 DUP2 SUB PUSH1 0x0 DUP4 ADD MSTORE PUSH2 0x2405 DUP2 PUSH2 0x23C9 JUMP JUMPDEST SWAP1 POP SWAP2 SWAP1 POP JUMP INVALID LOG2 PUSH5 0x6970667358 0x22 SLT KECCAK256 0xCF GASPRICE GASLIMIT 0xC7 PUSH29 0xEE49698DEA1146AC64C3659568C5F6F3E2C12F03DEDEDF5BCC9D0C6473 PUSH16 0x6C634300081300330000000000000000 "},"methodIdentifiers":{"canAccess(string,address)":"b7ef5baf","cidExists(string)":"a77015d1","deleteFileRecord(string)":"34b35f16","getCid(address)":"d3419723","getUploadedCids(address)":"9939fba6","grantAccess(string,address)":"f37c215e","revokeAccess(string,address)":"dfe0b5fe","uploadCid(string,string,string,address,address)":"27ee6f23","viewFileInfo(string)":"a1081130"}}}}}