{
  "_format": "hh-sol-artifact-1",
  "contractName": "Storage",
  "sourceName": "contracts/Storage.sol",
  "abi": [
    {
      "inputs": [],
      "stateMutability": "nonpayable",
      "type": "constructor"
    },
    {
      "anonymous": false,
      "inputs": [
        {
          "indexed": false,
          "internalType": "string",
          "name": "fileName",
          "type": "string"
        },
        {
          "indexed": false,
          "internalType": "string",
          "name": "fileCid",
          "type": "string"
        },
        {
          "indexed": false,
          "internalType": "address",
          "name": "ownerAddress",
          "type": "address"
        },
        {
          "indexed": false,
          "internalType": "address",
          "name": "recipientAddresses",
          "type": "address"
        }
      ],
      "name": "CidUploaded",
      "type": "event"
    },
    {
      "inputs": [
        {
          "internalType": "string",
          "name": "cid",
          "type": "string"
        },
        {
          "internalType": "address",
          "name": "user",
          "type": "address"
        }
      ],
      "name": "canAccess",
      "outputs": [
        {
          "internalType": "bool",
          "name": "",
          "type": "bool"
        }
      ],
      "stateMutability": "view",
      "type": "function"
    },
    {
      "inputs": [
        {
          "internalType": "address",
          "name": "uploaderAddress",
          "type": "address"
        }
      ],
      "name": "getCid",
      "outputs": [
        {
          "internalType": "string",
          "name": "",
          "type": "string"
        }
      ],
      "stateMutability": "view",
      "type": "function"
    },
    {
      "inputs": [
        {
          "internalType": "address",
          "name": "uploaderAddress",
          "type": "address"
        }
      ],
      "name": "getUploadedCids",
      "outputs": [
        {
          "internalType": "string[]",
          "name": "",
          "type": "string[]"
        }
      ],
      "stateMutability": "view",
      "type": "function"
    },
    {
      "inputs": [
        {
          "internalType": "string",
          "name": "cid",
          "type": "string"
        },
        {
          "internalType": "address",
          "name": "user",
          "type": "address"
        }
      ],
      "name": "grantAccess",
      "outputs": [],
      "stateMutability": "nonpayable",
      "type": "function"
    },
    {
      "inputs": [
        {
          "internalType": "string",
          "name": "cid",
          "type": "string"
        },
        {
          "internalType": "address",
          "name": "user",
          "type": "address"
        }
      ],
      "name": "revokeAccess",
      "outputs": [],
      "stateMutability": "nonpayable",
      "type": "function"
    },
    {
      "inputs": [
        {
          "internalType": "string",
          "name": "uploaderName",
          "type": "string"
        },
        {
          "internalType": "string",
          "name": "fileName",
          "type": "string"
        },
        {
          "internalType": "string",
          "name": "fileCid",
          "type": "string"
        },
        {
          "internalType": "address",
          "name": "ownerAddress",
          "type": "address"
        },
        {
          "internalType": "address",
          "name": "recipientAddresses",
          "type": "address"
        }
      ],
      "name": "uploadCid",
      "outputs": [],
      "stateMutability": "nonpayable",
      "type": "function"
    },
    {
      "inputs": [
        {
          "internalType": "string",
          "name": "fileCid",
          "type": "string"
        }
      ],
      "name": "viewFileInfo",
      "outputs": [
        {
          "internalType": "string",
          "name": "",
          "type": "string"
        },
        {
          "internalType": "string",
          "name": "",
          "type": "string"
        },
        {
          "internalType": "address",
          "name": "",
          "type": "address"
        },
        {
          "internalType": "address[]",
          "name": "",
          "type": "address[]"
        }
      ],
      "stateMutability": "view",
      "type": "function"
    }
  ],
  "bytecode": "0x608060405234801561001057600080fd5b50336000806101000a81548173ffffffffffffffffffffffffffffffffffffffff021916908373ffffffffffffffffffffffffffffffffffffffff160217905550611c17806100606000396000f3fe608060405234801561001057600080fd5b506004361061007d5760003560e01c8063b7ef5baf1161005b578063b7ef5baf14610101578063d341972314610131578063dfe0b5fe14610161578063f37c215e1461017d5761007d565b806327ee6f23146100825780639939fba61461009e578063a1081130146100ce575b600080fd5b61009c60048036038101906100979190610fde565b610199565b005b6100b860048036038101906100b391906110ad565b610516565b6040516100c5919061121b565b60405180910390f35b6100e860048036038101906100e3919061123d565b61062e565b6040516100f8949392919061139d565b60405180910390f35b61011b600480360381019061011691906113f7565b6108e8565b604051610128919061146e565b60405180910390f35b61014b600480360381019061014691906110ad565b61095b565b6040516101589190611489565b60405180910390f35b61017b600480360381019061017691906113f7565b610c1b565b005b610197600480360381019061019291906113f7565b610d21565b005b600073ffffffffffffffffffffffffffffffffffffffff166003846040516101c191906114e7565b908152602001604051809103902060030160009054906101000a900473ffffffffffffffffffffffffffffffffffffffff1673ffffffffffffffffffffffffffffffffffffffff1614610249576040517f08c379a00000000000000000000000000000000000000000000000000000000081526004016102409061154a565b60405180910390fd5b8460038460405161025a91906114e7565b908152602001604051809103902060000190816102779190611780565b508360038460405161028991906114e7565b908152602001604051809103902060010190816102a69190611780565b50826003846040516102b891906114e7565b908152602001604051809103902060020190816102d59190611780565b50336003846040516102e791906114e7565b908152602001604051809103902060030160006101000a81548173ffffffffffffffffffffffffffffffffffffffff021916908373ffffffffffffffffffffffffffffffffffffffff16021790555060038360405161034691906114e7565b9081526020016040518091039020600401819080600181540180825580915050600190039060005260206000200160009091909190916101000a81548173ffffffffffffffffffffffffffffffffffffffff021916908373ffffffffffffffffffffffffffffffffffffffff160217905550600180846040516103c991906114e7565b908152602001604051809103902060008473ffffffffffffffffffffffffffffffffffffffff1673ffffffffffffffffffffffffffffffffffffffff16815260200190815260200160002060006101000a81548160ff02191690831515021790555060048390806001815401808255809150506001900390600052602060002001600090919091909150908161045f9190611780565b50600260003373ffffffffffffffffffffffffffffffffffffffff1673ffffffffffffffffffffffffffffffffffffffff168152602001908152602001600020839080600181540180825580915050600190039060005260206000200160009091909190915090816104d19190611780565b507f32bb5a8aba375cb6f693e852ff2876ec292fa25fcf83f2f87dbe417edf2c5310848484846040516105079493929190611852565b60405180910390a15050505050565b6060600260008373ffffffffffffffffffffffffffffffffffffffff1673ffffffffffffffffffffffffffffffffffffffff168152602001908152602001600020805480602002602001604051908101604052809291908181526020016000905b8282101561062357838290600052602060002001805461059690611599565b80601f01602080910402602001604051908101604052809291908181526020018280546105c290611599565b801561060f5780601f106105e45761010080835404028352916020019161060f565b820191906000526020600020905b8154815290600101906020018083116105f257829003601f168201915b505050505081526020019060010190610577565b505050509050919050565b60608060006060600073ffffffffffffffffffffffffffffffffffffffff1660038660405161065d91906114e7565b908152602001604051809103902060030160009054906101000a900473ffffffffffffffffffffffffffffffffffffffff1673ffffffffffffffffffffffffffffffffffffffff16036106e5576040517f08c379a00000000000000000000000000000000000000000000000000000000081526004016106dc906118f1565b60405180910390fd5b60006003866040516106f791906114e7565b9081526020016040518091039020905080600001816001018260030160009054906101000a900473ffffffffffffffffffffffffffffffffffffffff168360040183805461074490611599565b80601f016020809104026020016040519081016040528092919081815260200182805461077090611599565b80156107bd5780601f10610792576101008083540402835291602001916107bd565b820191906000526020600020905b8154815290600101906020018083116107a057829003601f168201915b505050505093508280546107d090611599565b80601f01602080910402602001604051908101604052809291908181526020018280546107fc90611599565b80156108495780601f1061081e57610100808354040283529160200191610849565b820191906000526020600020905b81548152906001019060200180831161082c57829003601f168201915b50505050509250808054806020026020016040519081016040528092919081815260200182805480156108d157602002820191906000526020600020905b8160009054906101000a900473ffffffffffffffffffffffffffffffffffffffff1673ffffffffffffffffffffffffffffffffffffffff1681526020019060010190808311610887575b505050505090509450945094509450509193509193565b60006001836040516108fa91906114e7565b908152602001604051809103902060008373ffffffffffffffffffffffffffffffffffffffff1673ffffffffffffffffffffffffffffffffffffffff16815260200190815260200160002060009054906101000a900460ff16905092915050565b6060600073ffffffffffffffffffffffffffffffffffffffff168273ffffffffffffffffffffffffffffffffffffffff16036109cc576040517f08c379a00000000000000000000000000000000000000000000000000000000081526004016109c39061195d565b60405180910390fd5b60006040518060200160405280600081525090506000805b600480549050811015610bd0576000600360048381548110610a0957610a0861197d565b5b90600052602060002001604051610a209190611a2f565b908152602001604051809103902090508573ffffffffffffffffffffffffffffffffffffffff168160030160009054906101000a900473ffffffffffffffffffffffffffffffffffffffff1673ffffffffffffffffffffffffffffffffffffffff1603610bbc57610b1d816002018054610a9990611599565b80601f0160208091040260200160405190810160405280929190818152602001828054610ac590611599565b8015610b125780601f10610ae757610100808354040283529160200191610b12565b820191906000526020600020905b815481529060010190602001808311610af557829003601f168201915b5050505050336108e8565b15610bbb57806002018054610b3190611599565b80601f0160208091040260200160405190810160405280929190818152602001828054610b5d90611599565b8015610baa5780601f10610b7f57610100808354040283529160200191610baa565b820191906000526020600020905b815481529060010190602001808311610b8d57829003601f168201915b505050505093506001925050610bd0565b5b508080610bc890611a75565b9150506109e4565b5080610c11576040517f08c379a0000000000000000000000000000000000000000000000000000000008152600401610c0890611b2f565b60405180910390fd5b8192505050919050565b60008054906101000a900473ffffffffffffffffffffffffffffffffffffffff1673ffffffffffffffffffffffffffffffffffffffff163373ffffffffffffffffffffffffffffffffffffffff1614610ca9576040517f08c379a0000000000000000000000000000000000000000000000000000000008152600401610ca090611bc1565b60405180910390fd5b6000600183604051610cbb91906114e7565b908152602001604051809103902060008373ffffffffffffffffffffffffffffffffffffffff1673ffffffffffffffffffffffffffffffffffffffff16815260200190815260200160002060006101000a81548160ff0219169083151502179055505050565b60008054906101000a900473ffffffffffffffffffffffffffffffffffffffff1673ffffffffffffffffffffffffffffffffffffffff163373ffffffffffffffffffffffffffffffffffffffff1614610daf576040517f08c379a0000000000000000000000000000000000000000000000000000000008152600401610da690611bc1565b60405180910390fd5b60018083604051610dc091906114e7565b908152602001604051809103902060008373ffffffffffffffffffffffffffffffffffffffff1673ffffffffffffffffffffffffffffffffffffffff16815260200190815260200160002060006101000a81548160ff0219169083151502179055505050565b6000604051905090565b600080fd5b600080fd5b600080fd5b600080fd5b6000601f19601f8301169050919050565b7f4e487b7100000000000000000000000000000000000000000000000000000000600052604160045260246000fd5b610e8d82610e44565b810181811067ffffffffffffffff82111715610eac57610eab610e55565b5b80604052505050565b6000610ebf610e26565b9050610ecb8282610e84565b919050565b600067ffffffffffffffff821115610eeb57610eea610e55565b5b610ef482610e44565b9050602081019050919050565b82818337600083830152505050565b6000610f23610f1e84610ed0565b610eb5565b905082815260208101848484011115610f3f57610f3e610e3f565b5b610f4a848285610f01565b509392505050565b600082601f830112610f6757610f66610e3a565b5b8135610f77848260208601610f10565b91505092915050565b600073ffffffffffffffffffffffffffffffffffffffff82169050919050565b6000610fab82610f80565b9050919050565b610fbb81610fa0565b8114610fc657600080fd5b50565b600081359050610fd881610fb2565b92915050565b600080600080600060a08688031215610ffa57610ff9610e30565b5b600086013567ffffffffffffffff81111561101857611017610e35565b5b61102488828901610f52565b955050602086013567ffffffffffffffff81111561104557611044610e35565b5b61105188828901610f52565b945050604086013567ffffffffffffffff81111561107257611071610e35565b5b61107e88828901610f52565b935050606061108f88828901610fc9565b92505060806110a088828901610fc9565b9150509295509295909350565b6000602082840312156110c3576110c2610e30565b5b60006110d184828501610fc9565b91505092915050565b600081519050919050565b600082825260208201905092915050565b6000819050602082019050919050565b600081519050919050565b600082825260208201905092915050565b60005b83811015611140578082015181840152602081019050611125565b60008484015250505050565b600061115782611106565b6111618185611111565b9350611171818560208601611122565b61117a81610e44565b840191505092915050565b6000611191838361114c565b905092915050565b6000602082019050919050565b60006111b1826110da565b6111bb81856110e5565b9350836020820285016111cd856110f6565b8060005b8581101561120957848403895281516111ea8582611185565b94506111f583611199565b925060208a019950506001810190506111d1565b50829750879550505050505092915050565b6000602082019050818103600083015261123581846111a6565b905092915050565b60006020828403121561125357611252610e30565b5b600082013567ffffffffffffffff81111561127157611270610e35565b5b61127d84828501610f52565b91505092915050565b600082825260208201905092915050565b60006112a282611106565b6112ac8185611286565b93506112bc818560208601611122565b6112c581610e44565b840191505092915050565b6112d981610fa0565b82525050565b600081519050919050565b600082825260208201905092915050565b6000819050602082019050919050565b61131481610fa0565b82525050565b6000611326838361130b565b60208301905092915050565b6000602082019050919050565b600061134a826112df565b61135481856112ea565b935061135f836112fb565b8060005b83811015611390578151611377888261131a565b975061138283611332565b925050600181019050611363565b5085935050505092915050565b600060808201905081810360008301526113b78187611297565b905081810360208301526113cb8186611297565b90506113da60408301856112d0565b81810360608301526113ec818461133f565b905095945050505050565b6000806040838503121561140e5761140d610e30565b5b600083013567ffffffffffffffff81111561142c5761142b610e35565b5b61143885828601610f52565b925050602061144985828601610fc9565b9150509250929050565b60008115159050919050565b61146881611453565b82525050565b6000602082019050611483600083018461145f565b92915050565b600060208201905081810360008301526114a38184611297565b905092915050565b600081905092915050565b60006114c182611106565b6114cb81856114ab565b93506114db818560208601611122565b80840191505092915050565b60006114f382846114b6565b915081905092915050565b7f46696c652043494420616c72656164792075706c6f6164656400000000000000600082015250565b6000611534601983611286565b915061153f826114fe565b602082019050919050565b6000602082019050818103600083015261156381611527565b9050919050565b7f4e487b7100000000000000000000000000000000000000000000000000000000600052602260045260246000fd5b600060028204905060018216806115b157607f821691505b6020821081036115c4576115c361156a565b5b50919050565b60008190508160005260206000209050919050565b60006020601f8301049050919050565b600082821b905092915050565b60006008830261162c7fffffffffffffffffffffffffffffffffffffffffffffffffffffffffffffffff826115ef565b61163686836115ef565b95508019841693508086168417925050509392505050565b6000819050919050565b6000819050919050565b600061167d6116786116738461164e565b611658565b61164e565b9050919050565b6000819050919050565b61169783611662565b6116ab6116a382611684565b8484546115fc565b825550505050565b600090565b6116c06116b3565b6116cb81848461168e565b505050565b5b818110156116ef576116e46000826116b8565b6001810190506116d1565b5050565b601f82111561173457611705816115ca565b61170e846115df565b8101602085101561171d578190505b611731611729856115df565b8301826116d0565b50505b505050565b600082821c905092915050565b600061175760001984600802611739565b1980831691505092915050565b60006117708383611746565b9150826002028217905092915050565b61178982611106565b67ffffffffffffffff8111156117a2576117a1610e55565b5b6117ac8254611599565b6117b78282856116f3565b600060209050601f8311600181146117ea57600084156117d8578287015190505b6117e28582611764565b86555061184a565b601f1984166117f8866115ca565b60005b82811015611820578489015182556001820191506020850194506020810190506117fb565b8683101561183d5784890151611839601f891682611746565b8355505b6001600288020188555050505b505050505050565b6000608082019050818103600083015261186c8187611297565b905081810360208301526118808186611297565b905061188f60408301856112d0565b61189c60608301846112d0565b95945050505050565b7f46696c652043494420646f6573206e6f74206578697374000000000000000000600082015250565b60006118db601783611286565b91506118e6826118a5565b602082019050919050565b6000602082019050818103600083015261190a816118ce565b9050919050565b7f496e76616c69642075706c6f6164657220616464726573730000000000000000600082015250565b6000611947601883611286565b915061195282611911565b602082019050919050565b600060208201905081810360008301526119768161193a565b9050919050565b7f4e487b7100000000000000000000000000000000000000000000000000000000600052603260045260246000fd5b600081546119b981611599565b6119c381866114ab565b945060018216600081146119de57600181146119f357611a26565b60ff1983168652811515820286019350611a26565b6119fc856115ca565b60005b83811015611a1e578154818901526001820191506020810190506119ff565b838801955050505b50505092915050565b6000611a3b82846119ac565b915081905092915050565b7f4e487b7100000000000000000000000000000000000000000000000000000000600052601160045260246000fd5b6000611a808261164e565b91507fffffffffffffffffffffffffffffffffffffffffffffffffffffffffffffffff8203611ab257611ab1611a46565b5b600182019050919050565b7f5573657220646f6573206e6f7420686176652061636365737320746f20616e7960008201527f204349442075706c6f61646564206279207468652075706c6f61646572000000602082015250565b6000611b19603d83611286565b9150611b2482611abd565b604082019050919050565b60006020820190508181036000830152611b4881611b0c565b9050919050565b7f4f6e6c792074686520636f6e7472616374206f776e65722063616e2063616c6c60008201527f20746869732066756e6374696f6e000000000000000000000000000000000000602082015250565b6000611bab602e83611286565b9150611bb682611b4f565b604082019050919050565b60006020820190508181036000830152611bda81611b9e565b905091905056fea2646970667358221220222360c75c5726ac1db0869c4c1f42545c5b9c9283cc00a14db783c1b8956fc064736f6c63430008130033",
  "linkReferences": {},
  "deployedLinkReferences": {}
}