{
  "_format": "hh-sol-artifact-1",
  "contractName": "Storage",
  "sourceName": "contracts/Storage.sol",
  "abi": [
    {
      "inputs": [],
      "stateMutability": "nonpayable",
      "type": "constructor"
    },
    {
      "anonymous": false,
      "inputs": [
        {
          "indexed": false,
          "internalType": "string",
          "name": "fileName",
          "type": "string"
        },
        {
          "indexed": false,
          "internalType": "string",
          "name": "fileCid",
          "type": "string"
        },
        {
          "indexed": false,
          "internalType": "address",
          "name": "ownerAddress",
          "type": "address"
        },
        {
          "indexed": false,
          "internalType": "address",
          "name": "recipientAddresses",
          "type": "address"
        }
      ],
      "name": "CidUploaded",
      "type": "event"
    },
    {
      "inputs": [
        {
          "internalType": "string",
          "name": "cid",
          "type": "string"
        },
        {
          "internalType": "address",
          "name": "user",
          "type": "address"
        }
      ],
      "name": "canAccess",
      "outputs": [
        {
          "internalType": "bool",
          "name": "",
          "type": "bool"
        }
      ],
      "stateMutability": "view",
      "type": "function"
    },
    {
      "inputs": [
        {
          "internalType": "string",
          "name": "cid",
          "type": "string"
        }
      ],
      "name": "cidExists",
      "outputs": [
        {
          "internalType": "bool",
          "name": "",
          "type": "bool"
        }
      ],
      "stateMutability": "view",
      "type": "function"
    },
    {
      "inputs": [
        {
          "internalType": "string",
          "name": "fileCid",
          "type": "string"
        }
      ],
      "name": "deleteFileRecord",
      "outputs": [],
      "stateMutability": "nonpayable",
      "type": "function"
    },
    {
      "inputs": [
        {
          "internalType": "address",
          "name": "uploaderAddress",
          "type": "address"
        }
      ],
      "name": "getCid",
      "outputs": [
        {
          "internalType": "string",
          "name": "",
          "type": "string"
        }
      ],
      "stateMutability": "view",
      "type": "function"
    },
    {
      "inputs": [
        {
          "internalType": "address",
          "name": "uploaderAddress",
          "type": "address"
        }
      ],
      "name": "getUploadedCids",
      "outputs": [
        {
          "internalType": "string[]",
          "name": "",
          "type": "string[]"
        }
      ],
      "stateMutability": "view",
      "type": "function"
    },
    {
      "inputs": [
        {
          "internalType": "string",
          "name": "cid",
          "type": "string"
        },
        {
          "internalType": "address",
          "name": "user",
          "type": "address"
        }
      ],
      "name": "grantAccess",
      "outputs": [],
      "stateMutability": "nonpayable",
      "type": "function"
    },
    {
      "inputs": [
        {
          "internalType": "string",
          "name": "cid",
          "type": "string"
        },
        {
          "internalType": "address",
          "name": "user",
          "type": "address"
        }
      ],
      "name": "revokeAccess",
      "outputs": [],
      "stateMutability": "nonpayable",
      "type": "function"
    },
    {
      "inputs": [
        {
          "internalType": "string",
          "name": "uploaderName",
          "type": "string"
        },
        {
          "internalType": "string",
          "name": "fileName",
          "type": "string"
        },
        {
          "internalType": "string",
          "name": "fileCid",
          "type": "string"
        },
        {
          "internalType": "address",
          "name": "ownerAddress",
          "type": "address"
        },
        {
          "internalType": "address",
          "name": "recipientAddresses",
          "type": "address"
        }
      ],
      "name": "uploadCid",
      "outputs": [],
      "stateMutability": "nonpayable",
      "type": "function"
    },
    {
      "inputs": [
        {
          "internalType": "string",
          "name": "fileCid",
          "type": "string"
        }
      ],
      "name": "viewFileInfo",
      "outputs": [
        {
          "internalType": "string",
          "name": "",
          "type": "string"
        },
        {
          "internalType": "string",
          "name": "",
          "type": "string"
        },
        {
          "internalType": "address",
          "name": "",
          "type": "address"
        },
        {
          "internalType": "address[]",
          "name": "",
          "type": "address[]"
        }
      ],
      "stateMutability": "view",
      "type": "function"
    }
  ],
  "bytecode": "0x608060405234801561001057600080fd5b50336000806101000a81548173ffffffffffffffffffffffffffffffffffffffff021916908373ffffffffffffffffffffffffffffffffffffffff16021790555061253d806100606000396000f3fe608060405234801561001057600080fd5b50600436106100935760003560e01c8063a77015d111610066578063a77015d114610133578063b7ef5baf14610163578063d341972314610193578063dfe0b5fe146101c3578063f37c215e146101df57610093565b806327ee6f231461009857806334b35f16146100b45780639939fba6146100d0578063a108113014610100575b600080fd5b6100b260048036038101906100ad91906116fc565b6101fb565b005b6100ce60048036038101906100c991906117cb565b610578565b005b6100ea60048036038101906100e59190611814565b610b3c565b6040516100f79190611982565b60405180910390f35b61011a600480360381019061011591906117cb565b610c54565b60405161012a9493929190611abb565b60405180910390f35b61014d600480360381019061014891906117cb565b610f0e565b60405161015a9190611b30565b60405180910390f35b61017d60048036038101906101789190611b4b565b610f88565b60405161018a9190611b30565b60405180910390f35b6101ad60048036038101906101a89190611814565b610ffb565b6040516101ba9190611ba7565b60405180910390f35b6101dd60048036038101906101d89190611b4b565b6112bb565b005b6101f960048036038101906101f49190611b4b565b6113c1565b005b600073ffffffffffffffffffffffffffffffffffffffff166004846040516102239190611c05565b908152602001604051809103902060030160009054906101000a900473ffffffffffffffffffffffffffffffffffffffff1673ffffffffffffffffffffffffffffffffffffffff16146102ab576040517f08c379a00000000000000000000000000000000000000000000000000000000081526004016102a290611c68565b60405180910390fd5b846004846040516102bc9190611c05565b908152602001604051809103902060000190816102d99190611e9e565b50836004846040516102eb9190611c05565b908152602001604051809103902060010190816103089190611e9e565b508260048460405161031a9190611c05565b908152602001604051809103902060020190816103379190611e9e565b50336004846040516103499190611c05565b908152602001604051809103902060030160006101000a81548173ffffffffffffffffffffffffffffffffffffffff021916908373ffffffffffffffffffffffffffffffffffffffff1602179055506004836040516103a89190611c05565b9081526020016040518091039020600401819080600181540180825580915050600190039060005260206000200160009091909190916101000a81548173ffffffffffffffffffffffffffffffffffffffff021916908373ffffffffffffffffffffffffffffffffffffffff1602179055506001808460405161042b9190611c05565b908152602001604051809103902060008473ffffffffffffffffffffffffffffffffffffffff1673ffffffffffffffffffffffffffffffffffffffff16815260200190815260200160002060006101000a81548160ff0219169083151502179055506005839080600181540180825580915050600190039060005260206000200160009091909190915090816104c19190611e9e565b50600260003373ffffffffffffffffffffffffffffffffffffffff1673ffffffffffffffffffffffffffffffffffffffff168152602001908152602001600020839080600181540180825580915050600190039060005260206000200160009091909190915090816105339190611e9e565b507f32bb5a8aba375cb6f693e852ff2876ec292fa25fcf83f2f87dbe417edf2c5310848484846040516105699493929190611f70565b60405180910390a15050505050565b60008054906101000a900473ffffffffffffffffffffffffffffffffffffffff1673ffffffffffffffffffffffffffffffffffffffff163373ffffffffffffffffffffffffffffffffffffffff1614610606576040517f08c379a00000000000000000000000000000000000000000000000000000000081526004016105fd90612035565b60405180910390fd5b600073ffffffffffffffffffffffffffffffffffffffff1660048260405161062e9190611c05565b908152602001604051809103902060030160009054906101000a900473ffffffffffffffffffffffffffffffffffffffff1673ffffffffffffffffffffffffffffffffffffffff16036106b6576040517f08c379a00000000000000000000000000000000000000000000000000000000081526004016106ad906120c7565b60405180910390fd5b60006004826040516106c89190611c05565b908152602001604051809103902060030160009054906101000a900473ffffffffffffffffffffffffffffffffffffffff16905060048260405161070c9190611c05565b90815260200160405180910390206000808201600061072b91906114c6565b60018201600061073b91906114c6565b60028201600061074b91906114c6565b6003820160006101000a81549073ffffffffffffffffffffffffffffffffffffffff02191690556004820160006107829190611506565b505060005b6005805490508110156108a657826040516020016107a59190611c05565b60405160208183030381529060405280519060200120600582815481106107cf576107ce6120e7565b5b906000526020600020016040516020016107e99190612199565b6040516020818303038152906040528051906020012003610893576005600160058054905061081891906121df565b81548110610829576108286120e7565b5b9060005260206000200160058281548110610847576108466120e7565b5b90600052602060002001908161085d919061223e565b5060058054806108705761086f612326565b5b60019003818190600052602060002001600061088c91906114c6565b90556108a6565b808061089e90612355565b915050610787565b5060005b600260008373ffffffffffffffffffffffffffffffffffffffff1673ffffffffffffffffffffffffffffffffffffffff16815260200190815260200160002080549050811015610b3757826040516020016109059190611c05565b60405160208183030381529060405280519060200120600260008473ffffffffffffffffffffffffffffffffffffffff1673ffffffffffffffffffffffffffffffffffffffff168152602001908152602001600020828154811061096c5761096b6120e7565b5b906000526020600020016040516020016109869190612199565b6040516020818303038152906040528051906020012003610b2457600260008373ffffffffffffffffffffffffffffffffffffffff1673ffffffffffffffffffffffffffffffffffffffff1681526020019081526020016000206001600260008573ffffffffffffffffffffffffffffffffffffffff1673ffffffffffffffffffffffffffffffffffffffff16815260200190815260200160002080549050610a2f91906121df565b81548110610a4057610a3f6120e7565b5b90600052602060002001600260008473ffffffffffffffffffffffffffffffffffffffff1673ffffffffffffffffffffffffffffffffffffffff1681526020019081526020016000208281548110610a9b57610a9a6120e7565b5b906000526020600020019081610ab1919061223e565b50600260008373ffffffffffffffffffffffffffffffffffffffff1673ffffffffffffffffffffffffffffffffffffffff168152602001908152602001600020805480610b0157610b00612326565b5b600190038181906000526020600020016000610b1d91906114c6565b9055610b37565b8080610b2f90612355565b9150506108aa565b505050565b6060600260008373ffffffffffffffffffffffffffffffffffffffff1673ffffffffffffffffffffffffffffffffffffffff168152602001908152602001600020805480602002602001604051908101604052809291908181526020016000905b82821015610c49578382906000526020600020018054610bbc90611cb7565b80601f0160208091040260200160405190810160405280929190818152602001828054610be890611cb7565b8015610c355780601f10610c0a57610100808354040283529160200191610c35565b820191906000526020600020905b815481529060010190602001808311610c1857829003601f168201915b505050505081526020019060010190610b9d565b505050509050919050565b60608060006060600073ffffffffffffffffffffffffffffffffffffffff16600486604051610c839190611c05565b908152602001604051809103902060030160009054906101000a900473ffffffffffffffffffffffffffffffffffffffff1673ffffffffffffffffffffffffffffffffffffffff1603610d0b576040517f08c379a0000000000000000000000000000000000000000000000000000000008152600401610d02906123e9565b60405180910390fd5b6000600486604051610d1d9190611c05565b9081526020016040518091039020905080600001816001018260030160009054906101000a900473ffffffffffffffffffffffffffffffffffffffff1683600401838054610d6a90611cb7565b80601f0160208091040260200160405190810160405280929190818152602001828054610d9690611cb7565b8015610de35780601f10610db857610100808354040283529160200191610de3565b820191906000526020600020905b815481529060010190602001808311610dc657829003601f168201915b50505050509350828054610df690611cb7565b80601f0160208091040260200160405190810160405280929190818152602001828054610e2290611cb7565b8015610e6f5780601f10610e4457610100808354040283529160200191610e6f565b820191906000526020600020905b815481529060010190602001808311610e5257829003601f168201915b5050505050925080805480602002602001604051908101604052809291908181526020018280548015610ef757602002820191906000526020600020905b8160009054906101000a900473ffffffffffffffffffffffffffffffffffffffff1673ffffffffffffffffffffffffffffffffffffffff1681526020019060010190808311610ead575b505050505090509450945094509450509193509193565b60008073ffffffffffffffffffffffffffffffffffffffff16600383604051610f379190611c05565b908152602001604051809103902060030160009054906101000a900473ffffffffffffffffffffffffffffffffffffffff1673ffffffffffffffffffffffffffffffffffffffff1614159050919050565b6000600183604051610f9a9190611c05565b908152602001604051809103902060008373ffffffffffffffffffffffffffffffffffffffff1673ffffffffffffffffffffffffffffffffffffffff16815260200190815260200160002060009054906101000a900460ff16905092915050565b6060600073ffffffffffffffffffffffffffffffffffffffff168273ffffffffffffffffffffffffffffffffffffffff160361106c576040517f08c379a000000000000000000000000000000000000000000000000000000000815260040161106390612455565b60405180910390fd5b60006040518060200160405280600081525090506000805b6005805490508110156112705760006004600583815481106110a9576110a86120e7565b5b906000526020600020016040516110c09190612199565b908152602001604051809103902090508573ffffffffffffffffffffffffffffffffffffffff168160030160009054906101000a900473ffffffffffffffffffffffffffffffffffffffff1673ffffffffffffffffffffffffffffffffffffffff160361125c576111bd81600201805461113990611cb7565b80601f016020809104026020016040519081016040528092919081815260200182805461116590611cb7565b80156111b25780601f10611187576101008083540402835291602001916111b2565b820191906000526020600020905b81548152906001019060200180831161119557829003601f168201915b505050505033610f88565b1561125b578060020180546111d190611cb7565b80601f01602080910402602001604051908101604052809291908181526020018280546111fd90611cb7565b801561124a5780601f1061121f5761010080835404028352916020019161124a565b820191906000526020600020905b81548152906001019060200180831161122d57829003601f168201915b505050505093506001925050611270565b5b50808061126890612355565b915050611084565b50806112b1576040517f08c379a00000000000000000000000000000000000000000000000000000000081526004016112a8906124e7565b60405180910390fd5b8192505050919050565b60008054906101000a900473ffffffffffffffffffffffffffffffffffffffff1673ffffffffffffffffffffffffffffffffffffffff163373ffffffffffffffffffffffffffffffffffffffff1614611349576040517f08c379a000000000000000000000000000000000000000000000000000000000815260040161134090612035565b60405180910390fd5b600060018360405161135b9190611c05565b908152602001604051809103902060008373ffffffffffffffffffffffffffffffffffffffff1673ffffffffffffffffffffffffffffffffffffffff16815260200190815260200160002060006101000a81548160ff0219169083151502179055505050565b60008054906101000a900473ffffffffffffffffffffffffffffffffffffffff1673ffffffffffffffffffffffffffffffffffffffff163373ffffffffffffffffffffffffffffffffffffffff161461144f576040517f08c379a000000000000000000000000000000000000000000000000000000000815260040161144690612035565b60405180910390fd5b600180836040516114609190611c05565b908152602001604051809103902060008373ffffffffffffffffffffffffffffffffffffffff1673ffffffffffffffffffffffffffffffffffffffff16815260200190815260200160002060006101000a81548160ff0219169083151502179055505050565b5080546114d290611cb7565b6000825580601f106114e45750611503565b601f0160209004906000526020600020908101906115029190611527565b5b50565b50805460008255906000526020600020908101906115249190611527565b50565b5b80821115611540576000816000905550600101611528565b5090565b6000604051905090565b600080fd5b600080fd5b600080fd5b600080fd5b6000601f19601f8301169050919050565b7f4e487b7100000000000000000000000000000000000000000000000000000000600052604160045260246000fd5b6115ab82611562565b810181811067ffffffffffffffff821117156115ca576115c9611573565b5b80604052505050565b60006115dd611544565b90506115e982826115a2565b919050565b600067ffffffffffffffff82111561160957611608611573565b5b61161282611562565b9050602081019050919050565b82818337600083830152505050565b600061164161163c846115ee565b6115d3565b90508281526020810184848401111561165d5761165c61155d565b5b61166884828561161f565b509392505050565b600082601f83011261168557611684611558565b5b813561169584826020860161162e565b91505092915050565b600073ffffffffffffffffffffffffffffffffffffffff82169050919050565b60006116c98261169e565b9050919050565b6116d9816116be565b81146116e457600080fd5b50565b6000813590506116f6816116d0565b92915050565b600080600080600060a086880312156117185761171761154e565b5b600086013567ffffffffffffffff81111561173657611735611553565b5b61174288828901611670565b955050602086013567ffffffffffffffff81111561176357611762611553565b5b61176f88828901611670565b945050604086013567ffffffffffffffff8111156117905761178f611553565b5b61179c88828901611670565b93505060606117ad888289016116e7565b92505060806117be888289016116e7565b9150509295509295909350565b6000602082840312156117e1576117e061154e565b5b600082013567ffffffffffffffff8111156117ff576117fe611553565b5b61180b84828501611670565b91505092915050565b60006020828403121561182a5761182961154e565b5b6000611838848285016116e7565b91505092915050565b600081519050919050565b600082825260208201905092915050565b6000819050602082019050919050565b600081519050919050565b600082825260208201905092915050565b60005b838110156118a757808201518184015260208101905061188c565b60008484015250505050565b60006118be8261186d565b6118c88185611878565b93506118d8818560208601611889565b6118e181611562565b840191505092915050565b60006118f883836118b3565b905092915050565b6000602082019050919050565b600061191882611841565b611922818561184c565b9350836020820285016119348561185d565b8060005b85811015611970578484038952815161195185826118ec565b945061195c83611900565b925060208a01995050600181019050611938565b50829750879550505050505092915050565b6000602082019050818103600083015261199c818461190d565b905092915050565b600082825260208201905092915050565b60006119c08261186d565b6119ca81856119a4565b93506119da818560208601611889565b6119e381611562565b840191505092915050565b6119f7816116be565b82525050565b600081519050919050565b600082825260208201905092915050565b6000819050602082019050919050565b611a32816116be565b82525050565b6000611a448383611a29565b60208301905092915050565b6000602082019050919050565b6000611a68826119fd565b611a728185611a08565b9350611a7d83611a19565b8060005b83811015611aae578151611a958882611a38565b9750611aa083611a50565b925050600181019050611a81565b5085935050505092915050565b60006080820190508181036000830152611ad581876119b5565b90508181036020830152611ae981866119b5565b9050611af860408301856119ee565b8181036060830152611b0a8184611a5d565b905095945050505050565b60008115159050919050565b611b2a81611b15565b82525050565b6000602082019050611b456000830184611b21565b92915050565b60008060408385031215611b6257611b6161154e565b5b600083013567ffffffffffffffff811115611b8057611b7f611553565b5b611b8c85828601611670565b9250506020611b9d858286016116e7565b9150509250929050565b60006020820190508181036000830152611bc181846119b5565b905092915050565b600081905092915050565b6000611bdf8261186d565b611be98185611bc9565b9350611bf9818560208601611889565b80840191505092915050565b6000611c118284611bd4565b915081905092915050565b7f46696c652043494420616c72656164792075706c6f6164656400000000000000600082015250565b6000611c526019836119a4565b9150611c5d82611c1c565b602082019050919050565b60006020820190508181036000830152611c8181611c45565b9050919050565b7f4e487b7100000000000000000000000000000000000000000000000000000000600052602260045260246000fd5b60006002820490506001821680611ccf57607f821691505b602082108103611ce257611ce1611c88565b5b50919050565b60008190508160005260206000209050919050565b60006020601f8301049050919050565b600082821b905092915050565b600060088302611d4a7fffffffffffffffffffffffffffffffffffffffffffffffffffffffffffffffff82611d0d565b611d548683611d0d565b95508019841693508086168417925050509392505050565b6000819050919050565b6000819050919050565b6000611d9b611d96611d9184611d6c565b611d76565b611d6c565b9050919050565b6000819050919050565b611db583611d80565b611dc9611dc182611da2565b848454611d1a565b825550505050565b600090565b611dde611dd1565b611de9818484611dac565b505050565b5b81811015611e0d57611e02600082611dd6565b600181019050611def565b5050565b601f821115611e5257611e2381611ce8565b611e2c84611cfd565b81016020851015611e3b578190505b611e4f611e4785611cfd565b830182611dee565b50505b505050565b600082821c905092915050565b6000611e7560001984600802611e57565b1980831691505092915050565b6000611e8e8383611e64565b9150826002028217905092915050565b611ea78261186d565b67ffffffffffffffff811115611ec057611ebf611573565b5b611eca8254611cb7565b611ed5828285611e11565b600060209050601f831160018114611f085760008415611ef6578287015190505b611f008582611e82565b865550611f68565b601f198416611f1686611ce8565b60005b82811015611f3e57848901518255600182019150602085019450602081019050611f19565b86831015611f5b5784890151611f57601f891682611e64565b8355505b6001600288020188555050505b505050505050565b60006080820190508181036000830152611f8a81876119b5565b90508181036020830152611f9e81866119b5565b9050611fad60408301856119ee565b611fba60608301846119ee565b95945050505050565b7f4f6e6c792074686520636f6e7472616374206f776e65722063616e2063616c6c60008201527f20746869732066756e6374696f6e000000000000000000000000000000000000602082015250565b600061201f602e836119a4565b915061202a82611fc3565b604082019050919050565b6000602082019050818103600083015261204e81612012565b9050919050565b7f4e6f2066696c65207265636f726420666f756e6420666f72207468697320434960008201527f4400000000000000000000000000000000000000000000000000000000000000602082015250565b60006120b16021836119a4565b91506120bc82612055565b604082019050919050565b600060208201905081810360008301526120e0816120a4565b9050919050565b7f4e487b7100000000000000000000000000000000000000000000000000000000600052603260045260246000fd5b6000815461212381611cb7565b61212d8186611bc9565b94506001821660008114612148576001811461215d57612190565b60ff1983168652811515820286019350612190565b61216685611ce8565b60005b8381101561218857815481890152600182019150602081019050612169565b838801955050505b50505092915050565b60006121a58284612116565b915081905092915050565b7f4e487b7100000000000000000000000000000000000000000000000000000000600052601160045260246000fd5b60006121ea82611d6c565b91506121f583611d6c565b925082820390508181111561220d5761220c6121b0565b5b92915050565b60008154905061222281611cb7565b9050919050565b60008190508160005260206000209050919050565b81810361224c575050612324565b61225582612213565b67ffffffffffffffff81111561226e5761226d611573565b5b6122788254611cb7565b612283828285611e11565b6000601f8311600181146122b257600084156122a0578287015490505b6122aa8582611e82565b86555061231d565b601f1984166122c087612229565b96506122cb86611ce8565b60005b828110156122f3578489015482556001820191506001850194506020810190506122ce565b86831015612310578489015461230c601f891682611e64565b8355505b6001600288020188555050505b5050505050505b565b7f4e487b7100000000000000000000000000000000000000000000000000000000600052603160045260246000fd5b600061236082611d6c565b91507fffffffffffffffffffffffffffffffffffffffffffffffffffffffffffffffff8203612392576123916121b0565b5b600182019050919050565b7f46696c652043494420646f6573206e6f74206578697374000000000000000000600082015250565b60006123d36017836119a4565b91506123de8261239d565b602082019050919050565b60006020820190508181036000830152612402816123c6565b9050919050565b7f496e76616c69642075706c6f6164657220616464726573730000000000000000600082015250565b600061243f6018836119a4565b915061244a82612409565b602082019050919050565b6000602082019050818103600083015261246e81612432565b9050919050565b7f5573657220646f6573206e6f7420686176652061636365737320746f20616e7960008201527f204349442075706c6f61646564206279207468652075706c6f61646572000000602082015250565b60006124d1603d836119a4565b91506124dc82612475565b604082019050919050565b60006020820190508181036000830152612500816124c4565b905091905056fea26469706673582212201e3f8532341cd18fd00d4542a017801bbbdf0aedaed463e1ba34743c0543931564736f6c63430008130033",
  "linkReferences": {},
  "deployedLinkReferences": {}
}