{
  "_format": "hh-sol-artifact-1",
  "contractName": "Storage",
  "sourceName": "contracts/Storage.sol",
  "abi": [
    {
      "inputs": [],
      "stateMutability": "nonpayable",
      "type": "constructor"
    },
    {
      "anonymous": false,
      "inputs": [
        {
          "indexed": false,
          "internalType": "string",
          "name": "fileName",
          "type": "string"
        },
        {
          "indexed": false,
          "internalType": "string",
          "name": "fileCid",
          "type": "string"
        },
        {
          "indexed": false,
          "internalType": "address",
          "name": "ownerAddress",
          "type": "address"
        }
      ],
      "name": "CidUploaded",
      "type": "event"
    },
    {
      "inputs": [
        {
          "internalType": "string",
          "name": "",
          "type": "string"
        },
        {
          "internalType": "uint256",
          "name": "",
          "type": "uint256"
        }
      ],
      "name": "accessListAddresses",
      "outputs": [
        {
          "internalType": "address",
          "name": "",
          "type": "address"
        }
      ],
      "stateMutability": "view",
      "type": "function"
    },
    {
      "inputs": [
        {
          "internalType": "string",
          "name": "cid",
          "type": "string"
        },
        {
          "internalType": "address",
          "name": "user",
          "type": "address"
        }
      ],
      "name": "canAccess",
      "outputs": [
        {
          "internalType": "bool",
          "name": "",
          "type": "bool"
        }
      ],
      "stateMutability": "view",
      "type": "function"
    },
    {
      "inputs": [
        {
          "internalType": "string",
          "name": "cid",
          "type": "string"
        }
      ],
      "name": "cidExists",
      "outputs": [
        {
          "internalType": "bool",
          "name": "",
          "type": "bool"
        }
      ],
      "stateMutability": "view",
      "type": "function"
    },
    {
      "inputs": [
        {
          "internalType": "string",
          "name": "fileCid",
          "type": "string"
        }
      ],
      "name": "deleteFileRecord",
      "outputs": [],
      "stateMutability": "nonpayable",
      "type": "function"
    },
    {
      "inputs": [],
      "name": "getAccessList",
      "outputs": [
        {
          "internalType": "address[]",
          "name": "",
          "type": "address[]"
        }
      ],
      "stateMutability": "view",
      "type": "function"
    },
    {
      "inputs": [
        {
          "internalType": "address",
          "name": "uploaderAddress",
          "type": "address"
        }
      ],
      "name": "getCid",
      "outputs": [
        {
          "internalType": "string",
          "name": "",
          "type": "string"
        }
      ],
      "stateMutability": "view",
      "type": "function"
    },
    {
      "inputs": [
        {
          "internalType": "address",
          "name": "uploaderAddress",
          "type": "address"
        }
      ],
      "name": "getUploadedCids",
      "outputs": [
        {
          "internalType": "string[]",
          "name": "",
          "type": "string[]"
        }
      ],
      "stateMutability": "view",
      "type": "function"
    },
    {
      "inputs": [
        {
          "internalType": "string",
          "name": "cid",
          "type": "string"
        },
        {
          "internalType": "address",
          "name": "user",
          "type": "address"
        }
      ],
      "name": "grantAccess",
      "outputs": [],
      "stateMutability": "nonpayable",
      "type": "function"
    },
    {
      "inputs": [
        {
          "internalType": "string",
          "name": "cid",
          "type": "string"
        },
        {
          "internalType": "address",
          "name": "user",
          "type": "address"
        }
      ],
      "name": "revokeAccess",
      "outputs": [],
      "stateMutability": "nonpayable",
      "type": "function"
    },
    {
      "inputs": [
        {
          "internalType": "string",
          "name": "uploaderName",
          "type": "string"
        },
        {
          "internalType": "string",
          "name": "fileName",
          "type": "string"
        },
        {
          "internalType": "string",
          "name": "fileCid",
          "type": "string"
        },
        {
          "internalType": "address",
          "name": "ownerAddress",
          "type": "address"
        }
      ],
      "name": "uploadCid",
      "outputs": [],
      "stateMutability": "nonpayable",
      "type": "function"
    },
    {
      "inputs": [
        {
          "internalType": "string",
          "name": "fileCid",
          "type": "string"
        }
      ],
      "name": "viewFileInfo",
      "outputs": [
        {
          "internalType": "string",
          "name": "",
          "type": "string"
        },
        {
          "internalType": "string",
          "name": "",
          "type": "string"
        },
        {
          "internalType": "address",
          "name": "",
          "type": "address"
        },
        {
          "internalType": "address[]",
          "name": "",
          "type": "address[]"
        }
      ],
      "stateMutability": "view",
      "type": "function"
    }
  ],
  "bytecode": "0x608060405234801561001057600080fd5b50336000806101000a81548173ffffffffffffffffffffffffffffffffffffffff021916908373ffffffffffffffffffffffffffffffffffffffff160217905550612a87806100606000396000f3fe608060405234801561001057600080fd5b50600436106100a95760003560e01c8063a77015d111610071578063a77015d114610167578063b7ef5baf14610197578063d3419723146101c7578063dfe0b5fe146101f7578063f37c215e14610213578063febb45e51461022f576100a9565b806334b35f16146100ae5780638d5ddbb3146100ca5780638e8d84a5146100e85780639939fba614610104578063a108113014610134575b600080fd5b6100c860048036038101906100c39190611ab3565b61025f565b005b6100d2610844565b6040516100df9190611bec565b60405180910390f35b61010260048036038101906100fd9190611c3a565b610a5d565b005b61011e60048036038101906101199190611cf5565b610d55565b60405161012b9190611e63565b60405180910390f35b61014e60048036038101906101499190611ab3565b610e6d565b60405161015e9493929190611ede565b60405180910390f35b610181600480360381019061017c9190611ab3565b611127565b60405161018e9190611f53565b60405180910390f35b6101b160048036038101906101ac9190611f6e565b6111a1565b6040516101be9190611f53565b60405180910390f35b6101e160048036038101906101dc9190611cf5565b611214565b6040516101ee9190611fca565b60405180910390f35b610211600480360381019061020c9190611f6e565b6114d4565b005b61022d60048036038101906102289190611f6e565b611781565b005b61024960048036038101906102449190612022565b611877565b604051610256919061207e565b60405180910390f35b600073ffffffffffffffffffffffffffffffffffffffff1660058260405161028791906120d5565b908152602001604051809103902060030160009054906101000a900473ffffffffffffffffffffffffffffffffffffffff1673ffffffffffffffffffffffffffffffffffffffff160361030f576040517f08c379a00000000000000000000000000000000000000000000000000000000081526004016103069061215e565b60405180910390fd5b3373ffffffffffffffffffffffffffffffffffffffff1660058260405161033691906120d5565b908152602001604051809103902060030160009054906101000a900473ffffffffffffffffffffffffffffffffffffffff1673ffffffffffffffffffffffffffffffffffffffff16146103be576040517f08c379a00000000000000000000000000000000000000000000000000000000081526004016103b5906121f0565b60405180910390fd5b60006005826040516103d091906120d5565b908152602001604051809103902060030160009054906101000a900473ffffffffffffffffffffffffffffffffffffffff16905060058260405161041491906120d5565b90815260200160405180910390206000808201600061043391906118db565b60018201600061044391906118db565b60028201600061045391906118db565b6003820160006101000a81549073ffffffffffffffffffffffffffffffffffffffff021916905560048201600061048a919061191b565b505060005b6006805490508110156105ae57826040516020016104ad91906120d5565b60405160208183030381529060405280519060200120600682815481106104d7576104d6612210565b5b906000526020600020016040516020016104f19190612337565b604051602081830303815290604052805190602001200361059b5760066001600680549050610520919061237d565b8154811061053157610530612210565b5b906000526020600020016006828154811061054f5761054e612210565b5b9060005260206000200190816105659190612573565b5060068054806105785761057761265b565b5b60019003818190600052602060002001600061059491906118db565b90556105ae565b80806105a69061268a565b91505061048f565b5060005b600260008373ffffffffffffffffffffffffffffffffffffffff1673ffffffffffffffffffffffffffffffffffffffff1681526020019081526020016000208054905081101561083f578260405160200161060d91906120d5565b60405160208183030381529060405280519060200120600260008473ffffffffffffffffffffffffffffffffffffffff1673ffffffffffffffffffffffffffffffffffffffff168152602001908152602001600020828154811061067457610673612210565b5b9060005260206000200160405160200161068e9190612337565b604051602081830303815290604052805190602001200361082c57600260008373ffffffffffffffffffffffffffffffffffffffff1673ffffffffffffffffffffffffffffffffffffffff1681526020019081526020016000206001600260008573ffffffffffffffffffffffffffffffffffffffff1673ffffffffffffffffffffffffffffffffffffffff16815260200190815260200160002080549050610737919061237d565b8154811061074857610747612210565b5b90600052602060002001600260008473ffffffffffffffffffffffffffffffffffffffff1673ffffffffffffffffffffffffffffffffffffffff16815260200190815260200160002082815481106107a3576107a2612210565b5b9060005260206000200190816107b99190612573565b50600260008373ffffffffffffffffffffffffffffffffffffffff1673ffffffffffffffffffffffffffffffffffffffff1681526020019081526020016000208054806108095761080861265b565b5b60019003818190600052602060002001600061082591906118db565b905561083f565b80806108379061268a565b9150506105b2565b505050565b60606000600260003373ffffffffffffffffffffffffffffffffffffffff1673ffffffffffffffffffffffffffffffffffffffff16815260200190815260200160002080549050116108cb576040517f08c379a00000000000000000000000000000000000000000000000000000000081526004016108c290612744565b60405180910390fd5b6000600260003373ffffffffffffffffffffffffffffffffffffffff1673ffffffffffffffffffffffffffffffffffffffff16815260200190815260200160002060008154811061091f5761091e612210565b5b9060005260206000200180546109349061226e565b80601f01602080910402602001604051908101604052809291908181526020018280546109609061226e565b80156109ad5780601f10610982576101008083540402835291602001916109ad565b820191906000526020600020905b81548152906001019060200180831161099057829003601f168201915b505050505090506004816040516109c491906120d5565b9081526020016040518091039020805480602002602001604051908101604052809291908181526020018280548015610a5257602002820191906000526020600020905b8160009054906101000a900473ffffffffffffffffffffffffffffffffffffffff1673ffffffffffffffffffffffffffffffffffffffff1681526020019060010190808311610a08575b505050505091505090565b600073ffffffffffffffffffffffffffffffffffffffff16600583604051610a8591906120d5565b908152602001604051809103902060030160009054906101000a900473ffffffffffffffffffffffffffffffffffffffff1673ffffffffffffffffffffffffffffffffffffffff1614610b0d576040517f08c379a0000000000000000000000000000000000000000000000000000000008152600401610b04906127b0565b60405180910390fd5b83600583604051610b1e91906120d5565b90815260200160405180910390206000019081610b3b91906127d0565b5082600583604051610b4d91906120d5565b90815260200160405180910390206001019081610b6a91906127d0565b5081600583604051610b7c91906120d5565b90815260200160405180910390206002019081610b9991906127d0565b5033600583604051610bab91906120d5565b908152602001604051809103902060030160006101000a81548173ffffffffffffffffffffffffffffffffffffffff021916908373ffffffffffffffffffffffffffffffffffffffff16021790555060018083604051610c0b91906120d5565b908152602001604051809103902060008373ffffffffffffffffffffffffffffffffffffffff1673ffffffffffffffffffffffffffffffffffffffff16815260200190815260200160002060006101000a81548160ff021916908315150217905550600682908060018154018082558091505060019003906000526020600020016000909190919091509081610ca191906127d0565b50600260003373ffffffffffffffffffffffffffffffffffffffff1673ffffffffffffffffffffffffffffffffffffffff16815260200190815260200160002082908060018154018082558091505060019003906000526020600020016000909190919091509081610d1391906127d0565b507f781717f9ad7df7a8f5da91299c0ac0c2cad2dd024ab0bcbbe73a097fd09702f9838383604051610d47939291906128a2565b60405180910390a150505050565b6060600260008373ffffffffffffffffffffffffffffffffffffffff1673ffffffffffffffffffffffffffffffffffffffff168152602001908152602001600020805480602002602001604051908101604052809291908181526020016000905b82821015610e62578382906000526020600020018054610dd59061226e565b80601f0160208091040260200160405190810160405280929190818152602001828054610e019061226e565b8015610e4e5780601f10610e2357610100808354040283529160200191610e4e565b820191906000526020600020905b815481529060010190602001808311610e3157829003601f168201915b505050505081526020019060010190610db6565b505050509050919050565b60608060006060600073ffffffffffffffffffffffffffffffffffffffff16600586604051610e9c91906120d5565b908152602001604051809103902060030160009054906101000a900473ffffffffffffffffffffffffffffffffffffffff1673ffffffffffffffffffffffffffffffffffffffff1603610f24576040517f08c379a0000000000000000000000000000000000000000000000000000000008152600401610f1b90612933565b60405180910390fd5b6000600586604051610f3691906120d5565b9081526020016040518091039020905080600001816001018260030160009054906101000a900473ffffffffffffffffffffffffffffffffffffffff1683600401838054610f839061226e565b80601f0160208091040260200160405190810160405280929190818152602001828054610faf9061226e565b8015610ffc5780601f10610fd157610100808354040283529160200191610ffc565b820191906000526020600020905b815481529060010190602001808311610fdf57829003601f168201915b5050505050935082805461100f9061226e565b80601f016020809104026020016040519081016040528092919081815260200182805461103b9061226e565b80156110885780601f1061105d57610100808354040283529160200191611088565b820191906000526020600020905b81548152906001019060200180831161106b57829003601f168201915b505050505092508080548060200260200160405190810160405280929190818152602001828054801561111057602002820191906000526020600020905b8160009054906101000a900473ffffffffffffffffffffffffffffffffffffffff1673ffffffffffffffffffffffffffffffffffffffff16815260200190600101908083116110c6575b505050505090509450945094509450509193509193565b60008073ffffffffffffffffffffffffffffffffffffffff1660038360405161115091906120d5565b908152602001604051809103902060030160009054906101000a900473ffffffffffffffffffffffffffffffffffffffff1673ffffffffffffffffffffffffffffffffffffffff1614159050919050565b60006001836040516111b391906120d5565b908152602001604051809103902060008373ffffffffffffffffffffffffffffffffffffffff1673ffffffffffffffffffffffffffffffffffffffff16815260200190815260200160002060009054906101000a900460ff16905092915050565b6060600073ffffffffffffffffffffffffffffffffffffffff168273ffffffffffffffffffffffffffffffffffffffff1603611285576040517f08c379a000000000000000000000000000000000000000000000000000000000815260040161127c9061299f565b60405180910390fd5b60006040518060200160405280600081525090506000805b6006805490508110156114895760006005600683815481106112c2576112c1612210565b5b906000526020600020016040516112d99190612337565b908152602001604051809103902090508573ffffffffffffffffffffffffffffffffffffffff168160030160009054906101000a900473ffffffffffffffffffffffffffffffffffffffff1673ffffffffffffffffffffffffffffffffffffffff1603611475576113d68160020180546113529061226e565b80601f016020809104026020016040519081016040528092919081815260200182805461137e9061226e565b80156113cb5780601f106113a0576101008083540402835291602001916113cb565b820191906000526020600020905b8154815290600101906020018083116113ae57829003601f168201915b5050505050336111a1565b15611474578060020180546113ea9061226e565b80601f01602080910402602001604051908101604052809291908181526020018280546114169061226e565b80156114635780601f1061143857610100808354040283529160200191611463565b820191906000526020600020905b81548152906001019060200180831161144657829003601f168201915b505050505093506001925050611489565b5b5080806114819061268a565b91505061129d565b50806114ca576040517f08c379a00000000000000000000000000000000000000000000000000000000081526004016114c190612a31565b60405180910390fd5b8192505050919050565b60006001836040516114e691906120d5565b908152602001604051809103902060008373ffffffffffffffffffffffffffffffffffffffff1673ffffffffffffffffffffffffffffffffffffffff16815260200190815260200160002060006101000a81548160ff02191690831515021790555060005b60048360405161155b91906120d5565b90815260200160405180910390208054905081101561177c578173ffffffffffffffffffffffffffffffffffffffff1660048460405161159b91906120d5565b908152602001604051809103902082815481106115bb576115ba612210565b5b9060005260206000200160009054906101000a900473ffffffffffffffffffffffffffffffffffffffff1673ffffffffffffffffffffffffffffffffffffffff16036117695760048360405161161191906120d5565b9081526020016040518091039020600160048560405161163191906120d5565b90815260200160405180910390208054905061164d919061237d565b8154811061165e5761165d612210565b5b9060005260206000200160009054906101000a900473ffffffffffffffffffffffffffffffffffffffff1660048460405161169991906120d5565b908152602001604051809103902082815481106116b9576116b8612210565b5b9060005260206000200160006101000a81548173ffffffffffffffffffffffffffffffffffffffff021916908373ffffffffffffffffffffffffffffffffffffffff16021790555060048360405161171191906120d5565b908152602001604051809103902080548061172f5761172e61265b565b5b6001900381819060005260206000200160006101000a81549073ffffffffffffffffffffffffffffffffffffffff0219169055905561177c565b80806117749061268a565b91505061154b565b505050565b6001808360405161179291906120d5565b908152602001604051809103902060008373ffffffffffffffffffffffffffffffffffffffff1673ffffffffffffffffffffffffffffffffffffffff16815260200190815260200160002060006101000a81548160ff02191690831515021790555060048260405161180491906120d5565b9081526020016040518091039020819080600181540180825580915050600190039060005260206000200160009091909190916101000a81548173ffffffffffffffffffffffffffffffffffffffff021916908373ffffffffffffffffffffffffffffffffffffffff1602179055505050565b60048280516020810182018051848252602083016020850120818352809550505050505081815481106118a957600080fd5b906000526020600020016000915091509054906101000a900473ffffffffffffffffffffffffffffffffffffffff1681565b5080546118e79061226e565b6000825580601f106118f95750611918565b601f016020900490600052602060002090810190611917919061193c565b5b50565b5080546000825590600052602060002090810190611939919061193c565b50565b5b8082111561195557600081600090555060010161193d565b5090565b6000604051905090565b600080fd5b600080fd5b600080fd5b600080fd5b6000601f19601f8301169050919050565b7f4e487b7100000000000000000000000000000000000000000000000000000000600052604160045260246000fd5b6119c082611977565b810181811067ffffffffffffffff821117156119df576119de611988565b5b80604052505050565b60006119f2611959565b90506119fe82826119b7565b919050565b600067ffffffffffffffff821115611a1e57611a1d611988565b5b611a2782611977565b9050602081019050919050565b82818337600083830152505050565b6000611a56611a5184611a03565b6119e8565b905082815260208101848484011115611a7257611a71611972565b5b611a7d848285611a34565b509392505050565b600082601f830112611a9a57611a9961196d565b5b8135611aaa848260208601611a43565b91505092915050565b600060208284031215611ac957611ac8611963565b5b600082013567ffffffffffffffff811115611ae757611ae6611968565b5b611af384828501611a85565b91505092915050565b600081519050919050565b600082825260208201905092915050565b6000819050602082019050919050565b600073ffffffffffffffffffffffffffffffffffffffff82169050919050565b6000611b5382611b28565b9050919050565b611b6381611b48565b82525050565b6000611b758383611b5a565b60208301905092915050565b6000602082019050919050565b6000611b9982611afc565b611ba38185611b07565b9350611bae83611b18565b8060005b83811015611bdf578151611bc68882611b69565b9750611bd183611b81565b925050600181019050611bb2565b5085935050505092915050565b60006020820190508181036000830152611c068184611b8e565b905092915050565b611c1781611b48565b8114611c2257600080fd5b50565b600081359050611c3481611c0e565b92915050565b60008060008060808587031215611c5457611c53611963565b5b600085013567ffffffffffffffff811115611c7257611c71611968565b5b611c7e87828801611a85565b945050602085013567ffffffffffffffff811115611c9f57611c9e611968565b5b611cab87828801611a85565b935050604085013567ffffffffffffffff811115611ccc57611ccb611968565b5b611cd887828801611a85565b9250506060611ce987828801611c25565b91505092959194509250565b600060208284031215611d0b57611d0a611963565b5b6000611d1984828501611c25565b91505092915050565b600081519050919050565b600082825260208201905092915050565b6000819050602082019050919050565b600081519050919050565b600082825260208201905092915050565b60005b83811015611d88578082015181840152602081019050611d6d565b60008484015250505050565b6000611d9f82611d4e565b611da98185611d59565b9350611db9818560208601611d6a565b611dc281611977565b840191505092915050565b6000611dd98383611d94565b905092915050565b6000602082019050919050565b6000611df982611d22565b611e038185611d2d565b935083602082028501611e1585611d3e565b8060005b85811015611e515784840389528151611e328582611dcd565b9450611e3d83611de1565b925060208a01995050600181019050611e19565b50829750879550505050505092915050565b60006020820190508181036000830152611e7d8184611dee565b905092915050565b600082825260208201905092915050565b6000611ea182611d4e565b611eab8185611e85565b9350611ebb818560208601611d6a565b611ec481611977565b840191505092915050565b611ed881611b48565b82525050565b60006080820190508181036000830152611ef88187611e96565b90508181036020830152611f0c8186611e96565b9050611f1b6040830185611ecf565b8181036060830152611f2d8184611b8e565b905095945050505050565b60008115159050919050565b611f4d81611f38565b82525050565b6000602082019050611f686000830184611f44565b92915050565b60008060408385031215611f8557611f84611963565b5b600083013567ffffffffffffffff811115611fa357611fa2611968565b5b611faf85828601611a85565b9250506020611fc085828601611c25565b9150509250929050565b60006020820190508181036000830152611fe48184611e96565b905092915050565b6000819050919050565b611fff81611fec565b811461200a57600080fd5b50565b60008135905061201c81611ff6565b92915050565b6000806040838503121561203957612038611963565b5b600083013567ffffffffffffffff81111561205757612056611968565b5b61206385828601611a85565b92505060206120748582860161200d565b9150509250929050565b60006020820190506120936000830184611ecf565b92915050565b600081905092915050565b60006120af82611d4e565b6120b98185612099565b93506120c9818560208601611d6a565b80840191505092915050565b60006120e182846120a4565b915081905092915050565b7f4e6f2066696c65207265636f726420666f756e6420666f72207468697320434960008201527f4400000000000000000000000000000000000000000000000000000000000000602082015250565b6000612148602183611e85565b9150612153826120ec565b604082019050919050565b600060208201905081810360008301526121778161213b565b9050919050565b7f4f6e6c7920746865206f776e65722063616e2064656c6574652074686973206660008201527f696c65207265636f726400000000000000000000000000000000000000000000602082015250565b60006121da602a83611e85565b91506121e58261217e565b604082019050919050565b60006020820190508181036000830152612209816121cd565b9050919050565b7f4e487b7100000000000000000000000000000000000000000000000000000000600052603260045260246000fd5b7f4e487b7100000000000000000000000000000000000000000000000000000000600052602260045260246000fd5b6000600282049050600182168061228657607f821691505b6020821081036122995761229861223f565b5b50919050565b60008190508160005260206000209050919050565b600081546122c18161226e565b6122cb8186612099565b945060018216600081146122e657600181146122fb5761232e565b60ff198316865281151582028601935061232e565b6123048561229f565b60005b8381101561232657815481890152600182019150602081019050612307565b838801955050505b50505092915050565b600061234382846122b4565b915081905092915050565b7f4e487b7100000000000000000000000000000000000000000000000000000000600052601160045260246000fd5b600061238882611fec565b915061239383611fec565b92508282039050818111156123ab576123aa61234e565b5b92915050565b6000815490506123c08161226e565b9050919050565b60008190508160005260206000209050919050565b60006020601f8301049050919050565b600082821b905092915050565b6000600883026124297fffffffffffffffffffffffffffffffffffffffffffffffffffffffffffffffff826123ec565b61243386836123ec565b95508019841693508086168417925050509392505050565b6000819050919050565b600061247061246b61246684611fec565b61244b565b611fec565b9050919050565b6000819050919050565b61248a83612455565b61249e61249682612477565b8484546123f9565b825550505050565b600090565b6124b36124a6565b6124be818484612481565b505050565b5b818110156124e2576124d76000826124ab565b6001810190506124c4565b5050565b601f821115612527576124f88161229f565b612501846123dc565b81016020851015612510578190505b61252461251c856123dc565b8301826124c3565b50505b505050565b600082821c905092915050565b600061254a6000198460080261252c565b1980831691505092915050565b60006125638383612539565b9150826002028217905092915050565b818103612581575050612659565b61258a826123b1565b67ffffffffffffffff8111156125a3576125a2611988565b5b6125ad825461226e565b6125b88282856124e6565b6000601f8311600181146125e757600084156125d5578287015490505b6125df8582612557565b865550612652565b601f1984166125f5876123c7565b96506126008661229f565b60005b8281101561262857848901548255600182019150600185019450602081019050612603565b868310156126455784890154612641601f891682612539565b8355505b6001600288020188555050505b5050505050505b565b7f4e487b7100000000000000000000000000000000000000000000000000000000600052603160045260246000fd5b600061269582611fec565b91507fffffffffffffffffffffffffffffffffffffffffffffffffffffffffffffffff82036126c7576126c661234e565b5b600182019050919050565b7f4e6f2066696c65732075706c6f6164656420627920746869732061646472657360008201527f7300000000000000000000000000000000000000000000000000000000000000602082015250565b600061272e602183611e85565b9150612739826126d2565b604082019050919050565b6000602082019050818103600083015261275d81612721565b9050919050565b7f46696c652043494420616c72656164792075706c6f6164656400000000000000600082015250565b600061279a601983611e85565b91506127a582612764565b602082019050919050565b600060208201905081810360008301526127c98161278d565b9050919050565b6127d982611d4e565b67ffffffffffffffff8111156127f2576127f1611988565b5b6127fc825461226e565b6128078282856124e6565b600060209050601f83116001811461283a5760008415612828578287015190505b6128328582612557565b86555061289a565b601f1984166128488661229f565b60005b828110156128705784890151825560018201915060208501945060208101905061284b565b8683101561288d5784890151612889601f891682612539565b8355505b6001600288020188555050505b505050505050565b600060608201905081810360008301526128bc8186611e96565b905081810360208301526128d08185611e96565b90506128df6040830184611ecf565b949350505050565b7f46696c652043494420646f6573206e6f74206578697374000000000000000000600082015250565b600061291d601783611e85565b9150612928826128e7565b602082019050919050565b6000602082019050818103600083015261294c81612910565b9050919050565b7f496e76616c69642075706c6f6164657220616464726573730000000000000000600082015250565b6000612989601883611e85565b915061299482612953565b602082019050919050565b600060208201905081810360008301526129b88161297c565b9050919050565b7f5573657220646f6573206e6f7420686176652061636365737320746f20616e7960008201527f204349442075706c6f61646564206279207468652075706c6f61646572000000602082015250565b6000612a1b603d83611e85565b9150612a26826129bf565b604082019050919050565b60006020820190508181036000830152612a4a81612a0e565b905091905056fea26469706673582212201bcef1acfee7c7de275d3cbb5b0da1d523dc78b139b748ff3b2db78fb84c386b64736f6c63430008130033",
  "linkReferences": {},
  "deployedLinkReferences": {}
}