{
  "_format": "hh-sol-artifact-1",
  "contractName": "Storage",
  "sourceName": "contracts/Storage.sol",
  "abi": [
    {
      "inputs": [],
      "stateMutability": "nonpayable",
      "type": "constructor"
    },
    {
      "anonymous": false,
      "inputs": [
        {
          "indexed": false,
          "internalType": "string",
          "name": "fileName",
          "type": "string"
        },
        {
          "indexed": false,
          "internalType": "string",
          "name": "fileCid",
          "type": "string"
        },
        {
          "indexed": false,
          "internalType": "address",
          "name": "ownerAddress",
          "type": "address"
        }
      ],
      "name": "CidUploaded",
      "type": "event"
    },
    {
      "inputs": [
        {
          "internalType": "string",
          "name": "cid",
          "type": "string"
        },
        {
          "internalType": "address",
          "name": "user",
          "type": "address"
        }
      ],
      "name": "canAccess",
      "outputs": [
        {
          "internalType": "bool",
          "name": "",
          "type": "bool"
        }
      ],
      "stateMutability": "view",
      "type": "function"
    },
    {
      "inputs": [
        {
          "internalType": "string",
          "name": "cid",
          "type": "string"
        }
      ],
      "name": "cidExists",
      "outputs": [
        {
          "internalType": "bool",
          "name": "",
          "type": "bool"
        }
      ],
      "stateMutability": "view",
      "type": "function"
    },
    {
      "inputs": [
        {
          "internalType": "string",
          "name": "fileCid",
          "type": "string"
        }
      ],
      "name": "deleteFileRecord",
      "outputs": [],
      "stateMutability": "nonpayable",
      "type": "function"
    },
    {
      "inputs": [
        {
          "internalType": "address",
          "name": "uploaderAddress",
          "type": "address"
        }
      ],
      "name": "getCid",
      "outputs": [
        {
          "internalType": "string",
          "name": "",
          "type": "string"
        }
      ],
      "stateMutability": "view",
      "type": "function"
    },
    {
      "inputs": [
        {
          "internalType": "address",
          "name": "uploaderAddress",
          "type": "address"
        }
      ],
      "name": "getUploadedCids",
      "outputs": [
        {
          "internalType": "string[]",
          "name": "",
          "type": "string[]"
        }
      ],
      "stateMutability": "view",
      "type": "function"
    },
    {
      "inputs": [
        {
          "internalType": "string",
          "name": "cid",
          "type": "string"
        },
        {
          "internalType": "address",
          "name": "user",
          "type": "address"
        }
      ],
      "name": "grantAccess",
      "outputs": [],
      "stateMutability": "nonpayable",
      "type": "function"
    },
    {
      "inputs": [
        {
          "internalType": "string",
          "name": "cid",
          "type": "string"
        },
        {
          "internalType": "address",
          "name": "user",
          "type": "address"
        }
      ],
      "name": "revokeAccess",
      "outputs": [],
      "stateMutability": "nonpayable",
      "type": "function"
    },
    {
      "inputs": [
        {
          "internalType": "string",
          "name": "uploaderName",
          "type": "string"
        },
        {
          "internalType": "string",
          "name": "fileName",
          "type": "string"
        },
        {
          "internalType": "string",
          "name": "fileCid",
          "type": "string"
        },
        {
          "internalType": "address",
          "name": "ownerAddress",
          "type": "address"
        }
      ],
      "name": "uploadCid",
      "outputs": [],
      "stateMutability": "nonpayable",
      "type": "function"
    },
    {
      "inputs": [
        {
          "internalType": "string",
          "name": "fileCid",
          "type": "string"
        }
      ],
      "name": "viewFileInfo",
      "outputs": [
        {
          "internalType": "string",
          "name": "",
          "type": "string"
        },
        {
          "internalType": "string",
          "name": "",
          "type": "string"
        },
        {
          "internalType": "address",
          "name": "",
          "type": "address"
        },
        {
          "internalType": "address[]",
          "name": "",
          "type": "address[]"
        }
      ],
      "stateMutability": "view",
      "type": "function"
    }
  ],
  "bytecode": "0x608060405234801561001057600080fd5b50336000806101000a81548173ffffffffffffffffffffffffffffffffffffffff021916908373ffffffffffffffffffffffffffffffffffffffff16021790555061239b806100606000396000f3fe608060405234801561001057600080fd5b50600436106100935760003560e01c8063a77015d111610066578063a77015d114610133578063b7ef5baf14610163578063d341972314610193578063dfe0b5fe146101c3578063f37c215e146101df57610093565b806334b35f16146100985780638e8d84a5146100b45780639939fba6146100d0578063a108113014610100575b600080fd5b6100b260048036038101906100ad919061151e565b6101fb565b005b6100ce60048036038101906100c991906115c5565b6107e0565b005b6100ea60048036038101906100e59190611680565b610ad8565b6040516100f791906117ee565b60405180910390f35b61011a6004803603810190610115919061151e565b610bf0565b60405161012a9493929190611927565b60405180910390f35b61014d6004803603810190610148919061151e565b610eaa565b60405161015a919061199c565b60405180910390f35b61017d600480360381019061017891906119b7565b610f24565b60405161018a919061199c565b60405180910390f35b6101ad60048036038101906101a89190611680565b610f97565b6040516101ba9190611a13565b60405180910390f35b6101dd60048036038101906101d891906119b7565b611257565b005b6101f960048036038101906101f491906119b7565b6112cf565b005b600073ffffffffffffffffffffffffffffffffffffffff166004826040516102239190611a71565b908152602001604051809103902060030160009054906101000a900473ffffffffffffffffffffffffffffffffffffffff1673ffffffffffffffffffffffffffffffffffffffff16036102ab576040517f08c379a00000000000000000000000000000000000000000000000000000000081526004016102a290611afa565b60405180910390fd5b3373ffffffffffffffffffffffffffffffffffffffff166004826040516102d29190611a71565b908152602001604051809103902060030160009054906101000a900473ffffffffffffffffffffffffffffffffffffffff1673ffffffffffffffffffffffffffffffffffffffff161461035a576040517f08c379a000000000000000000000000000000000000000000000000000000000815260040161035190611b8c565b60405180910390fd5b600060048260405161036c9190611a71565b908152602001604051809103902060030160009054906101000a900473ffffffffffffffffffffffffffffffffffffffff1690506004826040516103b09190611a71565b9081526020016040518091039020600080820160006103cf9190611346565b6001820160006103df9190611346565b6002820160006103ef9190611346565b6003820160006101000a81549073ffffffffffffffffffffffffffffffffffffffff02191690556004820160006104269190611386565b505060005b60058054905081101561054a57826040516020016104499190611a71565b604051602081830303815290604052805190602001206005828154811061047357610472611bac565b5b9060005260206000200160405160200161048d9190611cd3565b604051602081830303815290604052805190602001200361053757600560016005805490506104bc9190611d23565b815481106104cd576104cc611bac565b5b90600052602060002001600582815481106104eb576104ea611bac565b5b9060005260206000200190816105019190611f19565b50600580548061051457610513612001565b5b6001900381819060005260206000200160006105309190611346565b905561054a565b808061054290612030565b91505061042b565b5060005b600260008373ffffffffffffffffffffffffffffffffffffffff1673ffffffffffffffffffffffffffffffffffffffff168152602001908152602001600020805490508110156107db57826040516020016105a99190611a71565b60405160208183030381529060405280519060200120600260008473ffffffffffffffffffffffffffffffffffffffff1673ffffffffffffffffffffffffffffffffffffffff16815260200190815260200160002082815481106106105761060f611bac565b5b9060005260206000200160405160200161062a9190611cd3565b60405160208183030381529060405280519060200120036107c857600260008373ffffffffffffffffffffffffffffffffffffffff1673ffffffffffffffffffffffffffffffffffffffff1681526020019081526020016000206001600260008573ffffffffffffffffffffffffffffffffffffffff1673ffffffffffffffffffffffffffffffffffffffff168152602001908152602001600020805490506106d39190611d23565b815481106106e4576106e3611bac565b5b90600052602060002001600260008473ffffffffffffffffffffffffffffffffffffffff1673ffffffffffffffffffffffffffffffffffffffff168152602001908152602001600020828154811061073f5761073e611bac565b5b9060005260206000200190816107559190611f19565b50600260008373ffffffffffffffffffffffffffffffffffffffff1673ffffffffffffffffffffffffffffffffffffffff1681526020019081526020016000208054806107a5576107a4612001565b5b6001900381819060005260206000200160006107c19190611346565b90556107db565b80806107d390612030565b91505061054e565b505050565b600073ffffffffffffffffffffffffffffffffffffffff166004836040516108089190611a71565b908152602001604051809103902060030160009054906101000a900473ffffffffffffffffffffffffffffffffffffffff1673ffffffffffffffffffffffffffffffffffffffff1614610890576040517f08c379a0000000000000000000000000000000000000000000000000000000008152600401610887906120c4565b60405180910390fd5b836004836040516108a19190611a71565b908152602001604051809103902060000190816108be91906120e4565b50826004836040516108d09190611a71565b908152602001604051809103902060010190816108ed91906120e4565b50816004836040516108ff9190611a71565b9081526020016040518091039020600201908161091c91906120e4565b503360048360405161092e9190611a71565b908152602001604051809103902060030160006101000a81548173ffffffffffffffffffffffffffffffffffffffff021916908373ffffffffffffffffffffffffffffffffffffffff1602179055506001808360405161098e9190611a71565b908152602001604051809103902060008373ffffffffffffffffffffffffffffffffffffffff1673ffffffffffffffffffffffffffffffffffffffff16815260200190815260200160002060006101000a81548160ff021916908315150217905550600582908060018154018082558091505060019003906000526020600020016000909190919091509081610a2491906120e4565b50600260003373ffffffffffffffffffffffffffffffffffffffff1673ffffffffffffffffffffffffffffffffffffffff16815260200190815260200160002082908060018154018082558091505060019003906000526020600020016000909190919091509081610a9691906120e4565b507f781717f9ad7df7a8f5da91299c0ac0c2cad2dd024ab0bcbbe73a097fd09702f9838383604051610aca939291906121b6565b60405180910390a150505050565b6060600260008373ffffffffffffffffffffffffffffffffffffffff1673ffffffffffffffffffffffffffffffffffffffff168152602001908152602001600020805480602002602001604051908101604052809291908181526020016000905b82821015610be5578382906000526020600020018054610b5890611c0a565b80601f0160208091040260200160405190810160405280929190818152602001828054610b8490611c0a565b8015610bd15780601f10610ba657610100808354040283529160200191610bd1565b820191906000526020600020905b815481529060010190602001808311610bb457829003601f168201915b505050505081526020019060010190610b39565b505050509050919050565b60608060006060600073ffffffffffffffffffffffffffffffffffffffff16600486604051610c1f9190611a71565b908152602001604051809103902060030160009054906101000a900473ffffffffffffffffffffffffffffffffffffffff1673ffffffffffffffffffffffffffffffffffffffff1603610ca7576040517f08c379a0000000000000000000000000000000000000000000000000000000008152600401610c9e90612247565b60405180910390fd5b6000600486604051610cb99190611a71565b9081526020016040518091039020905080600001816001018260030160009054906101000a900473ffffffffffffffffffffffffffffffffffffffff1683600401838054610d0690611c0a565b80601f0160208091040260200160405190810160405280929190818152602001828054610d3290611c0a565b8015610d7f5780601f10610d5457610100808354040283529160200191610d7f565b820191906000526020600020905b815481529060010190602001808311610d6257829003601f168201915b50505050509350828054610d9290611c0a565b80601f0160208091040260200160405190810160405280929190818152602001828054610dbe90611c0a565b8015610e0b5780601f10610de057610100808354040283529160200191610e0b565b820191906000526020600020905b815481529060010190602001808311610dee57829003601f168201915b5050505050925080805480602002602001604051908101604052809291908181526020018280548015610e9357602002820191906000526020600020905b8160009054906101000a900473ffffffffffffffffffffffffffffffffffffffff1673ffffffffffffffffffffffffffffffffffffffff1681526020019060010190808311610e49575b505050505090509450945094509450509193509193565b60008073ffffffffffffffffffffffffffffffffffffffff16600383604051610ed39190611a71565b908152602001604051809103902060030160009054906101000a900473ffffffffffffffffffffffffffffffffffffffff1673ffffffffffffffffffffffffffffffffffffffff1614159050919050565b6000600183604051610f369190611a71565b908152602001604051809103902060008373ffffffffffffffffffffffffffffffffffffffff1673ffffffffffffffffffffffffffffffffffffffff16815260200190815260200160002060009054906101000a900460ff16905092915050565b6060600073ffffffffffffffffffffffffffffffffffffffff168273ffffffffffffffffffffffffffffffffffffffff1603611008576040517f08c379a0000000000000000000000000000000000000000000000000000000008152600401610fff906122b3565b60405180910390fd5b60006040518060200160405280600081525090506000805b60058054905081101561120c57600060046005838154811061104557611044611bac565b5b9060005260206000200160405161105c9190611cd3565b908152602001604051809103902090508573ffffffffffffffffffffffffffffffffffffffff168160030160009054906101000a900473ffffffffffffffffffffffffffffffffffffffff1673ffffffffffffffffffffffffffffffffffffffff16036111f8576111598160020180546110d590611c0a565b80601f016020809104026020016040519081016040528092919081815260200182805461110190611c0a565b801561114e5780601f106111235761010080835404028352916020019161114e565b820191906000526020600020905b81548152906001019060200180831161113157829003601f168201915b505050505033610f24565b156111f75780600201805461116d90611c0a565b80601f016020809104026020016040519081016040528092919081815260200182805461119990611c0a565b80156111e65780601f106111bb576101008083540402835291602001916111e6565b820191906000526020600020905b8154815290600101906020018083116111c957829003601f168201915b50505050509350600192505061120c565b5b50808061120490612030565b915050611020565b508061124d576040517f08c379a000000000000000000000000000000000000000000000000000000000815260040161124490612345565b60405180910390fd5b8192505050919050565b60006001836040516112699190611a71565b908152602001604051809103902060008373ffffffffffffffffffffffffffffffffffffffff1673ffffffffffffffffffffffffffffffffffffffff16815260200190815260200160002060006101000a81548160ff0219169083151502179055505050565b600180836040516112e09190611a71565b908152602001604051809103902060008373ffffffffffffffffffffffffffffffffffffffff1673ffffffffffffffffffffffffffffffffffffffff16815260200190815260200160002060006101000a81548160ff0219169083151502179055505050565b50805461135290611c0a565b6000825580601f106113645750611383565b601f01602090049060005260206000209081019061138291906113a7565b5b50565b50805460008255906000526020600020908101906113a491906113a7565b50565b5b808211156113c05760008160009055506001016113a8565b5090565b6000604051905090565b600080fd5b600080fd5b600080fd5b600080fd5b6000601f19601f8301169050919050565b7f4e487b7100000000000000000000000000000000000000000000000000000000600052604160045260246000fd5b61142b826113e2565b810181811067ffffffffffffffff8211171561144a576114496113f3565b5b80604052505050565b600061145d6113c4565b90506114698282611422565b919050565b600067ffffffffffffffff821115611489576114886113f3565b5b611492826113e2565b9050602081019050919050565b82818337600083830152505050565b60006114c16114bc8461146e565b611453565b9050828152602081018484840111156114dd576114dc6113dd565b5b6114e884828561149f565b509392505050565b600082601f830112611505576115046113d8565b5b81356115158482602086016114ae565b91505092915050565b600060208284031215611534576115336113ce565b5b600082013567ffffffffffffffff811115611552576115516113d3565b5b61155e848285016114f0565b91505092915050565b600073ffffffffffffffffffffffffffffffffffffffff82169050919050565b600061159282611567565b9050919050565b6115a281611587565b81146115ad57600080fd5b50565b6000813590506115bf81611599565b92915050565b600080600080608085870312156115df576115de6113ce565b5b600085013567ffffffffffffffff8111156115fd576115fc6113d3565b5b611609878288016114f0565b945050602085013567ffffffffffffffff81111561162a576116296113d3565b5b611636878288016114f0565b935050604085013567ffffffffffffffff811115611657576116566113d3565b5b611663878288016114f0565b9250506060611674878288016115b0565b91505092959194509250565b600060208284031215611696576116956113ce565b5b60006116a4848285016115b0565b91505092915050565b600081519050919050565b600082825260208201905092915050565b6000819050602082019050919050565b600081519050919050565b600082825260208201905092915050565b60005b838110156117135780820151818401526020810190506116f8565b60008484015250505050565b600061172a826116d9565b61173481856116e4565b93506117448185602086016116f5565b61174d816113e2565b840191505092915050565b6000611764838361171f565b905092915050565b6000602082019050919050565b6000611784826116ad565b61178e81856116b8565b9350836020820285016117a0856116c9565b8060005b858110156117dc57848403895281516117bd8582611758565b94506117c88361176c565b925060208a019950506001810190506117a4565b50829750879550505050505092915050565b600060208201905081810360008301526118088184611779565b905092915050565b600082825260208201905092915050565b600061182c826116d9565b6118368185611810565b93506118468185602086016116f5565b61184f816113e2565b840191505092915050565b61186381611587565b82525050565b600081519050919050565b600082825260208201905092915050565b6000819050602082019050919050565b61189e81611587565b82525050565b60006118b08383611895565b60208301905092915050565b6000602082019050919050565b60006118d482611869565b6118de8185611874565b93506118e983611885565b8060005b8381101561191a57815161190188826118a4565b975061190c836118bc565b9250506001810190506118ed565b5085935050505092915050565b600060808201905081810360008301526119418187611821565b905081810360208301526119558186611821565b9050611964604083018561185a565b818103606083015261197681846118c9565b905095945050505050565b60008115159050919050565b61199681611981565b82525050565b60006020820190506119b1600083018461198d565b92915050565b600080604083850312156119ce576119cd6113ce565b5b600083013567ffffffffffffffff8111156119ec576119eb6113d3565b5b6119f8858286016114f0565b9250506020611a09858286016115b0565b9150509250929050565b60006020820190508181036000830152611a2d8184611821565b905092915050565b600081905092915050565b6000611a4b826116d9565b611a558185611a35565b9350611a658185602086016116f5565b80840191505092915050565b6000611a7d8284611a40565b915081905092915050565b7f4e6f2066696c65207265636f726420666f756e6420666f72207468697320434960008201527f4400000000000000000000000000000000000000000000000000000000000000602082015250565b6000611ae4602183611810565b9150611aef82611a88565b604082019050919050565b60006020820190508181036000830152611b1381611ad7565b9050919050565b7f4f6e6c7920746865206f776e65722063616e2064656c6574652074686973206660008201527f696c65207265636f726400000000000000000000000000000000000000000000602082015250565b6000611b76602a83611810565b9150611b8182611b1a565b604082019050919050565b60006020820190508181036000830152611ba581611b69565b9050919050565b7f4e487b7100000000000000000000000000000000000000000000000000000000600052603260045260246000fd5b7f4e487b7100000000000000000000000000000000000000000000000000000000600052602260045260246000fd5b60006002820490506001821680611c2257607f821691505b602082108103611c3557611c34611bdb565b5b50919050565b60008190508160005260206000209050919050565b60008154611c5d81611c0a565b611c678186611a35565b94506001821660008114611c825760018114611c9757611cca565b60ff1983168652811515820286019350611cca565b611ca085611c3b565b60005b83811015611cc257815481890152600182019150602081019050611ca3565b838801955050505b50505092915050565b6000611cdf8284611c50565b915081905092915050565b6000819050919050565b7f4e487b7100000000000000000000000000000000000000000000000000000000600052601160045260246000fd5b6000611d2e82611cea565b9150611d3983611cea565b9250828203905081811115611d5157611d50611cf4565b5b92915050565b600081549050611d6681611c0a565b9050919050565b60008190508160005260206000209050919050565b60006020601f8301049050919050565b600082821b905092915050565b600060088302611dcf7fffffffffffffffffffffffffffffffffffffffffffffffffffffffffffffffff82611d92565b611dd98683611d92565b95508019841693508086168417925050509392505050565b6000819050919050565b6000611e16611e11611e0c84611cea565b611df1565b611cea565b9050919050565b6000819050919050565b611e3083611dfb565b611e44611e3c82611e1d565b848454611d9f565b825550505050565b600090565b611e59611e4c565b611e64818484611e27565b505050565b5b81811015611e8857611e7d600082611e51565b600181019050611e6a565b5050565b601f821115611ecd57611e9e81611c3b565b611ea784611d82565b81016020851015611eb6578190505b611eca611ec285611d82565b830182611e69565b50505b505050565b600082821c905092915050565b6000611ef060001984600802611ed2565b1980831691505092915050565b6000611f098383611edf565b9150826002028217905092915050565b818103611f27575050611fff565b611f3082611d57565b67ffffffffffffffff811115611f4957611f486113f3565b5b611f538254611c0a565b611f5e828285611e8c565b6000601f831160018114611f8d5760008415611f7b578287015490505b611f858582611efd565b865550611ff8565b601f198416611f9b87611d6d565b9650611fa686611c3b565b60005b82811015611fce57848901548255600182019150600185019450602081019050611fa9565b86831015611feb5784890154611fe7601f891682611edf565b8355505b6001600288020188555050505b5050505050505b565b7f4e487b7100000000000000000000000000000000000000000000000000000000600052603160045260246000fd5b600061203b82611cea565b91507fffffffffffffffffffffffffffffffffffffffffffffffffffffffffffffffff820361206d5761206c611cf4565b5b600182019050919050565b7f46696c652043494420616c72656164792075706c6f6164656400000000000000600082015250565b60006120ae601983611810565b91506120b982612078565b602082019050919050565b600060208201905081810360008301526120dd816120a1565b9050919050565b6120ed826116d9565b67ffffffffffffffff811115612106576121056113f3565b5b6121108254611c0a565b61211b828285611e8c565b600060209050601f83116001811461214e576000841561213c578287015190505b6121468582611efd565b8655506121ae565b601f19841661215c86611c3b565b60005b828110156121845784890151825560018201915060208501945060208101905061215f565b868310156121a1578489015161219d601f891682611edf565b8355505b6001600288020188555050505b505050505050565b600060608201905081810360008301526121d08186611821565b905081810360208301526121e48185611821565b90506121f3604083018461185a565b949350505050565b7f46696c652043494420646f6573206e6f74206578697374000000000000000000600082015250565b6000612231601783611810565b915061223c826121fb565b602082019050919050565b6000602082019050818103600083015261226081612224565b9050919050565b7f496e76616c69642075706c6f6164657220616464726573730000000000000000600082015250565b600061229d601883611810565b91506122a882612267565b602082019050919050565b600060208201905081810360008301526122cc81612290565b9050919050565b7f5573657220646f6573206e6f7420686176652061636365737320746f20616e7960008201527f204349442075706c6f61646564206279207468652075706c6f61646572000000602082015250565b600061232f603d83611810565b915061233a826122d3565b604082019050919050565b6000602082019050818103600083015261235e81612322565b905091905056fea264697066735822122030bd6e56e20a63317514a694ec1ff70dccb6ea80ef2847105cecae9ffceb321e64736f6c63430008130033",
  "linkReferences": {},
  "deployedLinkReferences": {}
}