{
  "_format": "hh-sol-artifact-1",
  "contractName": "Storage",
  "sourceName": "contracts/Storage.sol",
  "abi": [
    {
      "inputs": [],
      "stateMutability": "nonpayable",
      "type": "constructor"
    },
    {
      "anonymous": false,
      "inputs": [
        {
          "indexed": false,
          "internalType": "string",
          "name": "fileName",
          "type": "string"
        },
        {
          "indexed": false,
          "internalType": "string",
          "name": "fileCid",
          "type": "string"
        },
        {
          "indexed": false,
          "internalType": "address",
          "name": "ownerAddress",
          "type": "address"
        },
        {
          "indexed": false,
          "internalType": "address",
          "name": "recipientAddresses",
          "type": "address"
        }
      ],
      "name": "CidUploaded",
      "type": "event"
    },
    {
      "inputs": [
        {
          "internalType": "string",
          "name": "cid",
          "type": "string"
        },
        {
          "internalType": "address",
          "name": "user",
          "type": "address"
        }
      ],
      "name": "canAccess",
      "outputs": [
        {
          "internalType": "bool",
          "name": "",
          "type": "bool"
        }
      ],
      "stateMutability": "view",
      "type": "function"
    },
    {
      "inputs": [
        {
          "internalType": "string",
          "name": "cid",
          "type": "string"
        }
      ],
      "name": "cidExists",
      "outputs": [
        {
          "internalType": "bool",
          "name": "",
          "type": "bool"
        }
      ],
      "stateMutability": "view",
      "type": "function"
    },
    {
      "inputs": [
        {
          "internalType": "string",
          "name": "fileCid",
          "type": "string"
        }
      ],
      "name": "deleteFileRecord",
      "outputs": [],
      "stateMutability": "nonpayable",
      "type": "function"
    },
    {
      "inputs": [
        {
          "internalType": "address",
          "name": "uploaderAddress",
          "type": "address"
        }
      ],
      "name": "getCid",
      "outputs": [
        {
          "internalType": "string",
          "name": "",
          "type": "string"
        }
      ],
      "stateMutability": "view",
      "type": "function"
    },
    {
      "inputs": [
        {
          "internalType": "address",
          "name": "uploaderAddress",
          "type": "address"
        }
      ],
      "name": "getUploadedCids",
      "outputs": [
        {
          "internalType": "string[]",
          "name": "",
          "type": "string[]"
        }
      ],
      "stateMutability": "view",
      "type": "function"
    },
    {
      "inputs": [
        {
          "internalType": "string",
          "name": "cid",
          "type": "string"
        },
        {
          "internalType": "address",
          "name": "user",
          "type": "address"
        }
      ],
      "name": "grantAccess",
      "outputs": [],
      "stateMutability": "nonpayable",
      "type": "function"
    },
    {
      "inputs": [
        {
          "internalType": "string",
          "name": "cid",
          "type": "string"
        },
        {
          "internalType": "address",
          "name": "user",
          "type": "address"
        }
      ],
      "name": "revokeAccess",
      "outputs": [],
      "stateMutability": "nonpayable",
      "type": "function"
    },
    {
      "inputs": [
        {
          "internalType": "string",
          "name": "uploaderName",
          "type": "string"
        },
        {
          "internalType": "string",
          "name": "fileName",
          "type": "string"
        },
        {
          "internalType": "string",
          "name": "fileCid",
          "type": "string"
        },
        {
          "internalType": "address",
          "name": "ownerAddress",
          "type": "address"
        },
        {
          "internalType": "address",
          "name": "recipientAddresses",
          "type": "address"
        }
      ],
      "name": "uploadCid",
      "outputs": [],
      "stateMutability": "nonpayable",
      "type": "function"
    },
    {
      "inputs": [
        {
          "internalType": "string",
          "name": "fileCid",
          "type": "string"
        }
      ],
      "name": "viewFileInfo",
      "outputs": [
        {
          "internalType": "string",
          "name": "",
          "type": "string"
        },
        {
          "internalType": "string",
          "name": "",
          "type": "string"
        },
        {
          "internalType": "address",
          "name": "",
          "type": "address"
        },
        {
          "internalType": "address[]",
          "name": "",
          "type": "address[]"
        }
      ],
      "stateMutability": "view",
      "type": "function"
    }
  ],
  "bytecode": "0x608060405234801561001057600080fd5b50336000806101000a81548173ffffffffffffffffffffffffffffffffffffffff021916908373ffffffffffffffffffffffffffffffffffffffff160217905550612442806100606000396000f3fe608060405234801561001057600080fd5b50600436106100935760003560e01c8063a77015d111610066578063a77015d114610133578063b7ef5baf14610163578063d341972314610193578063dfe0b5fe146101c3578063f37c215e146101df57610093565b806327ee6f231461009857806334b35f16146100b45780639939fba6146100d0578063a108113014610100575b600080fd5b6100b260048036038101906100ad9190611601565b6101fb565b005b6100ce60048036038101906100c991906116d0565b610578565b005b6100ea60048036038101906100e59190611719565b610b5d565b6040516100f79190611887565b60405180910390f35b61011a600480360381019061011591906116d0565b610c75565b60405161012a94939291906119c0565b60405180910390f35b61014d600480360381019061014891906116d0565b610f2f565b60405161015a9190611a35565b60405180910390f35b61017d60048036038101906101789190611a50565b610fa9565b60405161018a9190611a35565b60405180910390f35b6101ad60048036038101906101a89190611719565b61101c565b6040516101ba9190611aac565b60405180910390f35b6101dd60048036038101906101d89190611a50565b6112dc565b005b6101f960048036038101906101f49190611a50565b611354565b005b600073ffffffffffffffffffffffffffffffffffffffff166004846040516102239190611b0a565b908152602001604051809103902060030160009054906101000a900473ffffffffffffffffffffffffffffffffffffffff1673ffffffffffffffffffffffffffffffffffffffff16146102ab576040517f08c379a00000000000000000000000000000000000000000000000000000000081526004016102a290611b6d565b60405180910390fd5b846004846040516102bc9190611b0a565b908152602001604051809103902060000190816102d99190611da3565b50836004846040516102eb9190611b0a565b908152602001604051809103902060010190816103089190611da3565b508260048460405161031a9190611b0a565b908152602001604051809103902060020190816103379190611da3565b50336004846040516103499190611b0a565b908152602001604051809103902060030160006101000a81548173ffffffffffffffffffffffffffffffffffffffff021916908373ffffffffffffffffffffffffffffffffffffffff1602179055506004836040516103a89190611b0a565b9081526020016040518091039020600401819080600181540180825580915050600190039060005260206000200160009091909190916101000a81548173ffffffffffffffffffffffffffffffffffffffff021916908373ffffffffffffffffffffffffffffffffffffffff1602179055506001808460405161042b9190611b0a565b908152602001604051809103902060008473ffffffffffffffffffffffffffffffffffffffff1673ffffffffffffffffffffffffffffffffffffffff16815260200190815260200160002060006101000a81548160ff0219169083151502179055506005839080600181540180825580915050600190039060005260206000200160009091909190915090816104c19190611da3565b50600260003373ffffffffffffffffffffffffffffffffffffffff1673ffffffffffffffffffffffffffffffffffffffff168152602001908152602001600020839080600181540180825580915050600190039060005260206000200160009091909190915090816105339190611da3565b507f32bb5a8aba375cb6f693e852ff2876ec292fa25fcf83f2f87dbe417edf2c5310848484846040516105699493929190611e75565b60405180910390a15050505050565b600073ffffffffffffffffffffffffffffffffffffffff166004826040516105a09190611b0a565b908152602001604051809103902060030160009054906101000a900473ffffffffffffffffffffffffffffffffffffffff1673ffffffffffffffffffffffffffffffffffffffff1603610628576040517f08c379a000000000000000000000000000000000000000000000000000000000815260040161061f90611f3a565b60405180910390fd5b3373ffffffffffffffffffffffffffffffffffffffff1660048260405161064f9190611b0a565b908152602001604051809103902060030160009054906101000a900473ffffffffffffffffffffffffffffffffffffffff1673ffffffffffffffffffffffffffffffffffffffff16146106d7576040517f08c379a00000000000000000000000000000000000000000000000000000000081526004016106ce90611fcc565b60405180910390fd5b60006004826040516106e99190611b0a565b908152602001604051809103902060030160009054906101000a900473ffffffffffffffffffffffffffffffffffffffff16905060048260405161072d9190611b0a565b90815260200160405180910390206000808201600061074c91906113cb565b60018201600061075c91906113cb565b60028201600061076c91906113cb565b6003820160006101000a81549073ffffffffffffffffffffffffffffffffffffffff02191690556004820160006107a3919061140b565b505060005b6005805490508110156108c757826040516020016107c69190611b0a565b60405160208183030381529060405280519060200120600582815481106107f0576107ef611fec565b5b9060005260206000200160405160200161080a919061209e565b60405160208183030381529060405280519060200120036108b4576005600160058054905061083991906120e4565b8154811061084a57610849611fec565b5b906000526020600020016005828154811061086857610867611fec565b5b90600052602060002001908161087e9190612143565b5060058054806108915761089061222b565b5b6001900381819060005260206000200160006108ad91906113cb565b90556108c7565b80806108bf9061225a565b9150506107a8565b5060005b600260008373ffffffffffffffffffffffffffffffffffffffff1673ffffffffffffffffffffffffffffffffffffffff16815260200190815260200160002080549050811015610b5857826040516020016109269190611b0a565b60405160208183030381529060405280519060200120600260008473ffffffffffffffffffffffffffffffffffffffff1673ffffffffffffffffffffffffffffffffffffffff168152602001908152602001600020828154811061098d5761098c611fec565b5b906000526020600020016040516020016109a7919061209e565b6040516020818303038152906040528051906020012003610b4557600260008373ffffffffffffffffffffffffffffffffffffffff1673ffffffffffffffffffffffffffffffffffffffff1681526020019081526020016000206001600260008573ffffffffffffffffffffffffffffffffffffffff1673ffffffffffffffffffffffffffffffffffffffff16815260200190815260200160002080549050610a5091906120e4565b81548110610a6157610a60611fec565b5b90600052602060002001600260008473ffffffffffffffffffffffffffffffffffffffff1673ffffffffffffffffffffffffffffffffffffffff1681526020019081526020016000208281548110610abc57610abb611fec565b5b906000526020600020019081610ad29190612143565b50600260008373ffffffffffffffffffffffffffffffffffffffff1673ffffffffffffffffffffffffffffffffffffffff168152602001908152602001600020805480610b2257610b2161222b565b5b600190038181906000526020600020016000610b3e91906113cb565b9055610b58565b8080610b509061225a565b9150506108cb565b505050565b6060600260008373ffffffffffffffffffffffffffffffffffffffff1673ffffffffffffffffffffffffffffffffffffffff168152602001908152602001600020805480602002602001604051908101604052809291908181526020016000905b82821015610c6a578382906000526020600020018054610bdd90611bbc565b80601f0160208091040260200160405190810160405280929190818152602001828054610c0990611bbc565b8015610c565780601f10610c2b57610100808354040283529160200191610c56565b820191906000526020600020905b815481529060010190602001808311610c3957829003601f168201915b505050505081526020019060010190610bbe565b505050509050919050565b60608060006060600073ffffffffffffffffffffffffffffffffffffffff16600486604051610ca49190611b0a565b908152602001604051809103902060030160009054906101000a900473ffffffffffffffffffffffffffffffffffffffff1673ffffffffffffffffffffffffffffffffffffffff1603610d2c576040517f08c379a0000000000000000000000000000000000000000000000000000000008152600401610d23906122ee565b60405180910390fd5b6000600486604051610d3e9190611b0a565b9081526020016040518091039020905080600001816001018260030160009054906101000a900473ffffffffffffffffffffffffffffffffffffffff1683600401838054610d8b90611bbc565b80601f0160208091040260200160405190810160405280929190818152602001828054610db790611bbc565b8015610e045780601f10610dd957610100808354040283529160200191610e04565b820191906000526020600020905b815481529060010190602001808311610de757829003601f168201915b50505050509350828054610e1790611bbc565b80601f0160208091040260200160405190810160405280929190818152602001828054610e4390611bbc565b8015610e905780601f10610e6557610100808354040283529160200191610e90565b820191906000526020600020905b815481529060010190602001808311610e7357829003601f168201915b5050505050925080805480602002602001604051908101604052809291908181526020018280548015610f1857602002820191906000526020600020905b8160009054906101000a900473ffffffffffffffffffffffffffffffffffffffff1673ffffffffffffffffffffffffffffffffffffffff1681526020019060010190808311610ece575b505050505090509450945094509450509193509193565b60008073ffffffffffffffffffffffffffffffffffffffff16600383604051610f589190611b0a565b908152602001604051809103902060030160009054906101000a900473ffffffffffffffffffffffffffffffffffffffff1673ffffffffffffffffffffffffffffffffffffffff1614159050919050565b6000600183604051610fbb9190611b0a565b908152602001604051809103902060008373ffffffffffffffffffffffffffffffffffffffff1673ffffffffffffffffffffffffffffffffffffffff16815260200190815260200160002060009054906101000a900460ff16905092915050565b6060600073ffffffffffffffffffffffffffffffffffffffff168273ffffffffffffffffffffffffffffffffffffffff160361108d576040517f08c379a00000000000000000000000000000000000000000000000000000000081526004016110849061235a565b60405180910390fd5b60006040518060200160405280600081525090506000805b6005805490508110156112915760006004600583815481106110ca576110c9611fec565b5b906000526020600020016040516110e1919061209e565b908152602001604051809103902090508573ffffffffffffffffffffffffffffffffffffffff168160030160009054906101000a900473ffffffffffffffffffffffffffffffffffffffff1673ffffffffffffffffffffffffffffffffffffffff160361127d576111de81600201805461115a90611bbc565b80601f016020809104026020016040519081016040528092919081815260200182805461118690611bbc565b80156111d35780601f106111a8576101008083540402835291602001916111d3565b820191906000526020600020905b8154815290600101906020018083116111b657829003601f168201915b505050505033610fa9565b1561127c578060020180546111f290611bbc565b80601f016020809104026020016040519081016040528092919081815260200182805461121e90611bbc565b801561126b5780601f106112405761010080835404028352916020019161126b565b820191906000526020600020905b81548152906001019060200180831161124e57829003601f168201915b505050505093506001925050611291565b5b5080806112899061225a565b9150506110a5565b50806112d2576040517f08c379a00000000000000000000000000000000000000000000000000000000081526004016112c9906123ec565b60405180910390fd5b8192505050919050565b60006001836040516112ee9190611b0a565b908152602001604051809103902060008373ffffffffffffffffffffffffffffffffffffffff1673ffffffffffffffffffffffffffffffffffffffff16815260200190815260200160002060006101000a81548160ff0219169083151502179055505050565b600180836040516113659190611b0a565b908152602001604051809103902060008373ffffffffffffffffffffffffffffffffffffffff1673ffffffffffffffffffffffffffffffffffffffff16815260200190815260200160002060006101000a81548160ff0219169083151502179055505050565b5080546113d790611bbc565b6000825580601f106113e95750611408565b601f016020900490600052602060002090810190611407919061142c565b5b50565b5080546000825590600052602060002090810190611429919061142c565b50565b5b8082111561144557600081600090555060010161142d565b5090565b6000604051905090565b600080fd5b600080fd5b600080fd5b600080fd5b6000601f19601f8301169050919050565b7f4e487b7100000000000000000000000000000000000000000000000000000000600052604160045260246000fd5b6114b082611467565b810181811067ffffffffffffffff821117156114cf576114ce611478565b5b80604052505050565b60006114e2611449565b90506114ee82826114a7565b919050565b600067ffffffffffffffff82111561150e5761150d611478565b5b61151782611467565b9050602081019050919050565b82818337600083830152505050565b6000611546611541846114f3565b6114d8565b90508281526020810184848401111561156257611561611462565b5b61156d848285611524565b509392505050565b600082601f83011261158a5761158961145d565b5b813561159a848260208601611533565b91505092915050565b600073ffffffffffffffffffffffffffffffffffffffff82169050919050565b60006115ce826115a3565b9050919050565b6115de816115c3565b81146115e957600080fd5b50565b6000813590506115fb816115d5565b92915050565b600080600080600060a0868803121561161d5761161c611453565b5b600086013567ffffffffffffffff81111561163b5761163a611458565b5b61164788828901611575565b955050602086013567ffffffffffffffff81111561166857611667611458565b5b61167488828901611575565b945050604086013567ffffffffffffffff81111561169557611694611458565b5b6116a188828901611575565b93505060606116b2888289016115ec565b92505060806116c3888289016115ec565b9150509295509295909350565b6000602082840312156116e6576116e5611453565b5b600082013567ffffffffffffffff81111561170457611703611458565b5b61171084828501611575565b91505092915050565b60006020828403121561172f5761172e611453565b5b600061173d848285016115ec565b91505092915050565b600081519050919050565b600082825260208201905092915050565b6000819050602082019050919050565b600081519050919050565b600082825260208201905092915050565b60005b838110156117ac578082015181840152602081019050611791565b60008484015250505050565b60006117c382611772565b6117cd818561177d565b93506117dd81856020860161178e565b6117e681611467565b840191505092915050565b60006117fd83836117b8565b905092915050565b6000602082019050919050565b600061181d82611746565b6118278185611751565b93508360208202850161183985611762565b8060005b85811015611875578484038952815161185685826117f1565b945061186183611805565b925060208a0199505060018101905061183d565b50829750879550505050505092915050565b600060208201905081810360008301526118a18184611812565b905092915050565b600082825260208201905092915050565b60006118c582611772565b6118cf81856118a9565b93506118df81856020860161178e565b6118e881611467565b840191505092915050565b6118fc816115c3565b82525050565b600081519050919050565b600082825260208201905092915050565b6000819050602082019050919050565b611937816115c3565b82525050565b6000611949838361192e565b60208301905092915050565b6000602082019050919050565b600061196d82611902565b611977818561190d565b93506119828361191e565b8060005b838110156119b357815161199a888261193d565b97506119a583611955565b925050600181019050611986565b5085935050505092915050565b600060808201905081810360008301526119da81876118ba565b905081810360208301526119ee81866118ba565b90506119fd60408301856118f3565b8181036060830152611a0f8184611962565b905095945050505050565b60008115159050919050565b611a2f81611a1a565b82525050565b6000602082019050611a4a6000830184611a26565b92915050565b60008060408385031215611a6757611a66611453565b5b600083013567ffffffffffffffff811115611a8557611a84611458565b5b611a9185828601611575565b9250506020611aa2858286016115ec565b9150509250929050565b60006020820190508181036000830152611ac681846118ba565b905092915050565b600081905092915050565b6000611ae482611772565b611aee8185611ace565b9350611afe81856020860161178e565b80840191505092915050565b6000611b168284611ad9565b915081905092915050565b7f46696c652043494420616c72656164792075706c6f6164656400000000000000600082015250565b6000611b576019836118a9565b9150611b6282611b21565b602082019050919050565b60006020820190508181036000830152611b8681611b4a565b9050919050565b7f4e487b7100000000000000000000000000000000000000000000000000000000600052602260045260246000fd5b60006002820490506001821680611bd457607f821691505b602082108103611be757611be6611b8d565b5b50919050565b60008190508160005260206000209050919050565b60006020601f8301049050919050565b600082821b905092915050565b600060088302611c4f7fffffffffffffffffffffffffffffffffffffffffffffffffffffffffffffffff82611c12565b611c598683611c12565b95508019841693508086168417925050509392505050565b6000819050919050565b6000819050919050565b6000611ca0611c9b611c9684611c71565b611c7b565b611c71565b9050919050565b6000819050919050565b611cba83611c85565b611cce611cc682611ca7565b848454611c1f565b825550505050565b600090565b611ce3611cd6565b611cee818484611cb1565b505050565b5b81811015611d1257611d07600082611cdb565b600181019050611cf4565b5050565b601f821115611d5757611d2881611bed565b611d3184611c02565b81016020851015611d40578190505b611d54611d4c85611c02565b830182611cf3565b50505b505050565b600082821c905092915050565b6000611d7a60001984600802611d5c565b1980831691505092915050565b6000611d938383611d69565b9150826002028217905092915050565b611dac82611772565b67ffffffffffffffff811115611dc557611dc4611478565b5b611dcf8254611bbc565b611dda828285611d16565b600060209050601f831160018114611e0d5760008415611dfb578287015190505b611e058582611d87565b865550611e6d565b601f198416611e1b86611bed565b60005b82811015611e4357848901518255600182019150602085019450602081019050611e1e565b86831015611e605784890151611e5c601f891682611d69565b8355505b6001600288020188555050505b505050505050565b60006080820190508181036000830152611e8f81876118ba565b90508181036020830152611ea381866118ba565b9050611eb260408301856118f3565b611ebf60608301846118f3565b95945050505050565b7f4e6f2066696c65207265636f726420666f756e6420666f72207468697320434960008201527f4400000000000000000000000000000000000000000000000000000000000000602082015250565b6000611f246021836118a9565b9150611f2f82611ec8565b604082019050919050565b60006020820190508181036000830152611f5381611f17565b9050919050565b7f4f6e6c7920746865206f776e65722063616e2064656c6574652074686973206660008201527f696c65207265636f726400000000000000000000000000000000000000000000602082015250565b6000611fb6602a836118a9565b9150611fc182611f5a565b604082019050919050565b60006020820190508181036000830152611fe581611fa9565b9050919050565b7f4e487b7100000000000000000000000000000000000000000000000000000000600052603260045260246000fd5b6000815461202881611bbc565b6120328186611ace565b9450600182166000811461204d576001811461206257612095565b60ff1983168652811515820286019350612095565b61206b85611bed565b60005b8381101561208d5781548189015260018201915060208101905061206e565b838801955050505b50505092915050565b60006120aa828461201b565b915081905092915050565b7f4e487b7100000000000000000000000000000000000000000000000000000000600052601160045260246000fd5b60006120ef82611c71565b91506120fa83611c71565b9250828203905081811115612112576121116120b5565b5b92915050565b60008154905061212781611bbc565b9050919050565b60008190508160005260206000209050919050565b818103612151575050612229565b61215a82612118565b67ffffffffffffffff81111561217357612172611478565b5b61217d8254611bbc565b612188828285611d16565b6000601f8311600181146121b757600084156121a5578287015490505b6121af8582611d87565b865550612222565b601f1984166121c58761212e565b96506121d086611bed565b60005b828110156121f8578489015482556001820191506001850194506020810190506121d3565b868310156122155784890154612211601f891682611d69565b8355505b6001600288020188555050505b5050505050505b565b7f4e487b7100000000000000000000000000000000000000000000000000000000600052603160045260246000fd5b600061226582611c71565b91507fffffffffffffffffffffffffffffffffffffffffffffffffffffffffffffffff8203612297576122966120b5565b5b600182019050919050565b7f46696c652043494420646f6573206e6f74206578697374000000000000000000600082015250565b60006122d86017836118a9565b91506122e3826122a2565b602082019050919050565b60006020820190508181036000830152612307816122cb565b9050919050565b7f496e76616c69642075706c6f6164657220616464726573730000000000000000600082015250565b60006123446018836118a9565b915061234f8261230e565b602082019050919050565b6000602082019050818103600083015261237381612337565b9050919050565b7f5573657220646f6573206e6f7420686176652061636365737320746f20616e7960008201527f204349442075706c6f61646564206279207468652075706c6f61646572000000602082015250565b60006123d6603d836118a9565b91506123e18261237a565b604082019050919050565b60006020820190508181036000830152612405816123c9565b905091905056fea2646970667358221220cf3a45c77cee49698dea1146ac64c3659568c5f6f3e2c12f03dededf5bcc9d0c64736f6c63430008130033",
  "linkReferences": {},
  "deployedLinkReferences": {}
}