{
  "_format": "hh-sol-artifact-1",
  "contractName": "Storage",
  "sourceName": "contracts/Storage.sol",
  "abi": [
    {
      "inputs": [],
      "stateMutability": "nonpayable",
      "type": "constructor"
    },
    {
      "anonymous": false,
      "inputs": [
        {
          "indexed": false,
          "internalType": "string",
          "name": "fileName",
          "type": "string"
        },
        {
          "indexed": false,
          "internalType": "string",
          "name": "fileCid",
          "type": "string"
        },
        {
          "indexed": false,
          "internalType": "address",
          "name": "ownerAddress",
          "type": "address"
        },
        {
          "indexed": false,
          "internalType": "address",
          "name": "recipientAddresses",
          "type": "address"
        }
      ],
      "name": "CidUploaded",
      "type": "event"
    },
    {
      "inputs": [
        {
          "internalType": "string",
          "name": "cid",
          "type": "string"
        },
        {
          "internalType": "address",
          "name": "user",
          "type": "address"
        }
      ],
      "name": "canAccess",
      "outputs": [
        {
          "internalType": "bool",
          "name": "",
          "type": "bool"
        }
      ],
      "stateMutability": "view",
      "type": "function"
    },
    {
      "inputs": [
        {
          "internalType": "string",
          "name": "cid",
          "type": "string"
        }
      ],
      "name": "cidExists",
      "outputs": [
        {
          "internalType": "bool",
          "name": "",
          "type": "bool"
        }
      ],
      "stateMutability": "view",
      "type": "function"
    },
    {
      "inputs": [
        {
          "internalType": "address",
          "name": "uploaderAddress",
          "type": "address"
        }
      ],
      "name": "getCid",
      "outputs": [
        {
          "internalType": "string",
          "name": "",
          "type": "string"
        }
      ],
      "stateMutability": "view",
      "type": "function"
    },
    {
      "inputs": [
        {
          "internalType": "address",
          "name": "uploaderAddress",
          "type": "address"
        }
      ],
      "name": "getUploadedCids",
      "outputs": [
        {
          "internalType": "string[]",
          "name": "",
          "type": "string[]"
        }
      ],
      "stateMutability": "view",
      "type": "function"
    },
    {
      "inputs": [
        {
          "internalType": "string",
          "name": "cid",
          "type": "string"
        },
        {
          "internalType": "address",
          "name": "user",
          "type": "address"
        }
      ],
      "name": "grantAccess",
      "outputs": [],
      "stateMutability": "nonpayable",
      "type": "function"
    },
    {
      "inputs": [
        {
          "internalType": "string",
          "name": "cid",
          "type": "string"
        },
        {
          "internalType": "address",
          "name": "user",
          "type": "address"
        }
      ],
      "name": "revokeAccess",
      "outputs": [],
      "stateMutability": "nonpayable",
      "type": "function"
    },
    {
      "inputs": [
        {
          "internalType": "string",
          "name": "uploaderName",
          "type": "string"
        },
        {
          "internalType": "string",
          "name": "fileName",
          "type": "string"
        },
        {
          "internalType": "string",
          "name": "fileCid",
          "type": "string"
        },
        {
          "internalType": "address",
          "name": "ownerAddress",
          "type": "address"
        },
        {
          "internalType": "address",
          "name": "recipientAddresses",
          "type": "address"
        }
      ],
      "name": "uploadCid",
      "outputs": [],
      "stateMutability": "nonpayable",
      "type": "function"
    },
    {
      "inputs": [
        {
          "internalType": "string",
          "name": "fileCid",
          "type": "string"
        }
      ],
      "name": "viewFileInfo",
      "outputs": [
        {
          "internalType": "string",
          "name": "",
          "type": "string"
        },
        {
          "internalType": "string",
          "name": "",
          "type": "string"
        },
        {
          "internalType": "address",
          "name": "",
          "type": "address"
        },
        {
          "internalType": "address[]",
          "name": "",
          "type": "address[]"
        }
      ],
      "stateMutability": "view",
      "type": "function"
    }
  ],
  "bytecode": "0x608060405234801561001057600080fd5b50336000806101000a81548173ffffffffffffffffffffffffffffffffffffffff021916908373ffffffffffffffffffffffffffffffffffffffff160217905550611ccc806100606000396000f3fe608060405234801561001057600080fd5b50600436106100885760003560e01c8063b7ef5baf1161005b578063b7ef5baf1461013c578063d34197231461016c578063dfe0b5fe1461019c578063f37c215e146101b857610088565b806327ee6f231461008d5780639939fba6146100a9578063a1081130146100d9578063a77015d11461010c575b600080fd5b6100a760048036038101906100a29190611093565b6101d4565b005b6100c360048036038101906100be9190611162565b610551565b6040516100d091906112d0565b60405180910390f35b6100f360048036038101906100ee91906112f2565b610669565b6040516101039493929190611452565b60405180910390f35b610126600480360381019061012191906112f2565b610923565b60405161013391906114c7565b60405180910390f35b610156600480360381019061015191906114e2565b61099d565b60405161016391906114c7565b60405180910390f35b61018660048036038101906101819190611162565b610a10565b604051610193919061153e565b60405180910390f35b6101b660048036038101906101b191906114e2565b610cd0565b005b6101d260048036038101906101cd91906114e2565b610dd6565b005b600073ffffffffffffffffffffffffffffffffffffffff166004846040516101fc919061159c565b908152602001604051809103902060030160009054906101000a900473ffffffffffffffffffffffffffffffffffffffff1673ffffffffffffffffffffffffffffffffffffffff1614610284576040517f08c379a000000000000000000000000000000000000000000000000000000000815260040161027b906115ff565b60405180910390fd5b84600484604051610295919061159c565b908152602001604051809103902060000190816102b29190611835565b50836004846040516102c4919061159c565b908152602001604051809103902060010190816102e19190611835565b50826004846040516102f3919061159c565b908152602001604051809103902060020190816103109190611835565b5033600484604051610322919061159c565b908152602001604051809103902060030160006101000a81548173ffffffffffffffffffffffffffffffffffffffff021916908373ffffffffffffffffffffffffffffffffffffffff160217905550600483604051610381919061159c565b9081526020016040518091039020600401819080600181540180825580915050600190039060005260206000200160009091909190916101000a81548173ffffffffffffffffffffffffffffffffffffffff021916908373ffffffffffffffffffffffffffffffffffffffff16021790555060018084604051610404919061159c565b908152602001604051809103902060008473ffffffffffffffffffffffffffffffffffffffff1673ffffffffffffffffffffffffffffffffffffffff16815260200190815260200160002060006101000a81548160ff02191690831515021790555060058390806001815401808255809150506001900390600052602060002001600090919091909150908161049a9190611835565b50600260003373ffffffffffffffffffffffffffffffffffffffff1673ffffffffffffffffffffffffffffffffffffffff1681526020019081526020016000208390806001815401808255809150506001900390600052602060002001600090919091909150908161050c9190611835565b507f32bb5a8aba375cb6f693e852ff2876ec292fa25fcf83f2f87dbe417edf2c5310848484846040516105429493929190611907565b60405180910390a15050505050565b6060600260008373ffffffffffffffffffffffffffffffffffffffff1673ffffffffffffffffffffffffffffffffffffffff168152602001908152602001600020805480602002602001604051908101604052809291908181526020016000905b8282101561065e5783829060005260206000200180546105d19061164e565b80601f01602080910402602001604051908101604052809291908181526020018280546105fd9061164e565b801561064a5780601f1061061f5761010080835404028352916020019161064a565b820191906000526020600020905b81548152906001019060200180831161062d57829003601f168201915b5050505050815260200190600101906105b2565b505050509050919050565b60608060006060600073ffffffffffffffffffffffffffffffffffffffff16600486604051610698919061159c565b908152602001604051809103902060030160009054906101000a900473ffffffffffffffffffffffffffffffffffffffff1673ffffffffffffffffffffffffffffffffffffffff1603610720576040517f08c379a0000000000000000000000000000000000000000000000000000000008152600401610717906119a6565b60405180910390fd5b6000600486604051610732919061159c565b9081526020016040518091039020905080600001816001018260030160009054906101000a900473ffffffffffffffffffffffffffffffffffffffff168360040183805461077f9061164e565b80601f01602080910402602001604051908101604052809291908181526020018280546107ab9061164e565b80156107f85780601f106107cd576101008083540402835291602001916107f8565b820191906000526020600020905b8154815290600101906020018083116107db57829003601f168201915b5050505050935082805461080b9061164e565b80601f01602080910402602001604051908101604052809291908181526020018280546108379061164e565b80156108845780601f1061085957610100808354040283529160200191610884565b820191906000526020600020905b81548152906001019060200180831161086757829003601f168201915b505050505092508080548060200260200160405190810160405280929190818152602001828054801561090c57602002820191906000526020600020905b8160009054906101000a900473ffffffffffffffffffffffffffffffffffffffff1673ffffffffffffffffffffffffffffffffffffffff16815260200190600101908083116108c2575b505050505090509450945094509450509193509193565b60008073ffffffffffffffffffffffffffffffffffffffff1660038360405161094c919061159c565b908152602001604051809103902060030160009054906101000a900473ffffffffffffffffffffffffffffffffffffffff1673ffffffffffffffffffffffffffffffffffffffff1614159050919050565b60006001836040516109af919061159c565b908152602001604051809103902060008373ffffffffffffffffffffffffffffffffffffffff1673ffffffffffffffffffffffffffffffffffffffff16815260200190815260200160002060009054906101000a900460ff16905092915050565b6060600073ffffffffffffffffffffffffffffffffffffffff168273ffffffffffffffffffffffffffffffffffffffff1603610a81576040517f08c379a0000000000000000000000000000000000000000000000000000000008152600401610a7890611a12565b60405180910390fd5b60006040518060200160405280600081525090506000805b600580549050811015610c85576000600460058381548110610abe57610abd611a32565b5b90600052602060002001604051610ad59190611ae4565b908152602001604051809103902090508573ffffffffffffffffffffffffffffffffffffffff168160030160009054906101000a900473ffffffffffffffffffffffffffffffffffffffff1673ffffffffffffffffffffffffffffffffffffffff1603610c7157610bd2816002018054610b4e9061164e565b80601f0160208091040260200160405190810160405280929190818152602001828054610b7a9061164e565b8015610bc75780601f10610b9c57610100808354040283529160200191610bc7565b820191906000526020600020905b815481529060010190602001808311610baa57829003601f168201915b50505050503361099d565b15610c7057806002018054610be69061164e565b80601f0160208091040260200160405190810160405280929190818152602001828054610c129061164e565b8015610c5f5780601f10610c3457610100808354040283529160200191610c5f565b820191906000526020600020905b815481529060010190602001808311610c4257829003601f168201915b505050505093506001925050610c85565b5b508080610c7d90611b2a565b915050610a99565b5080610cc6576040517f08c379a0000000000000000000000000000000000000000000000000000000008152600401610cbd90611be4565b60405180910390fd5b8192505050919050565b60008054906101000a900473ffffffffffffffffffffffffffffffffffffffff1673ffffffffffffffffffffffffffffffffffffffff163373ffffffffffffffffffffffffffffffffffffffff1614610d5e576040517f08c379a0000000000000000000000000000000000000000000000000000000008152600401610d5590611c76565b60405180910390fd5b6000600183604051610d70919061159c565b908152602001604051809103902060008373ffffffffffffffffffffffffffffffffffffffff1673ffffffffffffffffffffffffffffffffffffffff16815260200190815260200160002060006101000a81548160ff0219169083151502179055505050565b60008054906101000a900473ffffffffffffffffffffffffffffffffffffffff1673ffffffffffffffffffffffffffffffffffffffff163373ffffffffffffffffffffffffffffffffffffffff1614610e64576040517f08c379a0000000000000000000000000000000000000000000000000000000008152600401610e5b90611c76565b60405180910390fd5b60018083604051610e75919061159c565b908152602001604051809103902060008373ffffffffffffffffffffffffffffffffffffffff1673ffffffffffffffffffffffffffffffffffffffff16815260200190815260200160002060006101000a81548160ff0219169083151502179055505050565b6000604051905090565b600080fd5b600080fd5b600080fd5b600080fd5b6000601f19601f8301169050919050565b7f4e487b7100000000000000000000000000000000000000000000000000000000600052604160045260246000fd5b610f4282610ef9565b810181811067ffffffffffffffff82111715610f6157610f60610f0a565b5b80604052505050565b6000610f74610edb565b9050610f808282610f39565b919050565b600067ffffffffffffffff821115610fa057610f9f610f0a565b5b610fa982610ef9565b9050602081019050919050565b82818337600083830152505050565b6000610fd8610fd384610f85565b610f6a565b905082815260208101848484011115610ff457610ff3610ef4565b5b610fff848285610fb6565b509392505050565b600082601f83011261101c5761101b610eef565b5b813561102c848260208601610fc5565b91505092915050565b600073ffffffffffffffffffffffffffffffffffffffff82169050919050565b600061106082611035565b9050919050565b61107081611055565b811461107b57600080fd5b50565b60008135905061108d81611067565b92915050565b600080600080600060a086880312156110af576110ae610ee5565b5b600086013567ffffffffffffffff8111156110cd576110cc610eea565b5b6110d988828901611007565b955050602086013567ffffffffffffffff8111156110fa576110f9610eea565b5b61110688828901611007565b945050604086013567ffffffffffffffff81111561112757611126610eea565b5b61113388828901611007565b93505060606111448882890161107e565b92505060806111558882890161107e565b9150509295509295909350565b60006020828403121561117857611177610ee5565b5b60006111868482850161107e565b91505092915050565b600081519050919050565b600082825260208201905092915050565b6000819050602082019050919050565b600081519050919050565b600082825260208201905092915050565b60005b838110156111f55780820151818401526020810190506111da565b60008484015250505050565b600061120c826111bb565b61121681856111c6565b93506112268185602086016111d7565b61122f81610ef9565b840191505092915050565b60006112468383611201565b905092915050565b6000602082019050919050565b60006112668261118f565b611270818561119a565b935083602082028501611282856111ab565b8060005b858110156112be578484038952815161129f858261123a565b94506112aa8361124e565b925060208a01995050600181019050611286565b50829750879550505050505092915050565b600060208201905081810360008301526112ea818461125b565b905092915050565b60006020828403121561130857611307610ee5565b5b600082013567ffffffffffffffff81111561132657611325610eea565b5b61133284828501611007565b91505092915050565b600082825260208201905092915050565b6000611357826111bb565b611361818561133b565b93506113718185602086016111d7565b61137a81610ef9565b840191505092915050565b61138e81611055565b82525050565b600081519050919050565b600082825260208201905092915050565b6000819050602082019050919050565b6113c981611055565b82525050565b60006113db83836113c0565b60208301905092915050565b6000602082019050919050565b60006113ff82611394565b611409818561139f565b9350611414836113b0565b8060005b8381101561144557815161142c88826113cf565b9750611437836113e7565b925050600181019050611418565b5085935050505092915050565b6000608082019050818103600083015261146c818761134c565b90508181036020830152611480818661134c565b905061148f6040830185611385565b81810360608301526114a181846113f4565b905095945050505050565b60008115159050919050565b6114c1816114ac565b82525050565b60006020820190506114dc60008301846114b8565b92915050565b600080604083850312156114f9576114f8610ee5565b5b600083013567ffffffffffffffff81111561151757611516610eea565b5b61152385828601611007565b92505060206115348582860161107e565b9150509250929050565b60006020820190508181036000830152611558818461134c565b905092915050565b600081905092915050565b6000611576826111bb565b6115808185611560565b93506115908185602086016111d7565b80840191505092915050565b60006115a8828461156b565b915081905092915050565b7f46696c652043494420616c72656164792075706c6f6164656400000000000000600082015250565b60006115e960198361133b565b91506115f4826115b3565b602082019050919050565b60006020820190508181036000830152611618816115dc565b9050919050565b7f4e487b7100000000000000000000000000000000000000000000000000000000600052602260045260246000fd5b6000600282049050600182168061166657607f821691505b6020821081036116795761167861161f565b5b50919050565b60008190508160005260206000209050919050565b60006020601f8301049050919050565b600082821b905092915050565b6000600883026116e17fffffffffffffffffffffffffffffffffffffffffffffffffffffffffffffffff826116a4565b6116eb86836116a4565b95508019841693508086168417925050509392505050565b6000819050919050565b6000819050919050565b600061173261172d61172884611703565b61170d565b611703565b9050919050565b6000819050919050565b61174c83611717565b61176061175882611739565b8484546116b1565b825550505050565b600090565b611775611768565b611780818484611743565b505050565b5b818110156117a45761179960008261176d565b600181019050611786565b5050565b601f8211156117e9576117ba8161167f565b6117c384611694565b810160208510156117d2578190505b6117e66117de85611694565b830182611785565b50505b505050565b600082821c905092915050565b600061180c600019846008026117ee565b1980831691505092915050565b600061182583836117fb565b9150826002028217905092915050565b61183e826111bb565b67ffffffffffffffff81111561185757611856610f0a565b5b611861825461164e565b61186c8282856117a8565b600060209050601f83116001811461189f576000841561188d578287015190505b6118978582611819565b8655506118ff565b601f1984166118ad8661167f565b60005b828110156118d5578489015182556001820191506020850194506020810190506118b0565b868310156118f257848901516118ee601f8916826117fb565b8355505b6001600288020188555050505b505050505050565b60006080820190508181036000830152611921818761134c565b90508181036020830152611935818661134c565b90506119446040830185611385565b6119516060830184611385565b95945050505050565b7f46696c652043494420646f6573206e6f74206578697374000000000000000000600082015250565b600061199060178361133b565b915061199b8261195a565b602082019050919050565b600060208201905081810360008301526119bf81611983565b9050919050565b7f496e76616c69642075706c6f6164657220616464726573730000000000000000600082015250565b60006119fc60188361133b565b9150611a07826119c6565b602082019050919050565b60006020820190508181036000830152611a2b816119ef565b9050919050565b7f4e487b7100000000000000000000000000000000000000000000000000000000600052603260045260246000fd5b60008154611a6e8161164e565b611a788186611560565b94506001821660008114611a935760018114611aa857611adb565b60ff1983168652811515820286019350611adb565b611ab18561167f565b60005b83811015611ad357815481890152600182019150602081019050611ab4565b838801955050505b50505092915050565b6000611af08284611a61565b915081905092915050565b7f4e487b7100000000000000000000000000000000000000000000000000000000600052601160045260246000fd5b6000611b3582611703565b91507fffffffffffffffffffffffffffffffffffffffffffffffffffffffffffffffff8203611b6757611b66611afb565b5b600182019050919050565b7f5573657220646f6573206e6f7420686176652061636365737320746f20616e7960008201527f204349442075706c6f61646564206279207468652075706c6f61646572000000602082015250565b6000611bce603d8361133b565b9150611bd982611b72565b604082019050919050565b60006020820190508181036000830152611bfd81611bc1565b9050919050565b7f4f6e6c792074686520636f6e7472616374206f776e65722063616e2063616c6c60008201527f20746869732066756e6374696f6e000000000000000000000000000000000000602082015250565b6000611c60602e8361133b565b9150611c6b82611c04565b604082019050919050565b60006020820190508181036000830152611c8f81611c53565b905091905056fea2646970667358221220285bcf9be9453d2f3124fca0e1fb538185a948f10337a11b72a5f0ec8b64570464736f6c63430008130033",
  "linkReferences": {},
  "deployedLinkReferences": {}
}